{
  "abi": [
    {
      "inputs": [
        {
          "internalType": "contract AllowlistDataSourceAggregatorDeployer",
          "name": "_delegateDeployer",
          "type": "address"
        },
        {
          "internalType": "contract IJBOperatorStore",
          "name": "_operatorStore",
          "type": "address"
        }
      ],
      "stateMutability": "nonpayable",
      "type": "constructor"
    },
    {
      "inputs": [],
      "name": "UNAUTHORIZED",
      "type": "error"
    },
    {
      "inputs": [],
      "name": "delegateDeployer",
      "outputs": [
        {
          "internalType": "contract AllowlistDataSourceAggregatorDeployer",
          "name": "",
          "type": "address"
        }
      ],
      "stateMutability": "view",
      "type": "function"
    },
    {
      "inputs": [
        {
          "internalType": "uint256",
          "name": "_projectId",
          "type": "uint256"
        },
        {
          "components": [
            {
              "internalType": "address[]",
              "name": "dataSources",
              "type": "address[]"
            },
            {
              "internalType": "address",
              "name": "governance",
              "type": "address"
            }
          ],
          "internalType": "struct DeployMyDelegateData",
          "name": "_deployMyDelegateData",
          "type": "tuple"
        },
        {
          "components": [
            {
              "components": [
                {
                  "internalType": "uint256",
                  "name": "duration",
                  "type": "uint256"
                },
                {
                  "internalType": "uint256",
                  "name": "weight",
                  "type": "uint256"
                },
                {
                  "internalType": "uint256",
                  "name": "discountRate",
                  "type": "uint256"
                },
                {
                  "internalType": "contract IJBFundingCycleBallot",
                  "name": "ballot",
                  "type": "address"
                }
              ],
              "internalType": "struct JBFundingCycleData",
              "name": "data",
              "type": "tuple"
            },
            {
              "components": [
                {
                  "components": [
                    {
                      "internalType": "bool",
                      "name": "allowSetTerminals",
                      "type": "bool"
                    },
                    {
                      "internalType": "bool",
                      "name": "allowSetController",
                      "type": "bool"
                    },
                    {
                      "internalType": "bool",
                      "name": "pauseTransfers",
                      "type": "bool"
                    }
                  ],
                  "internalType": "struct JBGlobalFundingCycleMetadata",
                  "name": "global",
                  "type": "tuple"
                },
                {
                  "internalType": "uint256",
                  "name": "reservedRate",
                  "type": "uint256"
                },
                {
                  "internalType": "uint256",
                  "name": "redemptionRate",
                  "type": "uint256"
                },
                {
                  "internalType": "uint256",
                  "name": "ballotRedemptionRate",
                  "type": "uint256"
                },
                {
                  "internalType": "bool",
                  "name": "pausePay",
                  "type": "bool"
                },
                {
                  "internalType": "bool",
                  "name": "pauseDistributions",
                  "type": "bool"
                },
                {
                  "internalType": "bool",
                  "name": "pauseRedeem",
                  "type": "bool"
                },
                {
                  "internalType": "bool",
                  "name": "pauseBurn",
                  "type": "bool"
                },
                {
                  "internalType": "bool",
                  "name": "allowMinting",
                  "type": "bool"
                },
                {
                  "internalType": "bool",
                  "name": "allowTerminalMigration",
                  "type": "bool"
                },
                {
                  "internalType": "bool",
                  "name": "allowControllerMigration",
                  "type": "bool"
                },
                {
                  "internalType": "bool",
                  "name": "holdFees",
                  "type": "bool"
                },
                {
                  "internalType": "bool",
                  "name": "preferClaimedTokenOverride",
                  "type": "bool"
                },
                {
                  "internalType": "bool",
                  "name": "useTotalOverflowForRedemptions",
                  "type": "bool"
                },
                {
                  "internalType": "bool",
                  "name": "useDataSourceForPay",
                  "type": "bool"
                },
                {
                  "internalType": "bool",
                  "name": "useDataSourceForRedeem",
                  "type": "bool"
                },
                {
                  "internalType": "address",
                  "name": "dataSource",
                  "type": "address"
                },
                {
                  "internalType": "uint256",
                  "name": "metadata",
                  "type": "uint256"
                }
              ],
              "internalType": "struct JBFundingCycleMetadata",
              "name": "metadata",
              "type": "tuple"
            },
            {
              "internalType": "uint256",
              "name": "mustStartAtOrAfter",
              "type": "uint256"
            },
            {
              "components": [
                {
                  "internalType": "uint256",
                  "name": "group",
                  "type": "uint256"
                },
                {
                  "components": [
                    {
                      "internalType": "bool",
                      "name": "preferClaimed",
                      "type": "bool"
                    },
                    {
                      "internalType": "bool",
                      "name": "preferAddToBalance",
                      "type": "bool"
                    },
                    {
                      "internalType": "uint256",
                      "name": "percent",
                      "type": "uint256"
                    },
                    {
                      "internalType": "uint256",
                      "name": "projectId",
                      "type": "uint256"
                    },
                    {
                      "internalType": "address payable",
                      "name": "beneficiary",
                      "type": "address"
                    },
                    {
                      "internalType": "uint256",
                      "name": "lockedUntil",
                      "type": "uint256"
                    },
                    {
                      "internalType": "contract IJBSplitAllocator",
                      "name": "allocator",
                      "type": "address"
                    }
                  ],
                  "internalType": "struct JBSplit[]",
                  "name": "splits",
                  "type": "tuple[]"
                }
              ],
              "internalType": "struct JBGroupedSplits[]",
              "name": "groupedSplits",
              "type": "tuple[]"
            },
            {
              "components": [
                {
                  "internalType": "contract IJBPaymentTerminal",
                  "name": "terminal",
                  "type": "address"
                },
                {
                  "internalType": "address",
                  "name": "token",
                  "type": "address"
                },
                {
                  "internalType": "uint256",
                  "name": "distributionLimit",
                  "type": "uint256"
                },
                {
                  "internalType": "uint256",
                  "name": "distributionLimitCurrency",
                  "type": "uint256"
                },
                {
                  "internalType": "uint256",
                  "name": "overflowAllowance",
                  "type": "uint256"
                },
                {
                  "internalType": "uint256",
                  "name": "overflowAllowanceCurrency",
                  "type": "uint256"
                }
              ],
              "internalType": "struct JBFundAccessConstraints[]",
              "name": "fundAccessConstraints",
              "type": "tuple[]"
            },
            {
              "internalType": "contract IJBPaymentTerminal[]",
              "name": "terminals",
              "type": "address[]"
            },
            {
              "internalType": "string",
              "name": "memo",
              "type": "string"
            }
          ],
          "internalType": "struct LaunchFundingCyclesData",
          "name": "_launchFundingCyclesData",
          "type": "tuple"
        },
        {
          "internalType": "contract IJBController3_1",
          "name": "_controller",
          "type": "address"
        }
      ],
      "name": "launchFundingCyclesFor",
      "outputs": [
        {
          "internalType": "uint256",
          "name": "configuration",
          "type": "uint256"
        }
      ],
      "stateMutability": "nonpayable",
      "type": "function"
    },
    {
      "inputs": [
        {
          "internalType": "address",
          "name": "_owner",
          "type": "address"
        },
        {
          "components": [
            {
              "internalType": "address[]",
              "name": "dataSources",
              "type": "address[]"
            },
            {
              "internalType": "address",
              "name": "governance",
              "type": "address"
            }
          ],
          "internalType": "struct DeployMyDelegateData",
          "name": "_deployMyDelegateData",
          "type": "tuple"
        },
        {
          "components": [
            {
              "components": [
                {
                  "internalType": "string",
                  "name": "content",
                  "type": "string"
                },
                {
                  "internalType": "uint256",
                  "name": "domain",
                  "type": "uint256"
                }
              ],
              "internalType": "struct JBProjectMetadata",
              "name": "projectMetadata",
              "type": "tuple"
            },
            {
              "components": [
                {
                  "internalType": "uint256",
                  "name": "duration",
                  "type": "uint256"
                },
                {
                  "internalType": "uint256",
                  "name": "weight",
                  "type": "uint256"
                },
                {
                  "internalType": "uint256",
                  "name": "discountRate",
                  "type": "uint256"
                },
                {
                  "internalType": "contract IJBFundingCycleBallot",
                  "name": "ballot",
                  "type": "address"
                }
              ],
              "internalType": "struct JBFundingCycleData",
              "name": "data",
              "type": "tuple"
            },
            {
              "components": [
                {
                  "components": [
                    {
                      "internalType": "bool",
                      "name": "allowSetTerminals",
                      "type": "bool"
                    },
                    {
                      "internalType": "bool",
                      "name": "allowSetController",
                      "type": "bool"
                    },
                    {
                      "internalType": "bool",
                      "name": "pauseTransfers",
                      "type": "bool"
                    }
                  ],
                  "internalType": "struct JBGlobalFundingCycleMetadata",
                  "name": "global",
                  "type": "tuple"
                },
                {
                  "internalType": "uint256",
                  "name": "reservedRate",
                  "type": "uint256"
                },
                {
                  "internalType": "uint256",
                  "name": "redemptionRate",
                  "type": "uint256"
                },
                {
                  "internalType": "uint256",
                  "name": "ballotRedemptionRate",
                  "type": "uint256"
                },
                {
                  "internalType": "bool",
                  "name": "pausePay",
                  "type": "bool"
                },
                {
                  "internalType": "bool",
                  "name": "pauseDistributions",
                  "type": "bool"
                },
                {
                  "internalType": "bool",
                  "name": "pauseRedeem",
                  "type": "bool"
                },
                {
                  "internalType": "bool",
                  "name": "pauseBurn",
                  "type": "bool"
                },
                {
                  "internalType": "bool",
                  "name": "allowMinting",
                  "type": "bool"
                },
                {
                  "internalType": "bool",
                  "name": "allowTerminalMigration",
                  "type": "bool"
                },
                {
                  "internalType": "bool",
                  "name": "allowControllerMigration",
                  "type": "bool"
                },
                {
                  "internalType": "bool",
                  "name": "holdFees",
                  "type": "bool"
                },
                {
                  "internalType": "bool",
                  "name": "preferClaimedTokenOverride",
                  "type": "bool"
                },
                {
                  "internalType": "bool",
                  "name": "useTotalOverflowForRedemptions",
                  "type": "bool"
                },
                {
                  "internalType": "bool",
                  "name": "useDataSourceForPay",
                  "type": "bool"
                },
                {
                  "internalType": "bool",
                  "name": "useDataSourceForRedeem",
                  "type": "bool"
                },
                {
                  "internalType": "address",
                  "name": "dataSource",
                  "type": "address"
                },
                {
                  "internalType": "uint256",
                  "name": "metadata",
                  "type": "uint256"
                }
              ],
              "internalType": "struct JBFundingCycleMetadata",
              "name": "metadata",
              "type": "tuple"
            },
            {
              "internalType": "uint256",
              "name": "mustStartAtOrAfter",
              "type": "uint256"
            },
            {
              "components": [
                {
                  "internalType": "uint256",
                  "name": "group",
                  "type": "uint256"
                },
                {
                  "components": [
                    {
                      "internalType": "bool",
                      "name": "preferClaimed",
                      "type": "bool"
                    },
                    {
                      "internalType": "bool",
                      "name": "preferAddToBalance",
                      "type": "bool"
                    },
                    {
                      "internalType": "uint256",
                      "name": "percent",
                      "type": "uint256"
                    },
                    {
                      "internalType": "uint256",
                      "name": "projectId",
                      "type": "uint256"
                    },
                    {
                      "internalType": "address payable",
                      "name": "beneficiary",
                      "type": "address"
                    },
                    {
                      "internalType": "uint256",
                      "name": "lockedUntil",
                      "type": "uint256"
                    },
                    {
                      "internalType": "contract IJBSplitAllocator",
                      "name": "allocator",
                      "type": "address"
                    }
                  ],
                  "internalType": "struct JBSplit[]",
                  "name": "splits",
                  "type": "tuple[]"
                }
              ],
              "internalType": "struct JBGroupedSplits[]",
              "name": "groupedSplits",
              "type": "tuple[]"
            },
            {
              "components": [
                {
                  "internalType": "contract IJBPaymentTerminal",
                  "name": "terminal",
                  "type": "address"
                },
                {
                  "internalType": "address",
                  "name": "token",
                  "type": "address"
                },
                {
                  "internalType": "uint256",
                  "name": "distributionLimit",
                  "type": "uint256"
                },
                {
                  "internalType": "uint256",
                  "name": "distributionLimitCurrency",
                  "type": "uint256"
                },
                {
                  "internalType": "uint256",
                  "name": "overflowAllowance",
                  "type": "uint256"
                },
                {
                  "internalType": "uint256",
                  "name": "overflowAllowanceCurrency",
                  "type": "uint256"
                }
              ],
              "internalType": "struct JBFundAccessConstraints[]",
              "name": "fundAccessConstraints",
              "type": "tuple[]"
            },
            {
              "internalType": "contract IJBPaymentTerminal[]",
              "name": "terminals",
              "type": "address[]"
            },
            {
              "internalType": "string",
              "name": "memo",
              "type": "string"
            }
          ],
          "internalType": "struct LaunchProjectData",
          "name": "_launchProjectData",
          "type": "tuple"
        },
        {
          "internalType": "contract IJBController3_1",
          "name": "_controller",
          "type": "address"
        }
      ],
      "name": "launchProjectFor",
      "outputs": [
        {
          "internalType": "uint256",
          "name": "projectId",
          "type": "uint256"
        }
      ],
      "stateMutability": "nonpayable",
      "type": "function"
    },
    {
      "inputs": [],
      "name": "operatorStore",
      "outputs": [
        {
          "internalType": "contract IJBOperatorStore",
          "name": "",
          "type": "address"
        }
      ],
      "stateMutability": "view",
      "type": "function"
    },
    {
      "inputs": [
        {
          "internalType": "uint256",
          "name": "_projectId",
          "type": "uint256"
        },
        {
          "components": [
            {
              "internalType": "address[]",
              "name": "dataSources",
              "type": "address[]"
            },
            {
              "internalType": "address",
              "name": "governance",
              "type": "address"
            }
          ],
          "internalType": "struct DeployMyDelegateData",
          "name": "_deployMyDelegateData",
          "type": "tuple"
        },
        {
          "components": [
            {
              "components": [
                {
                  "internalType": "uint256",
                  "name": "duration",
                  "type": "uint256"
                },
                {
                  "internalType": "uint256",
                  "name": "weight",
                  "type": "uint256"
                },
                {
                  "internalType": "uint256",
                  "name": "discountRate",
                  "type": "uint256"
                },
                {
                  "internalType": "contract IJBFundingCycleBallot",
                  "name": "ballot",
                  "type": "address"
                }
              ],
              "internalType": "struct JBFundingCycleData",
              "name": "data",
              "type": "tuple"
            },
            {
              "components": [
                {
                  "components": [
                    {
                      "internalType": "bool",
                      "name": "allowSetTerminals",
                      "type": "bool"
                    },
                    {
                      "internalType": "bool",
                      "name": "allowSetController",
                      "type": "bool"
                    },
                    {
                      "internalType": "bool",
                      "name": "pauseTransfers",
                      "type": "bool"
                    }
                  ],
                  "internalType": "struct JBGlobalFundingCycleMetadata",
                  "name": "global",
                  "type": "tuple"
                },
                {
                  "internalType": "uint256",
                  "name": "reservedRate",
                  "type": "uint256"
                },
                {
                  "internalType": "uint256",
                  "name": "redemptionRate",
                  "type": "uint256"
                },
                {
                  "internalType": "uint256",
                  "name": "ballotRedemptionRate",
                  "type": "uint256"
                },
                {
                  "internalType": "bool",
                  "name": "pausePay",
                  "type": "bool"
                },
                {
                  "internalType": "bool",
                  "name": "pauseDistributions",
                  "type": "bool"
                },
                {
                  "internalType": "bool",
                  "name": "pauseRedeem",
                  "type": "bool"
                },
                {
                  "internalType": "bool",
                  "name": "pauseBurn",
                  "type": "bool"
                },
                {
                  "internalType": "bool",
                  "name": "allowMinting",
                  "type": "bool"
                },
                {
                  "internalType": "bool",
                  "name": "allowTerminalMigration",
                  "type": "bool"
                },
                {
                  "internalType": "bool",
                  "name": "allowControllerMigration",
                  "type": "bool"
                },
                {
                  "internalType": "bool",
                  "name": "holdFees",
                  "type": "bool"
                },
                {
                  "internalType": "bool",
                  "name": "preferClaimedTokenOverride",
                  "type": "bool"
                },
                {
                  "internalType": "bool",
                  "name": "useTotalOverflowForRedemptions",
                  "type": "bool"
                },
                {
                  "internalType": "bool",
                  "name": "useDataSourceForPay",
                  "type": "bool"
                },
                {
                  "internalType": "bool",
                  "name": "useDataSourceForRedeem",
                  "type": "bool"
                },
                {
                  "internalType": "address",
                  "name": "dataSource",
                  "type": "address"
                },
                {
                  "internalType": "uint256",
                  "name": "metadata",
                  "type": "uint256"
                }
              ],
              "internalType": "struct JBFundingCycleMetadata",
              "name": "metadata",
              "type": "tuple"
            },
            {
              "internalType": "uint256",
              "name": "mustStartAtOrAfter",
              "type": "uint256"
            },
            {
              "components": [
                {
                  "internalType": "uint256",
                  "name": "group",
                  "type": "uint256"
                },
                {
                  "components": [
                    {
                      "internalType": "bool",
                      "name": "preferClaimed",
                      "type": "bool"
                    },
                    {
                      "internalType": "bool",
                      "name": "preferAddToBalance",
                      "type": "bool"
                    },
                    {
                      "internalType": "uint256",
                      "name": "percent",
                      "type": "uint256"
                    },
                    {
                      "internalType": "uint256",
                      "name": "projectId",
                      "type": "uint256"
                    },
                    {
                      "internalType": "address payable",
                      "name": "beneficiary",
                      "type": "address"
                    },
                    {
                      "internalType": "uint256",
                      "name": "lockedUntil",
                      "type": "uint256"
                    },
                    {
                      "internalType": "contract IJBSplitAllocator",
                      "name": "allocator",
                      "type": "address"
                    }
                  ],
                  "internalType": "struct JBSplit[]",
                  "name": "splits",
                  "type": "tuple[]"
                }
              ],
              "internalType": "struct JBGroupedSplits[]",
              "name": "groupedSplits",
              "type": "tuple[]"
            },
            {
              "components": [
                {
                  "internalType": "contract IJBPaymentTerminal",
                  "name": "terminal",
                  "type": "address"
                },
                {
                  "internalType": "address",
                  "name": "token",
                  "type": "address"
                },
                {
                  "internalType": "uint256",
                  "name": "distributionLimit",
                  "type": "uint256"
                },
                {
                  "internalType": "uint256",
                  "name": "distributionLimitCurrency",
                  "type": "uint256"
                },
                {
                  "internalType": "uint256",
                  "name": "overflowAllowance",
                  "type": "uint256"
                },
                {
                  "internalType": "uint256",
                  "name": "overflowAllowanceCurrency",
                  "type": "uint256"
                }
              ],
              "internalType": "struct JBFundAccessConstraints[]",
              "name": "fundAccessConstraints",
              "type": "tuple[]"
            },
            {
              "internalType": "string",
              "name": "memo",
              "type": "string"
            }
          ],
          "internalType": "struct ReconfigureFundingCyclesData",
          "name": "_reconfigureFundingCyclesData",
          "type": "tuple"
        },
        {
          "internalType": "contract IJBController3_1",
          "name": "_controller",
          "type": "address"
        }
      ],
      "name": "reconfigureFundingCyclesOf",
      "outputs": [
        {
          "internalType": "uint256",
          "name": "configuration",
          "type": "uint256"
        }
      ],
      "stateMutability": "nonpayable",
      "type": "function"
    }
  ],
  "bytecode": {
    "object": "0x60c06040523480156200001157600080fd5b5060405162001ffe38038062001ffe833981016040819052620000349162000065565b6001600160a01b039081166080521660a052620000a4565b6001600160a01b03811681146200006257600080fd5b50565b600080604083850312156200007957600080fd5b825162000086816200004c565b602084015190925062000099816200004c565b809150509250929050565b60805160a051611f13620000eb600039600081816087015281816101e4015281816103d101526105c201526000818160d9015281816108a001526109470152611f136000f3fe608060405234801561001057600080fd5b50600436106100575760003560e01c80630ca6035d1461005c5780638f3d964b146100825780639d953ec6146100c1578063ad007d63146100d4578063be64d9df146100fb575b600080fd5b61006f61006a3660046114d8565b61010e565b6040519081526020015b60405180910390f35b6100a97f000000000000000000000000000000000000000000000000000000000000000081565b6040516001600160a01b039091168152602001610079565b61006f6100cf366004611651565b6102ed565b6100a97f000000000000000000000000000000000000000000000000000000000000000081565b61006f61010936600461176d565b6104de565b6000816001600160a01b0316638b79543c6040518163ffffffff1660e01b8152600401602060405180830381865afa15801561014e573d6000803e3d6000fd5b505050506040513d601f19601f8201168201806040525081019061017291906118ae565b6001600160a01b03166306661abd6040518163ffffffff1660e01b8152600401602060405180830381865afa1580156101af573d6000803e3d6000fd5b505050506040513d601f19601f820116820180604052508101906101d391906118d2565b6101de9060016118eb565b905060007f00000000000000000000000000000000000000000000000000000000000000006001600160a01b0316633e7396c98387866001600160a01b031663c41c2f246040518163ffffffff1660e01b8152600401602060405180830381865afa158015610251573d6000803e3d6000fd5b505050506040513d601f19601f8201168201806040525081019061027591906118ae565b6040518463ffffffff1660e01b815260040161029393929190611912565b6020604051808303816000875af11580156102b2573d6000803e3d6000fd5b505050506040513d601f19601f820116820180604052508101906102d691906118ae565b90506102e4868583866106c2565b50949350505050565b6000816001600160a01b0316638b79543c6040518163ffffffff1660e01b8152600401602060405180830381865afa15801561032d573d6000803e3d6000fd5b505050506040513d601f19601f8201168201806040525081019061035191906118ae565b6001600160a01b0316636352211e866040518263ffffffff1660e01b815260040161037e91815260200190565b602060405180830381865afa15801561039b573d6000803e3d6000fd5b505050506040513d601f19601f820116820180604052508101906103bf91906118ae565b8560016103cd838383610859565b60007f00000000000000000000000000000000000000000000000000000000000000006001600160a01b0316633e7396c98a8a896001600160a01b031663c41c2f246040518163ffffffff1660e01b8152600401602060405180830381865afa15801561043e573d6000803e3d6000fd5b505050506040513d601f19601f8201168201806040525081019061046291906118ae565b6040518463ffffffff1660e01b815260040161048093929190611912565b6020604051808303816000875af115801561049f573d6000803e3d6000fd5b505050506040513d601f19601f820116820180604052508101906104c391906118ae565b90506104d1898883896109d7565b9998505050505050505050565b6000816001600160a01b0316638b79543c6040518163ffffffff1660e01b8152600401602060405180830381865afa15801561051e573d6000803e3d6000fd5b505050506040513d601f19601f8201168201806040525081019061054291906118ae565b6001600160a01b0316636352211e866040518263ffffffff1660e01b815260040161056f91815260200190565b602060405180830381865afa15801561058c573d6000803e3d6000fd5b505050506040513d601f19601f820116820180604052508101906105b091906118ae565b8560016105be838383610859565b60007f00000000000000000000000000000000000000000000000000000000000000006001600160a01b0316633e7396c98a8a896001600160a01b031663c41c2f246040518163ffffffff1660e01b8152600401602060405180830381865afa15801561062f573d6000803e3d6000fd5b505050506040513d601f19601f8201168201806040525081019061065391906118ae565b6040518463ffffffff1660e01b815260040161067193929190611912565b6020604051808303816000875af1158015610690573d6000803e3d6000fd5b505050506040513d601f19601f820116820180604052508101906106b491906118ae565b90506104d189888389610b98565b8251602080850151604080516102408101825281880180515182528051850151948201949094528351820151818301528351606090810151818301528451608090810151151581840152855160a090810151151581850152865160c090810151151581860152875160e09081015115158187015288516101009081015115159087015288516101209081015115159087015288516101409081015115159087015288516101609081015115159087015288516101809081015115159087015288516101a09081015115159087015288516101c09081015115159087015288516101e0908101511515908701526001600160a01b038c811661020088015298516102209081015190870152938c0151928c0151918c0151908c0151938c0151955163b3c5267360e01b8152978a169863b3c526739861080f988f989297909690959493929091600401611d01565b6020604051808303816000875af115801561082e573d6000803e3d6000fd5b505050506040513d601f19601f8201168201806040525081019061085291906118d2565b5050505050565b336001600160a01b0384161480159061090d575060405163c161c93f60e01b81523360048201526001600160a01b03848116602483015260448201849052606482018390527f0000000000000000000000000000000000000000000000000000000000000000169063c161c93f90608401602060405180830381865afa1580156108e7573d6000803e3d6000fd5b505050506040513d601f19601f8201168201806040525081019061090b9190611dc2565b155b80156109b4575060405163c161c93f60e01b81523360048201526001600160a01b03848116602483015260006044830152606482018390527f0000000000000000000000000000000000000000000000000000000000000000169063c161c93f90608401602060405180830381865afa15801561098e573d6000803e3d6000fd5b505050506040513d601f19601f820116820180604052508101906109b29190611dc2565b155b156109d25760405163075fd2b160e01b815260040160405180910390fd5b505050565b6000816001600160a01b031663badbdf28868660000151604051806102400160405280896020015160000151815260200189602001516020015181526020018960200151604001518152602001896020015160600151815260200189602001516080015115158152602001896020015160a0015115158152602001896020015160c0015115158152602001896020015160e00151151581526020018960200151610100015115158152602001896020015161012001511515815260200189602001516101400151151581526020018960200151610160015115158152602001896020015161018001511515815260200189602001516101a001511515815260200189602001516101c001511515815260200189602001516101e0015115158152602001886001600160a01b0316815260200189602001516102200151815250886040015189606001518a608001518b60a001516040518863ffffffff1660e01b8152600401610b4c9796959493929190611ddf565b6020604051808303816000875af1158015610b6b573d6000803e3d6000fd5b505050506040513d601f19601f82011682018060405250810190610b8f91906118d2565b95945050505050565b6000816001600160a01b031663111d861b868660000151604051806102400160405280896020015160000151815260200189602001516020015181526020018960200151604001518152602001896020015160600151815260200189602001516080015115158152602001896020015160a0015115158152602001896020015160c0015115158152602001896020015160e00151151581526020018960200151610100015115158152602001896020015161012001511515815260200189602001516101400151151581526020018960200151610160015115158152602001896020015161018001511515815260200189602001516101a001511515815260200189602001516101c001511515815260200189602001516101e0015115158152602001886001600160a01b0316815260200189602001516102200151815250886040015189606001518a608001518b60a001518c60c001516040518963ffffffff1660e01b8152600401610b4c989796959493929190611e53565b6001600160a01b0381168114610d2857600080fd5b50565b8035610d3681610d13565b919050565b634e487b7160e01b600052604160045260246000fd5b604080519081016001600160401b0381118282101715610d7357610d73610d3b565b60405290565b60405161024081016001600160401b0381118282101715610d7357610d73610d3b565b60405160e081016001600160401b0381118282101715610d7357610d73610d3b565b60405160c081016001600160401b0381118282101715610d7357610d73610d3b565b60405161010081016001600160401b0381118282101715610d7357610d73610d3b565b604051601f8201601f191681016001600160401b0381118282101715610e2b57610e2b610d3b565b604052919050565b60006001600160401b03821115610e4c57610e4c610d3b565b5060051b60200190565b600060408284031215610e6857600080fd5b610e70610d51565b905081356001600160401b03811115610e8857600080fd5b8201601f81018413610e9957600080fd5b80356020610eae610ea983610e33565b610e03565b82815260059290921b83018101918181019087841115610ecd57600080fd5b938201935b83851015610ef4578435610ee581610d13565b82529382019390820190610ed2565b855250610f02858201610d2b565b8185015250505092915050565b600082601f830112610f2057600080fd5b81356001600160401b03811115610f3957610f39610d3b565b610f4c601f8201601f1916602001610e03565b818152846020838601011115610f6157600080fd5b816020850160208301376000918101602001919091529392505050565b600060408284031215610f9057600080fd5b610f98610d51565b905081356001600160401b03811115610fb057600080fd5b610fbc84828501610f0f565b8252506020820135602082015292915050565b600060808284031215610fe157600080fd5b604051608081018181106001600160401b038211171561100357611003610d3b565b8060405250809150823581526020830135602082015260408301356040820152606083013561103181610d13565b6060919091015292915050565b8015158114610d2857600080fd5b8035610d368161103e565b60006060828403121561106957600080fd5b604051606081018181106001600160401b038211171561108b5761108b610d3b565b604052905080823561109c8161103e565b815260208301356110ac8161103e565b602082015260408301356110bf8161103e565b6040919091015292915050565b600061028082840312156110df57600080fd5b6110e7610d79565b90506110f38383611057565b8152606082013560208201526080820135604082015260a0820135606082015261111f60c0830161104c565b608082015261113060e0830161104c565b60a082015261010061114381840161104c565b60c083015261012061115681850161104c565b60e084015261014061116981860161104c565b83850152610160925061117d83860161104c565b82850152610180915061119182860161104c565b908401526101a06111a385820161104c565b838501526101c092506111b783860161104c565b828501526101e091506111cb82860161104c565b908401526102006111dd85820161104c565b8385015261022092506111f183860161104c565b828501526112026102408601610d2b565b818501525050610260830135818301525092915050565b600082601f83011261122a57600080fd5b8135602061123a610ea983610e33565b82815260059290921b8401810191818101908684111561125957600080fd5b8286015b848110156113a55780356001600160401b038082111561127c57600080fd5b908801906040828b03601f190181131561129557600080fd5b61129d610d51565b87840135815281840135838111156112b457600080fd5b8085019450508b603f8501126112c957600080fd5b8784013592506112db610ea984610e33565b83815260e09093028401820192888101908d8511156112f957600080fd5b948301945b848610156113905760e0868f03121561131657600080fd5b61131e610d9c565b86356113298161103e565b8152868b01356113388161103e565b818c0152868501358582015260608088013590820152608087013561135c81610d13565b608082015260a0878101359082015260c087013561137981610d13565b60c0820152825260e09590950194908901906112fe565b828a015250865250505091830191830161125d565b509695505050505050565b600082601f8301126113c157600080fd5b813560206113d1610ea983610e33565b82815260c092830285018201928282019190878511156113f057600080fd5b8387015b858110156114675781818a03121561140c5760008081fd5b611414610dbe565b813561141f81610d13565b81528186013561142e81610d13565b8187015260408281013590820152606080830135908201526080808301359082015260a0808301359082015284529284019281016113f4565b5090979650505050505050565b600082601f83011261148557600080fd5b81356020611495610ea983610e33565b82815260059290921b840181019181810190868411156114b457600080fd5b8286015b848110156113a55780356114cb81610d13565b83529183019183016114b8565b600080600080608085870312156114ee57600080fd5b84356114f981610d13565b935060208501356001600160401b038082111561151557600080fd5b61152188838901610e56565b9450604087013591508082111561153757600080fd5b908601906103c0828903121561154c57600080fd5b611554610de0565b82358281111561156357600080fd5b61156f8a828601610f7e565b82525061157f8960208501610fcf565b60208201526115918960a085016110cc565b60408201526103208301356060820152610340830135828111156115b457600080fd5b6115c08a828601611219565b608083015250610360830135828111156115d957600080fd5b6115e58a8286016113b0565b60a083015250610380830135828111156115fe57600080fd5b61160a8a828601611474565b60c0830152506103a08301358281111561162357600080fd5b61162f8a828601610f0f565b60e083015250935061164691505060608601610d2b565b905092959194509250565b6000806000806080858703121561166757600080fd5b8435935060208501356001600160401b038082111561168557600080fd5b61169188838901610e56565b945060408701359150808211156116a757600080fd5b9086019061038082890312156116bc57600080fd5b6116c4610dbe565b6116ce8984610fcf565b81526116dd89608085016110cc565b602082015261030083013560408201526103208301358281111561170057600080fd5b61170c8a828601611219565b6060830152506103408301358281111561172557600080fd5b6117318a8286016113b0565b6080830152506103608301358281111561174a57600080fd5b6117568a828601610f0f565b60a083015250935061164691505060608601610d2b565b6000806000806080858703121561178357600080fd5b8435935060208501356001600160401b03808211156117a157600080fd5b6117ad88838901610e56565b945060408701359150808211156117c357600080fd5b908601906103a082890312156117d857600080fd5b6117e0610d9c565b6117ea8984610fcf565b81526117f989608085016110cc565b602082015261030083013560408201526103208301358281111561181c57600080fd5b6118288a828601611219565b6060830152506103408301358281111561184157600080fd5b61184d8a8286016113b0565b6080830152506103608301358281111561186657600080fd5b6118728a828601611474565b60a0830152506103808301358281111561188b57600080fd5b6118978a828601610f0f565b60c083015250935061164691505060608601610d2b565b6000602082840312156118c057600080fd5b81516118cb81610d13565b9392505050565b6000602082840312156118e457600080fd5b5051919050565b8082018082111561190c57634e487b7160e01b600052601160045260246000fd5b92915050565b8381526000602060608184015260a0830185516040606086015281815180845260c0870191508483019350600092505b8083101561196b5783516001600160a01b03168252928401926001929092019190840190611942565b5092909601516001600160a01b03908116608086015294909416604090930192909252509392505050565b6000815180845260005b818110156119bc576020818501810151868301820152016119a0565b506000602082860101526020601f19601f83011685010191505092915050565b8051825260208082015190830152604080820151908301526060908101516001600160a01b0316910152565b611a2d8282518051151582526020808201511515908301526040908101511515910152565b6020810151606083015260408101516080830152606081015160a08301526080810151611a5e60c084018215159052565b5060a081015180151560e08401525060c0810151610100611a828185018315159052565b60e08301519150610120611a998186018415159052565b90830151915061014090611ab08583018415159052565b8301519150610160611ac58582018415159052565b90830151915061018090611adc8583018415159052565b83015191506101a0611af18582018415159052565b9083015191506101c090611b088583018415159052565b83015191506101e0611b1d8582018415159052565b90830151915061020090611b348583018415159052565b8301519150610220611b498582018415159052565b908301516001600160a01b0316610240850152909101516102609092019190915250565b600081518084526020808501808196508360051b810191508286016000805b86811015611c3f578385038a52825180518652860151604087870181905281518188018190529188019160609081890190865b81811015611c285785518051151584528c81015115158d850152858101518685015284810151858501526080808201516001600160a01b039081169186019190915260a0808301519086015260c0918201511690840152948b019460e090920191600101611bbf565b50509c89019c975050509286019250600101611b8c565b509298975050505050505050565b600081518084526020808501945080840160005b83811015611cbd57815180516001600160a01b03908116895284820151168489015260408082015190890152606080820151908901526080808201519089015260a0908101519088015260c09096019590820190600101611c61565b509495945050505050565b600081518084526020808501945080840160005b83811015611cbd5781516001600160a01b031687529582019590820190600101611cdc565b6001600160a01b038a1681526103e060208201819052895160408383015260009190611d31610420850182611996565b91505060208b0151610400840152611d4c604084018b6119dc565b611d5960c084018a611a08565b87610340840152828103610360840152611d738188611b6d565b9050828103610380840152611d888187611c4d565b90508281036103a0840152611d9d8186611cc8565b90508281036103c0840152611db28185611996565b9c9b505050505050505050505050565b600060208284031215611dd457600080fd5b81516118cb8161103e565b60006103a0898352611df4602084018a6119dc565b611e0160a0840189611a08565b8661032084015280610340840152611e1b81840187611b6d565b9050828103610360840152611e308186611c4d565b9050828103610380840152611e458185611996565b9a9950505050505050505050565b60006103c08a8352611e68602084018b6119dc565b611e7560a084018a611a08565b8761032084015280610340840152611e8f81840188611b6d565b9050828103610360840152611ea48187611c4d565b9050828103610380840152611eb98186611cc8565b90508281036103a0840152611ece8185611996565b9b9a505050505050505050505056fea264697066735822122043c231a0fce99b486215388fb11bfa2c47ea025744513a55348e9cd9e1c4793c64736f6c63430008140033",
    "linkReferences": {}
  },
  "methodIdentifiers": {
    "delegateDeployer()": "8f3d964b",
    "launchFundingCyclesFor(uint256,(address[],address),((uint256,uint256,uint256,address),((bool,bool,bool),uint256,uint256,uint256,bool,bool,bool,bool,bool,bool,bool,bool,bool,bool,bool,bool,address,uint256),uint256,(uint256,(bool,bool,uint256,uint256,address,uint256,address)[])[],(address,address,uint256,uint256,uint256,uint256)[],address[],string),address)": "be64d9df",
    "launchProjectFor(address,(address[],address),((string,uint256),(uint256,uint256,uint256,address),((bool,bool,bool),uint256,uint256,uint256,bool,bool,bool,bool,bool,bool,bool,bool,bool,bool,bool,bool,address,uint256),uint256,(uint256,(bool,bool,uint256,uint256,address,uint256,address)[])[],(address,address,uint256,uint256,uint256,uint256)[],address[],string),address)": "0ca6035d",
    "operatorStore()": "ad007d63",
    "reconfigureFundingCyclesOf(uint256,(address[],address),((uint256,uint256,uint256,address),((bool,bool,bool),uint256,uint256,uint256,bool,bool,bool,bool,bool,bool,bool,bool,bool,bool,bool,bool,address,uint256),uint256,(uint256,(bool,bool,uint256,uint256,address,uint256,address)[])[],(address,address,uint256,uint256,uint256,uint256)[],string),address)": "9d953ec6"
  },
  "id": 139
}