{
  "abi": [
    {
      "inputs": [],
      "name": "NOT_ALLOWED",
      "type": "error"
    },
    {
      "inputs": [
        {
          "internalType": "address",
          "name": "",
          "type": "address"
        }
      ],
      "name": "allowed",
      "outputs": [
        {
          "internalType": "bool",
          "name": "",
          "type": "bool"
        }
      ],
      "stateMutability": "view",
      "type": "function"
    },
    {
      "inputs": [
        {
          "internalType": "address",
          "name": "_address",
          "type": "address"
        }
      ],
      "name": "isAllowed",
      "outputs": [
        {
          "internalType": "bool",
          "name": "",
          "type": "bool"
        }
      ],
      "stateMutability": "view",
      "type": "function"
    }
  ],
  "bytecode": {
    "object": "0x608060405234801561001057600080fd5b5060f88061001f6000396000f3fe6080604052348015600f57600080fd5b506004361060325760003560e01c8063babcc539146037578063d63a8e11146074575b600080fd5b606060423660046094565b6001600160a01b031660009081526020819052604090205460ff1690565b604051901515815260200160405180910390f35b6060607f3660046094565b60006020819052908152604090205460ff1681565b60006020828403121560a557600080fd5b81356001600160a01b038116811460bb57600080fd5b939250505056fea2646970667358221220174e4a66859b9e9b9e19a0d6f6423f499065d82a005bd6aba602a13ec752434d64736f6c63430008140033",
    "linkReferences": {}
  },
  "methodIdentifiers": {
    "allowed(address)": "d63a8e11",
    "isAllowed(address)": "babcc539"
  },
  "id": 137
}