{
  "abi": [
    {
      "inputs": [
        {
          "internalType": "contract IJBDelegatesRegistry",
          "name": "_oldRegistry",
          "type": "address"
        }
      ],
      "stateMutability": "nonpayable",
      "type": "constructor"
    },
    {
      "inputs": [],
      "name": "JBDelegatesRegistry_incompatibleDelegate",
      "type": "error"
    },
    {
      "anonymous": false,
      "inputs": [
        {
          "indexed": true,
          "internalType": "address",
          "name": "_delegate",
          "type": "address"
        },
        {
          "indexed": true,
          "internalType": "address",
          "name": "_deployer",
          "type": "address"
        }
      ],
      "name": "DelegateAdded",
      "type": "event"
    },
    {
      "inputs": [
        {
          "internalType": "address",
          "name": "_deployer",
          "type": "address"
        },
        {
          "internalType": "uint256",
          "name": "_nonce",
          "type": "uint256"
        }
      ],
      "name": "addDelegate",
      "outputs": [],
      "stateMutability": "nonpayable",
      "type": "function"
    },
    {
      "inputs": [
        {
          "internalType": "address",
          "name": "_deployer",
          "type": "address"
        },
        {
          "internalType": "bytes32",
          "name": "_salt",
          "type": "bytes32"
        },
        {
          "internalType": "bytes",
          "name": "_bytecode",
          "type": "bytes"
        }
      ],
      "name": "addDelegateCreate2",
      "outputs": [],
      "stateMutability": "nonpayable",
      "type": "function"
    },
    {
      "inputs": [
        {
          "internalType": "address",
          "name": "_delegate",
          "type": "address"
        }
      ],
      "name": "deployerOf",
      "outputs": [
        {
          "internalType": "address",
          "name": "_deployer",
          "type": "address"
        }
      ],
      "stateMutability": "view",
      "type": "function"
    },
    {
      "inputs": [],
      "name": "oldRegistry",
      "outputs": [
        {
          "internalType": "contract IJBDelegatesRegistry",
          "name": "",
          "type": "address"
        }
      ],
      "stateMutability": "view",
      "type": "function"
    }
  ],
  "bytecode": {
    "object": "0x60a060405234801561001057600080fd5b506040516106cc3803806106cc83398101604081905261002f91610040565b6001600160a01b0316608052610070565b60006020828403121561005257600080fd5b81516001600160a01b038116811461006957600080fd5b9392505050565b60805161063561009760003960008181609a0152818160f5015261014401526106356000f3fe608060405234801561001057600080fd5b506004361061004c5760003560e01c8063416dc732146100515780635bcfd2121461008057806397b67d4a14610095578063aceea1e4146100bc575b600080fd5b61006461005f3660046104f9565b6100cf565b6040516001600160a01b03909116815260200160405180910390f35b61009361008e36600461051d565b6101b7565b005b6100647f000000000000000000000000000000000000000000000000000000000000000081565b6100936100ca366004610549565b6101d4565b6001600160a01b03808216600090815260208190526040902054168015801561012057507f00000000000000000000000000000000000000000000000000000000000000006001600160a01b031615155b156101b2576040516320b6e39960e11b81526001600160a01b0383811660048301527f0000000000000000000000000000000000000000000000000000000000000000169063416dc73290602401602060405180830381865afa15801561018b573d6000803e3d6000fd5b505050506040513d601f19601f820116820180604052508101906101af91906105d2565b90505b919050565b60006101c38383610260565b90506101cf818461048a565b505050565b600060ff60f81b858585856040516101ed9291906105ef565b604051908190038120610234949392916020016001600160f81b031994909416845260609290921b6001600160601b03191660018401526015830152603582015260550190565b6040516020818303038152906040528051906020012060001c9050610259818661048a565b5050505050565b60006060826000036102bb57604051606b60f91b6020820152602560fa1b60218201526001600160601b0319606086901b166022820152600160ff1b60368201526037015b6040516020818303038152906040529050610476565b607f831161030a57604051606b60f91b6020820152602560fa1b60218201526001600160601b0319606086901b16602282015260f884901b6001600160f81b03191660368201526037016102a5565b60ff83116103635760405160d760f81b6020820152602560fa1b60218201526001600160601b0319606086901b166022820152608160f81b603682015260f884901b6001600160f81b03191660378201526038016102a5565b61ffff83116103bd57604051601b60fb1b6020820152602560fa1b60218201526001600160601b0319606086901b166022820152604160f91b60368201526001600160f01b031960f085901b1660378201526039016102a5565b62ffffff83116104185760405160d960f81b6020820152602560fa1b60218201526001600160601b0319606086901b166022820152608360f81b60368201526001600160e81b031960e885901b166037820152603a016102a5565b604051606d60f91b6020820152602560fa1b60218201526001600160601b0319606086901b166022820152602160fa1b60368201526001600160e01b031960e085901b166037820152603b0160405160208183030381529060405290505b805160209091012060008190529392505050565b6001600160a01b0382811660008181526020819052604080822080546001600160a01b0319169486169485179055517f12dade473695d73bd34e031c850d5e815fa17a42b1b5ba13ff72de2497c5e3099190a35050565b6001600160a01b03811681146104f657600080fd5b50565b60006020828403121561050b57600080fd5b8135610516816104e1565b9392505050565b6000806040838503121561053057600080fd5b823561053b816104e1565b946020939093013593505050565b6000806000806060858703121561055f57600080fd5b843561056a816104e1565b935060208501359250604085013567ffffffffffffffff8082111561058e57600080fd5b818701915087601f8301126105a257600080fd5b8135818111156105b157600080fd5b8860208285010111156105c357600080fd5b95989497505060200194505050565b6000602082840312156105e457600080fd5b8151610516816104e1565b818382376000910190815291905056fea26469706673582212203e1253629eb0427612c5701b3ebabd7e4bdd64e6ccdcf1216326415a7655336664736f6c63430008140033",
    "linkReferences": {}
  },
  "methodIdentifiers": {
    "addDelegate(address,uint256)": "5bcfd212",
    "addDelegateCreate2(address,bytes32,bytes)": "aceea1e4",
    "deployerOf(address)": "416dc732",
    "oldRegistry()": "97b67d4a"
  },
  "id": 97
}