{
  "abi": [
    {
      "inputs": [
        {
          "internalType": "contract IJBDirectory",
          "name": "_directory",
          "type": "address"
        },
        {
          "internalType": "contract IJBFundingCycleStore",
          "name": "_fundingCycleStore",
          "type": "address"
        },
        {
          "internalType": "contract IJBPrices",
          "name": "_prices",
          "type": "address"
        }
      ],
      "stateMutability": "nonpayable",
      "type": "constructor"
    },
    {
      "inputs": [],
      "name": "CURRENCY_MISMATCH",
      "type": "error"
    },
    {
      "inputs": [],
      "name": "DISTRIBUTION_AMOUNT_LIMIT_REACHED",
      "type": "error"
    },
    {
      "inputs": [],
      "name": "FUNDING_CYCLE_DISTRIBUTION_PAUSED",
      "type": "error"
    },
    {
      "inputs": [],
      "name": "FUNDING_CYCLE_PAYMENT_PAUSED",
      "type": "error"
    },
    {
      "inputs": [],
      "name": "FUNDING_CYCLE_REDEEM_PAUSED",
      "type": "error"
    },
    {
      "inputs": [],
      "name": "INADEQUATE_CONTROLLER_ALLOWANCE",
      "type": "error"
    },
    {
      "inputs": [],
      "name": "INADEQUATE_PAYMENT_TERMINAL_STORE_BALANCE",
      "type": "error"
    },
    {
      "inputs": [],
      "name": "INSUFFICIENT_TOKENS",
      "type": "error"
    },
    {
      "inputs": [],
      "name": "INVALID_AMOUNT_TO_SEND_DELEGATE",
      "type": "error"
    },
    {
      "inputs": [],
      "name": "INVALID_FUNDING_CYCLE",
      "type": "error"
    },
    {
      "inputs": [],
      "name": "PAYMENT_TERMINAL_MIGRATION_NOT_ALLOWED",
      "type": "error"
    },
    {
      "inputs": [
        {
          "internalType": "uint256",
          "name": "prod1",
          "type": "uint256"
        },
        {
          "internalType": "uint256",
          "name": "denominator",
          "type": "uint256"
        }
      ],
      "name": "PRBMath__MulDivOverflow",
      "type": "error"
    },
    {
      "inputs": [
        {
          "internalType": "contract IJBSingleTokenPaymentTerminal",
          "name": "",
          "type": "address"
        },
        {
          "internalType": "uint256",
          "name": "",
          "type": "uint256"
        }
      ],
      "name": "balanceOf",
      "outputs": [
        {
          "internalType": "uint256",
          "name": "",
          "type": "uint256"
        }
      ],
      "stateMutability": "view",
      "type": "function"
    },
    {
      "inputs": [
        {
          "internalType": "contract IJBSingleTokenPaymentTerminal",
          "name": "_terminal",
          "type": "address"
        },
        {
          "internalType": "uint256",
          "name": "_projectId",
          "type": "uint256"
        }
      ],
      "name": "currentOverflowOf",
      "outputs": [
        {
          "internalType": "uint256",
          "name": "",
          "type": "uint256"
        }
      ],
      "stateMutability": "view",
      "type": "function"
    },
    {
      "inputs": [
        {
          "internalType": "uint256",
          "name": "_projectId",
          "type": "uint256"
        },
        {
          "internalType": "uint256",
          "name": "_tokenCount",
          "type": "uint256"
        },
        {
          "internalType": "uint256",
          "name": "_totalSupply",
          "type": "uint256"
        },
        {
          "internalType": "uint256",
          "name": "_overflow",
          "type": "uint256"
        }
      ],
      "name": "currentReclaimableOverflowOf",
      "outputs": [
        {
          "internalType": "uint256",
          "name": "",
          "type": "uint256"
        }
      ],
      "stateMutability": "view",
      "type": "function"
    },
    {
      "inputs": [
        {
          "internalType": "contract IJBSingleTokenPaymentTerminal",
          "name": "_terminal",
          "type": "address"
        },
        {
          "internalType": "uint256",
          "name": "_projectId",
          "type": "uint256"
        },
        {
          "internalType": "uint256",
          "name": "_tokenCount",
          "type": "uint256"
        },
        {
          "internalType": "bool",
          "name": "_useTotalOverflow",
          "type": "bool"
        }
      ],
      "name": "currentReclaimableOverflowOf",
      "outputs": [
        {
          "internalType": "uint256",
          "name": "",
          "type": "uint256"
        }
      ],
      "stateMutability": "view",
      "type": "function"
    },
    {
      "inputs": [
        {
          "internalType": "uint256",
          "name": "_projectId",
          "type": "uint256"
        },
        {
          "internalType": "uint256",
          "name": "_decimals",
          "type": "uint256"
        },
        {
          "internalType": "uint256",
          "name": "_currency",
          "type": "uint256"
        }
      ],
      "name": "currentTotalOverflowOf",
      "outputs": [
        {
          "internalType": "uint256",
          "name": "",
          "type": "uint256"
        }
      ],
      "stateMutability": "view",
      "type": "function"
    },
    {
      "inputs": [],
      "name": "directory",
      "outputs": [
        {
          "internalType": "contract IJBDirectory",
          "name": "",
          "type": "address"
        }
      ],
      "stateMutability": "view",
      "type": "function"
    },
    {
      "inputs": [],
      "name": "fundingCycleStore",
      "outputs": [
        {
          "internalType": "contract IJBFundingCycleStore",
          "name": "",
          "type": "address"
        }
      ],
      "stateMutability": "view",
      "type": "function"
    },
    {
      "inputs": [],
      "name": "prices",
      "outputs": [
        {
          "internalType": "contract IJBPrices",
          "name": "",
          "type": "address"
        }
      ],
      "stateMutability": "view",
      "type": "function"
    },
    {
      "inputs": [
        {
          "internalType": "uint256",
          "name": "_projectId",
          "type": "uint256"
        },
        {
          "internalType": "uint256",
          "name": "_amount",
          "type": "uint256"
        }
      ],
      "name": "recordAddedBalanceFor",
      "outputs": [],
      "stateMutability": "nonpayable",
      "type": "function"
    },
    {
      "inputs": [
        {
          "internalType": "uint256",
          "name": "_projectId",
          "type": "uint256"
        },
        {
          "internalType": "uint256",
          "name": "_amount",
          "type": "uint256"
        },
        {
          "internalType": "uint256",
          "name": "_currency",
          "type": "uint256"
        }
      ],
      "name": "recordDistributionFor",
      "outputs": [
        {
          "components": [
            {
              "internalType": "uint256",
              "name": "number",
              "type": "uint256"
            },
            {
              "internalType": "uint256",
              "name": "configuration",
              "type": "uint256"
            },
            {
              "internalType": "uint256",
              "name": "basedOn",
              "type": "uint256"
            },
            {
              "internalType": "uint256",
              "name": "start",
              "type": "uint256"
            },
            {
              "internalType": "uint256",
              "name": "duration",
              "type": "uint256"
            },
            {
              "internalType": "uint256",
              "name": "weight",
              "type": "uint256"
            },
            {
              "internalType": "uint256",
              "name": "discountRate",
              "type": "uint256"
            },
            {
              "internalType": "contract IJBFundingCycleBallot",
              "name": "ballot",
              "type": "address"
            },
            {
              "internalType": "uint256",
              "name": "metadata",
              "type": "uint256"
            }
          ],
          "internalType": "struct JBFundingCycle",
          "name": "fundingCycle",
          "type": "tuple"
        },
        {
          "internalType": "uint256",
          "name": "distributedAmount",
          "type": "uint256"
        }
      ],
      "stateMutability": "nonpayable",
      "type": "function"
    },
    {
      "inputs": [
        {
          "internalType": "uint256",
          "name": "_projectId",
          "type": "uint256"
        }
      ],
      "name": "recordMigration",
      "outputs": [
        {
          "internalType": "uint256",
          "name": "balance",
          "type": "uint256"
        }
      ],
      "stateMutability": "nonpayable",
      "type": "function"
    },
    {
      "inputs": [
        {
          "internalType": "address",
          "name": "_payer",
          "type": "address"
        },
        {
          "components": [
            {
              "internalType": "address",
              "name": "token",
              "type": "address"
            },
            {
              "internalType": "uint256",
              "name": "value",
              "type": "uint256"
            },
            {
              "internalType": "uint256",
              "name": "decimals",
              "type": "uint256"
            },
            {
              "internalType": "uint256",
              "name": "currency",
              "type": "uint256"
            }
          ],
          "internalType": "struct JBTokenAmount",
          "name": "_amount",
          "type": "tuple"
        },
        {
          "internalType": "uint256",
          "name": "_projectId",
          "type": "uint256"
        },
        {
          "internalType": "uint256",
          "name": "_baseWeightCurrency",
          "type": "uint256"
        },
        {
          "internalType": "address",
          "name": "_beneficiary",
          "type": "address"
        },
        {
          "internalType": "string",
          "name": "_memo",
          "type": "string"
        },
        {
          "internalType": "bytes",
          "name": "_metadata",
          "type": "bytes"
        }
      ],
      "name": "recordPaymentFrom",
      "outputs": [
        {
          "components": [
            {
              "internalType": "uint256",
              "name": "number",
              "type": "uint256"
            },
            {
              "internalType": "uint256",
              "name": "configuration",
              "type": "uint256"
            },
            {
              "internalType": "uint256",
              "name": "basedOn",
              "type": "uint256"
            },
            {
              "internalType": "uint256",
              "name": "start",
              "type": "uint256"
            },
            {
              "internalType": "uint256",
              "name": "duration",
              "type": "uint256"
            },
            {
              "internalType": "uint256",
              "name": "weight",
              "type": "uint256"
            },
            {
              "internalType": "uint256",
              "name": "discountRate",
              "type": "uint256"
            },
            {
              "internalType": "contract IJBFundingCycleBallot",
              "name": "ballot",
              "type": "address"
            },
            {
              "internalType": "uint256",
              "name": "metadata",
              "type": "uint256"
            }
          ],
          "internalType": "struct JBFundingCycle",
          "name": "fundingCycle",
          "type": "tuple"
        },
        {
          "internalType": "uint256",
          "name": "tokenCount",
          "type": "uint256"
        },
        {
          "components": [
            {
              "internalType": "contract IJBPayDelegate3_1_1",
              "name": "delegate",
              "type": "address"
            },
            {
              "internalType": "uint256",
              "name": "amount",
              "type": "uint256"
            },
            {
              "internalType": "bytes",
              "name": "metadata",
              "type": "bytes"
            }
          ],
          "internalType": "struct JBPayDelegateAllocation3_1_1[]",
          "name": "delegateAllocations",
          "type": "tuple[]"
        },
        {
          "internalType": "string",
          "name": "memo",
          "type": "string"
        }
      ],
      "stateMutability": "nonpayable",
      "type": "function"
    },
    {
      "inputs": [
        {
          "internalType": "address",
          "name": "_holder",
          "type": "address"
        },
        {
          "internalType": "uint256",
          "name": "_projectId",
          "type": "uint256"
        },
        {
          "internalType": "uint256",
          "name": "_tokenCount",
          "type": "uint256"
        },
        {
          "internalType": "string",
          "name": "_memo",
          "type": "string"
        },
        {
          "internalType": "bytes",
          "name": "_metadata",
          "type": "bytes"
        }
      ],
      "name": "recordRedemptionFor",
      "outputs": [
        {
          "components": [
            {
              "internalType": "uint256",
              "name": "number",
              "type": "uint256"
            },
            {
              "internalType": "uint256",
              "name": "configuration",
              "type": "uint256"
            },
            {
              "internalType": "uint256",
              "name": "basedOn",
              "type": "uint256"
            },
            {
              "internalType": "uint256",
              "name": "start",
              "type": "uint256"
            },
            {
              "internalType": "uint256",
              "name": "duration",
              "type": "uint256"
            },
            {
              "internalType": "uint256",
              "name": "weight",
              "type": "uint256"
            },
            {
              "internalType": "uint256",
              "name": "discountRate",
              "type": "uint256"
            },
            {
              "internalType": "contract IJBFundingCycleBallot",
              "name": "ballot",
              "type": "address"
            },
            {
              "internalType": "uint256",
              "name": "metadata",
              "type": "uint256"
            }
          ],
          "internalType": "struct JBFundingCycle",
          "name": "fundingCycle",
          "type": "tuple"
        },
        {
          "internalType": "uint256",
          "name": "reclaimAmount",
          "type": "uint256"
        },
        {
          "components": [
            {
              "internalType": "contract IJBRedemptionDelegate3_1_1",
              "name": "delegate",
              "type": "address"
            },
            {
              "internalType": "uint256",
              "name": "amount",
              "type": "uint256"
            },
            {
              "internalType": "bytes",
              "name": "metadata",
              "type": "bytes"
            }
          ],
          "internalType": "struct JBRedemptionDelegateAllocation3_1_1[]",
          "name": "delegateAllocations",
          "type": "tuple[]"
        },
        {
          "internalType": "string",
          "name": "memo",
          "type": "string"
        }
      ],
      "stateMutability": "nonpayable",
      "type": "function"
    },
    {
      "inputs": [
        {
          "internalType": "uint256",
          "name": "_projectId",
          "type": "uint256"
        },
        {
          "internalType": "uint256",
          "name": "_amount",
          "type": "uint256"
        },
        {
          "internalType": "uint256",
          "name": "_currency",
          "type": "uint256"
        }
      ],
      "name": "recordUsedAllowanceOf",
      "outputs": [
        {
          "components": [
            {
              "internalType": "uint256",
              "name": "number",
              "type": "uint256"
            },
            {
              "internalType": "uint256",
              "name": "configuration",
              "type": "uint256"
            },
            {
              "internalType": "uint256",
              "name": "basedOn",
              "type": "uint256"
            },
            {
              "internalType": "uint256",
              "name": "start",
              "type": "uint256"
            },
            {
              "internalType": "uint256",
              "name": "duration",
              "type": "uint256"
            },
            {
              "internalType": "uint256",
              "name": "weight",
              "type": "uint256"
            },
            {
              "internalType": "uint256",
              "name": "discountRate",
              "type": "uint256"
            },
            {
              "internalType": "contract IJBFundingCycleBallot",
              "name": "ballot",
              "type": "address"
            },
            {
              "internalType": "uint256",
              "name": "metadata",
              "type": "uint256"
            }
          ],
          "internalType": "struct JBFundingCycle",
          "name": "fundingCycle",
          "type": "tuple"
        },
        {
          "internalType": "uint256",
          "name": "usedAmount",
          "type": "uint256"
        }
      ],
      "stateMutability": "nonpayable",
      "type": "function"
    },
    {
      "inputs": [
        {
          "internalType": "contract IJBSingleTokenPaymentTerminal",
          "name": "",
          "type": "address"
        },
        {
          "internalType": "uint256",
          "name": "",
          "type": "uint256"
        },
        {
          "internalType": "uint256",
          "name": "",
          "type": "uint256"
        }
      ],
      "name": "usedDistributionLimitOf",
      "outputs": [
        {
          "internalType": "uint256",
          "name": "",
          "type": "uint256"
        }
      ],
      "stateMutability": "view",
      "type": "function"
    },
    {
      "inputs": [
        {
          "internalType": "contract IJBSingleTokenPaymentTerminal",
          "name": "",
          "type": "address"
        },
        {
          "internalType": "uint256",
          "name": "",
          "type": "uint256"
        },
        {
          "internalType": "uint256",
          "name": "",
          "type": "uint256"
        }
      ],
      "name": "usedOverflowAllowanceOf",
      "outputs": [
        {
          "internalType": "uint256",
          "name": "",
          "type": "uint256"
        }
      ],
      "stateMutability": "view",
      "type": "function"
    }
  ],
  "bytecode": {
    "object": "0x60e06040523480156200001157600080fd5b50604051620035ea380380620035ea833981016040819052620000349162000070565b60016000556001600160a01b0392831660805290821660a0521660c052620000c4565b6001600160a01b03811681146200006d57600080fd5b50565b6000806000606084860312156200008657600080fd5b8351620000938162000057565b6020850151909350620000a68162000057565b6040850151909250620000b98162000057565b809150509250925092565b60805160a05160c05161346a6200018060003960008181610273015281816106aa01528181610bd30152818161210901526122ed01526000818161018b01528181610347015281816107f801528181610ca101528181610d9d0152818161118e01528181611458015281816115210152818161183b01528181611c3e0152612374015260008181610239015281816103f701528181610fdd015281816117030152818161191401528181611edf015261218c015261346a6000f3fe608060405234801561001057600080fd5b50600436106100ff5760003560e01c8063c294b2f411610097578063d49031c011610066578063d49031c014610295578063d4c3a8d2146102a8578063e7c8e3e3146102d9578063e8ba563a146102ee57600080fd5b8063c294b2f414610221578063c41c2f2414610234578063c66445971461025b578063d3419bf31461026e57600080fd5b80636bb6a5ad116100d35780636bb6a5ad146101c5578063a2df1f95146101d8578063a57c7f59146101fb578063b753d7e91461020e57600080fd5b8062fdd58e1461010457806325386715146101425780632fa1b39114610163578063557e715514610186575b600080fd5b61012f610112366004612587565b600160209081526000928352604080842090915290825290205481565b6040519081526020015b60405180910390f35b6101556101503660046125b3565b61031f565b60405161013992919061263e565b6101766101713660046127be565b6107cd565b60405161013994939291906128cf565b6101ad7f000000000000000000000000000000000000000000000000000000000000000081565b6040516001600160a01b039091168152602001610139565b61012f6101d3366004612981565b610c7e565b6101eb6101e636600461299a565b610d72565b6040516101399493929190612a3b565b61012f610209366004612ad6565b61141d565b61012f61021c3660046125b3565b6114e7565b61012f61022f366004612b08565b6114fe565b6101ad7f000000000000000000000000000000000000000000000000000000000000000081565b6101556102693660046125b3565b611813565b6101ad7f000000000000000000000000000000000000000000000000000000000000000081565b61012f6102a3366004612587565b611c35565b61012f6102b6366004612b57565b600360209081526000938452604080852082529284528284209052825290205481565b6102ec6102e7366004612b8c565b611d13565b005b61012f6102fc366004612b57565b600260209081526000938452604080852082529284528284209052825290205481565b61032761251a565b6000610331611d5c565b6040516321d1336160e11b8152600481018690527f00000000000000000000000000000000000000000000000000000000000000006001600160a01b0316906343a266c29060240161012060405180830381865afa158015610397573d6000803e3d6000fd5b505050506040513d601f19601f820116820180604052508101906103bb9190612bb9565b3360009081526003602090815260408083208984528252808320828501518452909152812054919350906103f0908690612c4f565b90506000807f00000000000000000000000000000000000000000000000000000000000000006001600160a01b0316635dd8f6aa896040518263ffffffff1660e01b815260040161044391815260200190565b602060405180830381865afa158015610460573d6000803e3d6000fd5b505050506040513d601f19601f820116820180604052508101906104849190612c62565b6001600160a01b031663a29a68146040518163ffffffff1660e01b8152600401602060405180830381865afa1580156104c1573d6000803e3d6000fd5b505050506040513d601f19601f820116820180604052508101906104e59190612c62565b6001600160a01b0316637a81b56289876020015133336001600160a01b031663fc0c546a6040518163ffffffff1660e01b8152600401602060405180830381865afa158015610538573d6000803e3d6000fd5b505050506040513d601f19601f8201168201806040525081019061055c9190612c62565b6040518563ffffffff1660e01b815260040161057b9493929190612c7f565b6040805180830381865afa158015610597573d6000803e3d6000fd5b505050506040513d601f19601f820116820180604052508101906105bb9190612ca6565b91509150818311806105cb575081155b156105e957604051635b76558960e11b815260040160405180910390fd5b8086146106095760405163e56ea4e760e01b815260040160405180910390fd5b6000336001600160a01b031663e5a6b10f6040518163ffffffff1660e01b8152600401602060405180830381865afa158015610649573d6000803e3d6000fd5b505050506040513d601f19601f8201168201806040525081019061066d9190612cca565b905080871461072857610723886106866012600a612dc7565b604051635268657960e11b8152600481018b905260248101859052601260448201527f00000000000000000000000000000000000000000000000000000000000000006001600160a01b03169063a4d0caf2906064015b602060405180830381865afa1580156106fa573d6000803e3d6000fd5b505050506040513d601f19601f8201168201806040525081019061071e9190612cca565b611dba565b61072a565b875b9450610738338a8884611e87565b851115610758576040516317e53f6760e11b815260040160405180910390fd5b3360008181526003602090815260408083208d845282528083208a83015184528252808320889055928252600181528282208c83529052205461079c908690612dd3565b3360009081526001602090815260408083208d8452909152902055506107c59250612162915050565b935093915050565b6107d561251a565b60006060806107e2611d5c565b6040516321d1336160e11b8152600481018b90527f00000000000000000000000000000000000000000000000000000000000000006001600160a01b0316906343a266c29060240161012060405180830381865afa158015610848573d6000803e3d6000fd5b505050506040513d601f19601f8201168201806040525081019061086c9190612bb9565b80519094506000036108915760405163174b338d60e11b815260040160405180910390fd5b61010084015160481c6001908116036108bd5760405163a3bb913360e01b815260040160405180910390fd5b61010084015160009060521c60019081161480156108f3575060006108e786610100015160541c90565b6001600160a01b031614155b15610a43576000604051806101400160405280336001600160a01b031681526020018f6001600160a01b031681526020018e8036038101906109359190612de6565b815260208082018f905288015160408201526001600160a01b038c16606082015260a080890151608083015261010089015191019060181c61ffff1681526020018a8a8080601f01602080910402602001604051908101604052809392919081815260200183838082843760009201919091525050509082525060200188905290506109c686610100015160541c90565b6001600160a01b031663d46cf171826040518263ffffffff1660e01b81526004016109f19190612e55565b600060405180830381865afa158015610a0e573d6000803e3d6000fd5b505050506040513d6000823e601f3d908101601f19168201604052610a369190810190612fc0565b955093509150610a849050565b8460a00151905087878080601f0160208091040260200160405190810160405280939291908181526020018383808284376000920191909152509294505050505b825160208d01359015610b005760005b8451811015610afe576000858281518110610ab157610ab16130f1565b602002602001015160200151905080600014610af55782811115610ae8576040516336a8da9360e11b815260040160405180910390fd5b610af28184612dd3565b92505b50600101610a94565b505b8c60200135600003610b18575060009350610c659050565b8015610b7f573360009081526001602090815260408083208f8452909152902054610b44908290612c4f565b60016000336001600160a01b03166001600160a01b0316815260200190815260200160002060008e8152602001908152602001600020819055505b5080600003610b92575060009250610c65565b60408c0135600060608e01358c14610c4357604051635268657960e11b815260608f01356004820152602481018d9052604481018390526001600160a01b037f0000000000000000000000000000000000000000000000000000000000000000169063a4d0caf290606401602060405180830381865afa158015610c1a573d6000803e3d6000fd5b505050506040513d601f19601f82011682018060405250810190610c3e9190612cca565b610c4e565b610c4e82600a612dc7565b9050610c5f8e602001358483611dba565b95505050505b610c6f6001600055565b98509850985098945050505050565b6000610c88611d5c565b6040516321d1336160e11b8152600481018390526000907f00000000000000000000000000000000000000000000000000000000000000006001600160a01b0316906343a266c29060240161012060405180830381865afa158015610cf1573d6000803e3d6000fd5b505050506040513d601f19601f82011682018060405250810190610d159190612bb9565b610100810151909150604d1c600190811614610d44576040516373e4f05f60e11b815260040160405180910390fd5b505033600090815260016020818152604080842085855290915282208054908390559155919050565b919050565b610d7a61251a565b6000606080610d87611d5c565b6040516321d1336160e11b8152600481018990527f00000000000000000000000000000000000000000000000000000000000000006001600160a01b0316906343a266c29060240161012060405180830381865afa158015610ded573d6000803e3d6000fd5b505050506040513d601f19601f82011682018060405250810190610e119190612bb9565b610100810151909450604a1c600190811603610e405760405163a97cf58f60e01b815260040160405180910390fd5b610e74604051806080016040528060006001600160a01b031681526020016000815260200160008152602001600081525090565b6000806000336001600160a01b031663fc0c546a6040518163ffffffff1660e01b8152600401602060405180830381865afa158015610eb7573d6000803e3d6000fd5b505050506040513d601f19601f82011682018060405250810190610edb9190612c62565b90506000336001600160a01b031663313ce5676040518163ffffffff1660e01b8152600401602060405180830381865afa158015610f1d573d6000803e3d6000fd5b505050506040513d601f19601f82011682018060405250810190610f419190612cca565b90506000336001600160a01b031663e5a6b10f6040518163ffffffff1660e01b8152600401602060405180830381865afa158015610f83573d6000803e3d6000fd5b505050506040513d601f19601f82011682018060405250810190610fa79190612cca565b6101008b015190915060511c600190811614610fce57610fc9338f8c84611e87565b610fd9565b610fd98e8383612169565b94507f00000000000000000000000000000000000000000000000000000000000000006001600160a01b0316635dd8f6aa8f6040518263ffffffff1660e01b815260040161102991815260200190565b602060405180830381865afa158015611046573d6000803e3d6000fd5b505050506040513d601f19601f8201168201806040525081019061106a9190612c62565b6001600160a01b031663c18f2d318f6040518263ffffffff1660e01b815260040161109791815260200190565b602060405180830381865afa1580156110b4573d6000803e3d6000fd5b505050506040513d601f19601f820116820180604052508101906110d89190612cca565b9350838d11156110fa57604051625c579160e91b815260040160405180910390fd5b84156111105761110d8e8b8f878961234b565b98505b604080516080810182526001600160a01b03949094168452602084018a9052830191909152606082015261010088015190935060531c60019081161480156111705750600061116488610100015160541c90565b6001600160a01b031614155b1561134557604051633157d5c760e21b8152600481018c90526000907f00000000000000000000000000000000000000000000000000000000000000006001600160a01b03169063c55f571c90602401602060405180830381865afa1580156111dd573d6000803e3d6000fd5b505050506040513d601f19601f820116820180604052508101906112019190613107565b90506000604051806101800160405280336001600160a01b031681526020018f6001600160a01b031681526020018e81526020018a6020015181526020018d815260200184815260200185815260200186815260200161126e8b6101000151600160519190911c81161490565b15158152602001600084600281111561128957611289613128565b1461129c576112978b612483565b6112a5565b6112a58b6124a0565b81526020018c81526020018b81525090506112c589610100015160541c90565b6001600160a01b031663a51cfd18826040518263ffffffff1660e01b81526004016112f0919061313e565b600060405180830381865afa15801561130d573d6000803e3d6000fd5b505050506040513d6000823e601f3d908101601f191682016040526113359190810190613236565b9199509097509550611349915050565b8893505b50508251849150156113a35760005b83518110156113a1576000848281518110611375576113756130f1565b602002602001015160200151905080600014611398576113958184612c4f565b92505b50600101611358565b505b3360009081526001602090815260408083208c84529091529020548111156113de576040516317e53f6760e11b815260040160405180910390fd5b8015611406573360009081526001602090815260408083208c84529091529020805482900390555b506114116001600055565b95509550955095915050565b60008160000361142f575060006114df565b8284111561143f575060006114df565b6040516321d1336160e11b8152600481018690526000907f00000000000000000000000000000000000000000000000000000000000000006001600160a01b0316906343a266c29060240161012060405180830381865afa1580156114a8573d6000803e3d6000fd5b505050506040513d601f19601f820116820180604052508101906114cc9190612bb9565b90506114db868287878761234b565b9150505b949350505050565b60006114f4848484612169565b90505b9392505050565b6040516321d1336160e11b81526004810184905260009081906001600160a01b037f000000000000000000000000000000000000000000000000000000000000000016906343a266c29060240161012060405180830381865afa158015611569573d6000803e3d6000fd5b505050506040513d601f19601f8201168201806040525081019061158d9190612bb9565b9050600083611608576116038787848a6001600160a01b031663e5a6b10f6040518163ffffffff1660e01b8152600401602060405180830381865afa1580156115da573d6000803e3d6000fd5b505050506040513d601f19601f820116820180604052508101906115fe9190612cca565b611e87565b6116d5565b6116d586886001600160a01b031663313ce5676040518163ffffffff1660e01b8152600401602060405180830381865afa15801561164a573d6000803e3d6000fd5b505050506040513d601f19601f8201168201806040525081019061166e9190612cca565b896001600160a01b031663e5a6b10f6040518163ffffffff1660e01b8152600401602060405180830381865afa1580156116ac573d6000803e3d6000fd5b505050506040513d601f19601f820116820180604052508101906116d09190612cca565b612169565b9050806000036116ea576000925050506114df565b604051632eec7b5560e11b8152600481018790526000907f00000000000000000000000000000000000000000000000000000000000000006001600160a01b031690635dd8f6aa90602401602060405180830381865afa158015611752573d6000803e3d6000fd5b505050506040513d601f19601f820116820180604052508101906117769190612c62565b6001600160a01b031663c18f2d31886040518263ffffffff1660e01b81526004016117a391815260200190565b602060405180830381865afa1580156117c0573d6000803e3d6000fd5b505050506040513d601f19601f820116820180604052508101906117e49190612cca565b9050808611156117fa57600093505050506114df565b611807878488848661234b565b98975050505050505050565b61181b61251a565b6000611825611d5c565b6040516321d1336160e11b8152600481018690527f00000000000000000000000000000000000000000000000000000000000000006001600160a01b0316906343a266c29060240161012060405180830381865afa15801561188b573d6000803e3d6000fd5b505050506040513d601f19601f820116820180604052508101906118af9190612bb9565b61010081015190925060491c6001908116036118de5760405163861e9dcd60e01b815260040160405180910390fd5b33600090815260026020908152604080832088845282528083208551845290915281205461190d908690612c4f565b90506000807f00000000000000000000000000000000000000000000000000000000000000006001600160a01b0316635dd8f6aa896040518263ffffffff1660e01b815260040161196091815260200190565b602060405180830381865afa15801561197d573d6000803e3d6000fd5b505050506040513d601f19601f820116820180604052508101906119a19190612c62565b6001600160a01b031663a29a68146040518163ffffffff1660e01b8152600401602060405180830381865afa1580156119de573d6000803e3d6000fd5b505050506040513d601f19601f82011682018060405250810190611a029190612c62565b6001600160a01b031663e8db213089876020015133336001600160a01b031663fc0c546a6040518163ffffffff1660e01b8152600401602060405180830381865afa158015611a55573d6000803e3d6000fd5b505050506040513d601f19601f82011682018060405250810190611a799190612c62565b6040518563ffffffff1660e01b8152600401611a989493929190612c7f565b6040805180830381865afa158015611ab4573d6000803e3d6000fd5b505050506040513d601f19601f82011682018060405250810190611ad89190612ca6565b9150915081831180611ae8575081155b15611b0657604051630236b92b60e21b815260040160405180910390fd5b808614611b265760405163e56ea4e760e01b815260040160405180910390fd5b6000336001600160a01b031663e5a6b10f6040518163ffffffff1660e01b8152600401602060405180830381865afa158015611b66573d6000803e3d6000fd5b505050506040513d601f19601f82011682018060405250810190611b8a9190612cca565b9050808714611ba857611ba3886106866012600a612dc7565b611baa565b875b3360009081526001602090815260408083208d8452909152902054909550851115611be8576040516317e53f6760e11b815260040160405180910390fd5b50503360008181526002602090815260408083208b845282528083208851845282528083209590955591815260018083528482208a835290925292832080548590039055909155506107c5565b6000611d0a83837f00000000000000000000000000000000000000000000000000000000000000006001600160a01b03166343a266c2866040518263ffffffff1660e01b8152600401611c8a91815260200190565b61012060405180830381865afa158015611ca8573d6000803e3d6000fd5b505050506040513d601f19601f82011682018060405250810190611ccc9190612bb9565b866001600160a01b031663e5a6b10f6040518163ffffffff1660e01b8152600401602060405180830381865afa1580156115da573d6000803e3d6000fd5b90505b92915050565b336000908152600160209081526040808320858452909152902054611d39908290612c4f565b336000908152600160209081526040808320958352949052929092209190915550565b600260005403611db35760405162461bcd60e51b815260206004820152601f60248201527f5265656e7472616e637947756172643a207265656e7472616e742063616c6c0060448201526064015b60405180910390fd5b6002600055565b6000808060001985870985870292508281108382030391505080600003611df457838281611dea57611dea613356565b04925050506114f7565b838110611e1e57604051631dcf306360e21b81526004810182905260248101859052604401611daa565b60008486880960026001871981018816978890046003810283188082028403028082028403028082028403028082028403028082028403029081029092039091026000889003889004909101858311909403939093029303949094049190911702949350505050565b6001600160a01b0384166000908152600160209081526040808320868452909152812054808203611ebc5760009150506114df565b604051632eec7b5560e11b81526004810186905260009081906001600160a01b037f00000000000000000000000000000000000000000000000000000000000000001690635dd8f6aa90602401602060405180830381865afa158015611f26573d6000803e3d6000fd5b505050506040513d601f19601f82011682018060405250810190611f4a9190612c62565b6001600160a01b031663a29a68146040518163ffffffff1660e01b8152600401602060405180830381865afa158015611f87573d6000803e3d6000fd5b505050506040513d601f19601f82011682018060405250810190611fab9190612c62565b6001600160a01b031663e8db21308888602001518b8c6001600160a01b031663fc0c546a6040518163ffffffff1660e01b8152600401602060405180830381865afa158015611ffe573d6000803e3d6000fd5b505050506040513d601f19601f820116820180604052508101906120229190612c62565b6040518563ffffffff1660e01b81526004016120419493929190612c7f565b6040805180830381865afa15801561205d573d6000803e3d6000fd5b505050506040513d601f19601f820116820180604052508101906120819190612ca6565b6001600160a01b038a1660009081526002602090815260408083208c845282528083208b518452909152812054929450909250906120bf9084612dd3565b905080158015906120d05750858214155b1561214357612140816120e56012600a612dc7565b604051635268657960e11b815260048101869052602481018a9052601260448201527f00000000000000000000000000000000000000000000000000000000000000006001600160a01b03169063a4d0caf2906064016106dd565b90505b808411612151576000612155565b8084035b9998505050505050505050565b6001600055565b60405163d175415360e01b81526004810184905260009081906001600160a01b037f0000000000000000000000000000000000000000000000000000000000000000169063d175415390602401600060405180830381865afa1580156121d3573d6000803e3d6000fd5b505050506040513d6000823e601f3d908101601f191682016040526121fb919081019061336c565b90506000805b82518110156122a65782818151811061221c5761221c6130f1565b60200260200101516001600160a01b031663a32e1e96886040518263ffffffff1660e01b815260040161225191815260200190565b602060405180830381865afa15801561226e573d6000803e3d6000fd5b505050506040513d601f19601f820116820180604052508101906122929190612cca565b61229c9083612c4f565b9150600101612201565b5060006001851461232157604051635268657960e11b815260016004820152602481018690526012604482015261231c908390670de0b6b3a7640000906001600160a01b037f0000000000000000000000000000000000000000000000000000000000000000169063a4d0caf2906064016106dd565b612323565b815b90508560121461233e57612339816012886124bd565b612340565b805b979650505050505050565b600082840361235b57508061247a565b600080604051633157d5c760e21b8152600481018990527f00000000000000000000000000000000000000000000000000000000000000006001600160a01b03169063c55f571c90602401602060405180830381865afa1580156123c3573d6000803e3d6000fd5b505050506040513d601f19601f820116820180604052508101906123e79190613107565b60028111156123f8576123f8613128565b1461240b5761240686612483565b612414565b612414866124a0565b90508060000361242857600091505061247a565b6000612435848787611dba565b9050612710820361244957915061247a9050565b612475816124638861245d86612710612dd3565b89611dba565b61246d9085612c4f565b612710611dba565b925050505b95945050505050565b60006028826101000151901c61ffff16612710611d0d9190612dd3565b60006038826101000151901c61ffff16612710611d0d9190612dd3565b60008282036124cd5750826114f7565b828211156124fb576124df8383612dd3565b6124ea90600a612dc7565b6124f490856133fb565b90506114f7565b6125058284612dd3565b61251090600a612dc7565b6124f49085613412565b6040518061012001604052806000815260200160008152602001600081526020016000815260200160008152602001600081526020016000815260200160006001600160a01b03168152602001600081525090565b6001600160a01b038116811461258457600080fd5b50565b6000806040838503121561259a57600080fd5b82356125a58161256f565b946020939093013593505050565b6000806000606084860312156125c857600080fd5b505081359360208301359350604090920135919050565b805182526020808201519083015260408082015190830152606080820151908301526080808201519083015260a0808201519083015260c0808201519083015260e0808201516001600160a01b03169083015261010090810151910152565b610140810161264d82856125df565b826101208301529392505050565b60008083601f84011261266d57600080fd5b50813567ffffffffffffffff81111561268557600080fd5b60208301915083602082850101111561269d57600080fd5b9250929050565b634e487b7160e01b600052604160045260246000fd5b604051610120810167ffffffffffffffff811182821017156126de576126de6126a4565b60405290565b6040516060810167ffffffffffffffff811182821017156126de576126de6126a4565b604051601f8201601f1916810167ffffffffffffffff81118282101715612730576127306126a4565b604052919050565b600067ffffffffffffffff821115612752576127526126a4565b50601f01601f191660200190565b600061277361276e84612738565b612707565b905082815283838301111561278757600080fd5b828260208301376000602084830101529392505050565b600082601f8301126127af57600080fd5b611d0a83833560208501612760565b600080600080600080600080888a036101408112156127dc57600080fd5b89356127e78161256f565b98506080601f19820112156127fb57600080fd5b5060208901965060a0890135955060c0890135945060e089013561281e8161256f565b935061010089013567ffffffffffffffff8082111561283c57600080fd5b6128488c838d0161265b565b90955093506101208b013591508082111561286257600080fd5b5061286f8b828c0161279e565b9150509295985092959890939650565b60005b8381101561289a578181015183820152602001612882565b50506000910152565b600081518084526128bb81602086016020860161287f565b601f01601f19169290920160200192915050565b60006101808083016128e184896125df565b61012084018790526101408401919091528451908190526101a080840191600581901b850190910190602080880160005b8381101561296a5787850361019f19018652815180516001600160a01b031686528381015184870152604090810151606091870182905290612956818801836128a3565b978501979650505090820190600101612912565b5050505083810361016085015261247581866128a3565b60006020828403121561299357600080fd5b5035919050565b600080600080600060a086880312156129b257600080fd5b85356129bd8161256f565b94506020860135935060408601359250606086013567ffffffffffffffff808211156129e857600080fd5b818801915088601f8301126129fc57600080fd5b612a0b89833560208501612760565b93506080880135915080821115612a2157600080fd5b50612a2e8882890161279e565b9150509295509295909350565b6000610180808301612a4d84896125df565b61012084018790526101408401919091528451908190526101a080840191600581901b850190910190602080880160005b8381101561296a5787850361019f19018652815180516001600160a01b031686528381015184870152604090810151606091870182905290612ac2818801836128a3565b978501979650505090820190600101612a7e565b60008060008060808587031215612aec57600080fd5b5050823594602084013594506040840135936060013592509050565b60008060008060808587031215612b1e57600080fd5b8435612b298161256f565b9350602085013592506040850135915060608501358015158114612b4c57600080fd5b939692955090935050565b600080600060608486031215612b6c57600080fd5b8335612b778161256f565b95602085013595506040909401359392505050565b60008060408385031215612b9f57600080fd5b50508035926020909101359150565b8051610d6d8161256f565b60006101208284031215612bcc57600080fd5b612bd46126ba565b825181526020830151602082015260408301516040820152606083015160608201526080830151608082015260a083015160a082015260c083015160c0820152612c2060e08401612bae565b60e0820152610100928301519281019290925250919050565b634e487b7160e01b600052601160045260246000fd5b80820180821115611d0d57611d0d612c39565b600060208284031215612c7457600080fd5b81516114f78161256f565b93845260208401929092526001600160a01b03908116604084015216606082015260800190565b60008060408385031215612cb957600080fd5b505080516020909101519092909150565b600060208284031215612cdc57600080fd5b5051919050565b600181815b80851115612d1e578160001904821115612d0457612d04612c39565b80851615612d1157918102915b93841c9390800290612ce8565b509250929050565b600082612d3557506001611d0d565b81612d4257506000611d0d565b8160018114612d585760028114612d6257612d7e565b6001915050611d0d565b60ff841115612d7357612d73612c39565b50506001821b611d0d565b5060208310610133831016604e8410600b8410161715612da1575081810a611d0d565b612dab8383612ce3565b8060001904821115612dbf57612dbf612c39565b029392505050565b6000611d0a8383612d26565b81810381811115611d0d57611d0d612c39565b600060808284031215612df857600080fd5b6040516080810181811067ffffffffffffffff82111715612e1b57612e1b6126a4565b6040528235612e298161256f565b808252506020830135602082015260408301356040820152606083013560608201528091505092915050565b60208152612e6f6020820183516001600160a01b03169052565b60006020830151612e8b60408401826001600160a01b03169052565b506040830151612ec5606084018280516001600160a01b031682526020808201519083015260408082015190830152606090810151910152565b50606083015160e08301526080830151610100818185015260a08501519150610120612efb818601846001600160a01b03169052565b60c086015161014086015260e08601516101608601528186015192506101a0915081610180860152612f316101c08601846128a3565b90860151858203601f190183870152909250612f4d83826128a3565b9695505050505050565b600082601f830112612f6857600080fd5b8151612f7661276e82612738565b818152846020838601011115612f8b57600080fd5b6114df82602083016020870161287f565b600067ffffffffffffffff821115612fb657612fb66126a4565b5060051b60200190565b600080600060608486031215612fd557600080fd5b8351925060208085015167ffffffffffffffff80821115612ff557600080fd5b61300188838901612f57565b9450604087015191508082111561301757600080fd5b818701915087601f83011261302b57600080fd5b815161303961276e82612f9c565b81815260059190911b8301840190848101908a83111561305857600080fd5b8585015b838110156130e0578051858111156130745760008081fd5b86016060818e03601f1901121561308b5760008081fd5b6130936126e4565b888201516130a08161256f565b81526040820151898201526060820151878111156130be5760008081fd5b6130cc8f8b83860101612f57565b60408301525084525091860191860161305c565b508096505050505050509250925092565b634e487b7160e01b600052603260045260246000fd5b60006020828403121561311957600080fd5b8151600381106114f757600080fd5b634e487b7160e01b600052602160045260246000fd5b602081526131586020820183516001600160a01b03169052565b6000602083015161317460408401826001600160a01b03169052565b506040830151606083015260608301516080830152608083015160a083015260a083015160c083015260c083015160e083015260e08301516101006131e28185018380516001600160a01b031682526020808201519083015260408082015190830152606090810151910152565b8401511515610180840152506101208301516101a08301526101408301516101e06101c084018190526132196102008501836128a3565b9150610160850151601f198584030182860152612f4d83826128a3565b60008060006060848603121561324b57600080fd5b8351925060208085015167ffffffffffffffff8082111561326b57600080fd5b61327788838901612f57565b9450604087015191508082111561328d57600080fd5b818701915087601f8301126132a157600080fd5b81516132af61276e82612f9c565b81815260059190911b8301840190848101908a8311156132ce57600080fd5b8585015b838110156130e0578051858111156132ea5760008081fd5b86016060818e03601f190112156133015760008081fd5b6133096126e4565b888201516133168161256f565b81526040820151898201526060820151878111156133345760008081fd5b6133428f8b83860101612f57565b6040830152508452509186019186016132d2565b634e487b7160e01b600052601260045260246000fd5b6000602080838503121561337f57600080fd5b825167ffffffffffffffff81111561339657600080fd5b8301601f810185136133a757600080fd5b80516133b561276e82612f9c565b81815260059190911b820183019083810190878311156133d457600080fd5b928401925b828410156123405783516133ec8161256f565b825292840192908401906133d9565b8082028115828204841417611d0d57611d0d612c39565b60008261342f57634e487b7160e01b600052601260045260246000fd5b50049056fea26469706673582212208dcdfc583e070af2fc11ea0681a5b3c9cb01ad976b9888b2e22622b12d1c847764736f6c63430008140033",
    "linkReferences": {}
  },
  "methodIdentifiers": {
    "balanceOf(address,uint256)": "00fdd58e",
    "currentOverflowOf(address,uint256)": "d49031c0",
    "currentReclaimableOverflowOf(address,uint256,uint256,bool)": "c294b2f4",
    "currentReclaimableOverflowOf(uint256,uint256,uint256,uint256)": "a57c7f59",
    "currentTotalOverflowOf(uint256,uint256,uint256)": "b753d7e9",
    "directory()": "c41c2f24",
    "fundingCycleStore()": "557e7155",
    "prices()": "d3419bf3",
    "recordAddedBalanceFor(uint256,uint256)": "e7c8e3e3",
    "recordDistributionFor(uint256,uint256,uint256)": "c6644597",
    "recordMigration(uint256)": "6bb6a5ad",
    "recordPaymentFrom(address,(address,uint256,uint256,uint256),uint256,uint256,address,string,bytes)": "2fa1b391",
    "recordRedemptionFor(address,uint256,uint256,string,bytes)": "a2df1f95",
    "recordUsedAllowanceOf(uint256,uint256,uint256)": "25386715",
    "usedDistributionLimitOf(address,uint256,uint256)": "e8ba563a",
    "usedOverflowAllowanceOf(address,uint256,uint256)": "d4c3a8d2"
  },
  "id": 24
}