{
  "abi": [
    {
      "inputs": [],
      "stateMutability": "nonpayable",
      "type": "constructor"
    },
    {
      "inputs": [
        {
          "internalType": "address",
          "name": "caller",
          "type": "address"
        },
        {
          "internalType": "uint256",
          "name": "projectId",
          "type": "uint256"
        },
        {
          "internalType": "uint256",
          "name": "value",
          "type": "uint256"
        }
      ],
      "name": "INVALID_PAYMENT_EVENT",
      "type": "error"
    },
    {
      "inputs": [
        {
          "internalType": "address",
          "name": "caller",
          "type": "address"
        },
        {
          "internalType": "uint256",
          "name": "projectId",
          "type": "uint256"
        },
        {
          "internalType": "uint256",
          "name": "value",
          "type": "uint256"
        }
      ],
      "name": "INVALID_REDEMPTION_EVENT",
      "type": "error"
    },
    {
      "inputs": [
        {
          "internalType": "address",
          "name": "payer",
          "type": "address"
        }
      ],
      "name": "PAYER_NOT_ON_ALLOWLIST",
      "type": "error"
    },
    {
      "inputs": [
        {
          "internalType": "uint256",
          "name": "",
          "type": "uint256"
        }
      ],
      "name": "dataSources",
      "outputs": [
        {
          "internalType": "address",
          "name": "",
          "type": "address"
        }
      ],
      "stateMutability": "view",
      "type": "function"
    },
    {
      "inputs": [
        {
          "components": [
            {
              "internalType": "address",
              "name": "payer",
              "type": "address"
            },
            {
              "internalType": "uint256",
              "name": "projectId",
              "type": "uint256"
            },
            {
              "internalType": "uint256",
              "name": "currentFundingCycleConfiguration",
              "type": "uint256"
            },
            {
              "components": [
                {
                  "internalType": "address",
                  "name": "token",
                  "type": "address"
                },
                {
                  "internalType": "uint256",
                  "name": "value",
                  "type": "uint256"
                },
                {
                  "internalType": "uint256",
                  "name": "decimals",
                  "type": "uint256"
                },
                {
                  "internalType": "uint256",
                  "name": "currency",
                  "type": "uint256"
                }
              ],
              "internalType": "struct JBTokenAmount",
              "name": "amount",
              "type": "tuple"
            },
            {
              "components": [
                {
                  "internalType": "address",
                  "name": "token",
                  "type": "address"
                },
                {
                  "internalType": "uint256",
                  "name": "value",
                  "type": "uint256"
                },
                {
                  "internalType": "uint256",
                  "name": "decimals",
                  "type": "uint256"
                },
                {
                  "internalType": "uint256",
                  "name": "currency",
                  "type": "uint256"
                }
              ],
              "internalType": "struct JBTokenAmount",
              "name": "forwardedAmount",
              "type": "tuple"
            },
            {
              "internalType": "uint256",
              "name": "projectTokenCount",
              "type": "uint256"
            },
            {
              "internalType": "address",
              "name": "beneficiary",
              "type": "address"
            },
            {
              "internalType": "bool",
              "name": "preferClaimedTokens",
              "type": "bool"
            },
            {
              "internalType": "string",
              "name": "memo",
              "type": "string"
            },
            {
              "internalType": "bytes",
              "name": "dataSourceMetadata",
              "type": "bytes"
            },
            {
              "internalType": "bytes",
              "name": "payerMetadata",
              "type": "bytes"
            }
          ],
          "internalType": "struct JBDidPayData3_1_1",
          "name": "_data",
          "type": "tuple"
        }
      ],
      "name": "didPay",
      "outputs": [],
      "stateMutability": "payable",
      "type": "function"
    },
    {
      "inputs": [
        {
          "components": [
            {
              "internalType": "address",
              "name": "holder",
              "type": "address"
            },
            {
              "internalType": "uint256",
              "name": "projectId",
              "type": "uint256"
            },
            {
              "internalType": "uint256",
              "name": "currentFundingCycleConfiguration",
              "type": "uint256"
            },
            {
              "internalType": "uint256",
              "name": "projectTokenCount",
              "type": "uint256"
            },
            {
              "components": [
                {
                  "internalType": "address",
                  "name": "token",
                  "type": "address"
                },
                {
                  "internalType": "uint256",
                  "name": "value",
                  "type": "uint256"
                },
                {
                  "internalType": "uint256",
                  "name": "decimals",
                  "type": "uint256"
                },
                {
                  "internalType": "uint256",
                  "name": "currency",
                  "type": "uint256"
                }
              ],
              "internalType": "struct JBTokenAmount",
              "name": "reclaimedAmount",
              "type": "tuple"
            },
            {
              "components": [
                {
                  "internalType": "address",
                  "name": "token",
                  "type": "address"
                },
                {
                  "internalType": "uint256",
                  "name": "value",
                  "type": "uint256"
                },
                {
                  "internalType": "uint256",
                  "name": "decimals",
                  "type": "uint256"
                },
                {
                  "internalType": "uint256",
                  "name": "currency",
                  "type": "uint256"
                }
              ],
              "internalType": "struct JBTokenAmount",
              "name": "forwardedAmount",
              "type": "tuple"
            },
            {
              "internalType": "address payable",
              "name": "beneficiary",
              "type": "address"
            },
            {
              "internalType": "string",
              "name": "memo",
              "type": "string"
            },
            {
              "internalType": "bytes",
              "name": "dataSourceMetadata",
              "type": "bytes"
            },
            {
              "internalType": "bytes",
              "name": "redeemerMetadata",
              "type": "bytes"
            }
          ],
          "internalType": "struct JBDidRedeemData3_1_1",
          "name": "_data",
          "type": "tuple"
        }
      ],
      "name": "didRedeem",
      "outputs": [],
      "stateMutability": "payable",
      "type": "function"
    },
    {
      "inputs": [],
      "name": "directory",
      "outputs": [
        {
          "internalType": "contract IJBDirectory",
          "name": "",
          "type": "address"
        }
      ],
      "stateMutability": "view",
      "type": "function"
    },
    {
      "inputs": [],
      "name": "getDataSourcesLength",
      "outputs": [
        {
          "internalType": "uint256",
          "name": "",
          "type": "uint256"
        }
      ],
      "stateMutability": "view",
      "type": "function"
    },
    {
      "inputs": [
        {
          "internalType": "uint256",
          "name": "_projectId",
          "type": "uint256"
        },
        {
          "internalType": "contract IJBDirectory",
          "name": "_directory",
          "type": "address"
        },
        {
          "components": [
            {
              "internalType": "address[]",
              "name": "dataSources",
              "type": "address[]"
            }
          ],
          "internalType": "struct DeployMyDelegateData",
          "name": "_deployMyDelegateData",
          "type": "tuple"
        }
      ],
      "name": "initialize",
      "outputs": [],
      "stateMutability": "nonpayable",
      "type": "function"
    },
    {
      "inputs": [
        {
          "components": [
            {
              "internalType": "contract IJBPaymentTerminal",
              "name": "terminal",
              "type": "address"
            },
            {
              "internalType": "address",
              "name": "payer",
              "type": "address"
            },
            {
              "components": [
                {
                  "internalType": "address",
                  "name": "token",
                  "type": "address"
                },
                {
                  "internalType": "uint256",
                  "name": "value",
                  "type": "uint256"
                },
                {
                  "internalType": "uint256",
                  "name": "decimals",
                  "type": "uint256"
                },
                {
                  "internalType": "uint256",
                  "name": "currency",
                  "type": "uint256"
                }
              ],
              "internalType": "struct JBTokenAmount",
              "name": "amount",
              "type": "tuple"
            },
            {
              "internalType": "uint256",
              "name": "projectId",
              "type": "uint256"
            },
            {
              "internalType": "uint256",
              "name": "currentFundingCycleConfiguration",
              "type": "uint256"
            },
            {
              "internalType": "address",
              "name": "beneficiary",
              "type": "address"
            },
            {
              "internalType": "uint256",
              "name": "weight",
              "type": "uint256"
            },
            {
              "internalType": "uint256",
              "name": "reservedRate",
              "type": "uint256"
            },
            {
              "internalType": "string",
              "name": "memo",
              "type": "string"
            },
            {
              "internalType": "bytes",
              "name": "metadata",
              "type": "bytes"
            }
          ],
          "internalType": "struct JBPayParamsData",
          "name": "_data",
          "type": "tuple"
        }
      ],
      "name": "payParams",
      "outputs": [
        {
          "internalType": "uint256",
          "name": "weight",
          "type": "uint256"
        },
        {
          "internalType": "string",
          "name": "memo",
          "type": "string"
        },
        {
          "components": [
            {
              "internalType": "contract IJBPayDelegate3_1_1",
              "name": "delegate",
              "type": "address"
            },
            {
              "internalType": "uint256",
              "name": "amount",
              "type": "uint256"
            },
            {
              "internalType": "bytes",
              "name": "metadata",
              "type": "bytes"
            }
          ],
          "internalType": "struct JBPayDelegateAllocation3_1_1[]",
          "name": "delegateAllocations",
          "type": "tuple[]"
        }
      ],
      "stateMutability": "view",
      "type": "function"
    },
    {
      "inputs": [],
      "name": "projectId",
      "outputs": [
        {
          "internalType": "uint256",
          "name": "",
          "type": "uint256"
        }
      ],
      "stateMutability": "view",
      "type": "function"
    },
    {
      "inputs": [
        {
          "components": [
            {
              "internalType": "contract IJBPaymentTerminal",
              "name": "terminal",
              "type": "address"
            },
            {
              "internalType": "address",
              "name": "holder",
              "type": "address"
            },
            {
              "internalType": "uint256",
              "name": "projectId",
              "type": "uint256"
            },
            {
              "internalType": "uint256",
              "name": "currentFundingCycleConfiguration",
              "type": "uint256"
            },
            {
              "internalType": "uint256",
              "name": "tokenCount",
              "type": "uint256"
            },
            {
              "internalType": "uint256",
              "name": "totalSupply",
              "type": "uint256"
            },
            {
              "internalType": "uint256",
              "name": "overflow",
              "type": "uint256"
            },
            {
              "components": [
                {
                  "internalType": "address",
                  "name": "token",
                  "type": "address"
                },
                {
                  "internalType": "uint256",
                  "name": "value",
                  "type": "uint256"
                },
                {
                  "internalType": "uint256",
                  "name": "decimals",
                  "type": "uint256"
                },
                {
                  "internalType": "uint256",
                  "name": "currency",
                  "type": "uint256"
                }
              ],
              "internalType": "struct JBTokenAmount",
              "name": "reclaimAmount",
              "type": "tuple"
            },
            {
              "internalType": "bool",
              "name": "useTotalOverflow",
              "type": "bool"
            },
            {
              "internalType": "uint256",
              "name": "redemptionRate",
              "type": "uint256"
            },
            {
              "internalType": "string",
              "name": "memo",
              "type": "string"
            },
            {
              "internalType": "bytes",
              "name": "metadata",
              "type": "bytes"
            }
          ],
          "internalType": "struct JBRedeemParamsData",
          "name": "_data",
          "type": "tuple"
        }
      ],
      "name": "redeemParams",
      "outputs": [
        {
          "internalType": "uint256",
          "name": "reclaimAmount",
          "type": "uint256"
        },
        {
          "internalType": "string",
          "name": "memo",
          "type": "string"
        },
        {
          "components": [
            {
              "internalType": "contract IJBRedemptionDelegate3_1_1",
              "name": "delegate",
              "type": "address"
            },
            {
              "internalType": "uint256",
              "name": "amount",
              "type": "uint256"
            },
            {
              "internalType": "bytes",
              "name": "metadata",
              "type": "bytes"
            }
          ],
          "internalType": "struct JBRedemptionDelegateAllocation3_1_1[]",
          "name": "delegateAllocations",
          "type": "tuple[]"
        }
      ],
      "stateMutability": "view",
      "type": "function"
    },
    {
      "inputs": [
        {
          "internalType": "bytes4",
          "name": "_interfaceId",
          "type": "bytes4"
        }
      ],
      "name": "supportsInterface",
      "outputs": [
        {
          "internalType": "bool",
          "name": "",
          "type": "bool"
        }
      ],
      "stateMutability": "view",
      "type": "function"
    }
  ],
  "bytecode": {
    "object": "0x608060405234801561001057600080fd5b50610cfd806100206000396000f3fe6080604052600436106100915760003560e01c80636b204943116100595780636b2049431461015c578063a51cfd181461016f578063c41c2f241461019e578063d46cf171146101be578063f44515bb146101ed57600080fd5b806301ffc9a7146100965780630bf46e59146100cb57806313e8e591146100e05780633144e102146101185780633fafa12714610138575b600080fd5b3480156100a257600080fd5b506100b66100b13660046107cf565b610202565b60405190151581526020015b60405180910390f35b6100de6100d9366004610800565b610254565b005b3480156100ec57600080fd5b506101006100fb36600461083c565b61031f565b6040516001600160a01b0390911681526020016100c2565b34801561012457600080fd5b506100de6101333660046108da565b610349565b34801561014457600080fd5b5061014e60005481565b6040519081526020016100c2565b6100de61016a3660046109d9565b6103ef565b34801561017b57600080fd5b5061018f61018a366004610a15565b6104b2565b6040516100c293929190610a97565b3480156101aa57600080fd5b50600154610100906001600160a01b031681565b3480156101ca57600080fd5b506101de6101d9366004610b35565b6105b2565b6040516100c293929190610b71565b3480156101f957600080fd5b5060025461014e565b60006001600160e01b031982166371700c6960e01b148061023357506001600160e01b03198216636b20494360e01b145b8061024e57506001600160e01b03198216630bf46e5960e01b145b92915050565b341515806102d65750600154600054604051636e49181f60e01b815260048101919091523360248201526001600160a01b0390911690636e49181f90604401602060405180830381865afa1580156102b0573d6000803e3d6000fd5b505050506040513d601f19601f820116820180604052508101906102d49190610bfd565b155b806102e75750600054816020013514155b1561031c5760405163dbd1cb8760e01b8152336004820152602082013560248201523460448201526064015b60405180910390fd5b50565b6002818154811061032f57600080fd5b6000918252602090912001546001600160a01b0316905081565b6000541561035657600080fd5b6000838155600180546001600160a01b0319166001600160a01b038516179055815151905b818110156103e85760028360000151828151811061039b5761039b610c1f565b60209081029190910181015182546001810184556000938452919092200180546001600160a01b0319166001600160a01b03909216919091179055806103e081610c35565b91505061037b565b5050505050565b341515806104715750600154600054604051636e49181f60e01b815260048101919091523360248201526001600160a01b0390911690636e49181f90604401602060405180830381865afa15801561044b573d6000803e3d6000fd5b505050506040513d601f19601f8201168201806040525081019061046f9190610bfd565b155b806104825750600054816020013514155b1561031c5760405163992405f760e01b815233600482015260208201356024820152346044820152606401610313565b6101008101356060806104c96101a0850185610c5c565b8080601f01602080910402602001604051908101604052809392919081815260200183838082843760009201919091525092945060019250610509915050565b60405190808252806020026020018201604052801561055657816020015b604080516060808201835260008083526020830152918101919091528152602001906001900390816105275790505b5090506040518060600160405280306001600160a01b031681526020016000815260200160405180602001604052806000815250815250816000815181106105a0576105a0610c1f565b60200260200101819052509193909250565b60006060806000805b600254811015610694576000600282815481106105da576105da610c1f565b600091825260209182902001546001600160a01b03169150819063babcc5399061060a9060408b01908b01610caa565b6040516001600160e01b031960e084901b1681526001600160a01b039091166004820152602401602060405180830381865afa15801561064e573d6000803e3d6000fd5b505050506040513d601f19601f820116820180604052508101906106729190610bfd565b15610681576001925050610694565b508061068c81610c35565b9150506105bb565b50806106cf576106aa6040860160208701610caa565b60405163a105efc760e01b81526001600160a01b039091166004820152602401610313565b61012085013593506106e5610160860186610c5c565b8080601f01602080910402602001604051908101604052809392919081815260200183838082843760009201919091525092955060019250610725915050565b60405190808252806020026020018201604052801561077257816020015b604080516060808201835260008083526020830152918101919091528152602001906001900390816107435790505b5091506040518060600160405280306001600160a01b031681526020016000815260200160405180602001604052806000815250815250826000815181106107bc576107bc610c1f565b6020026020010181905250509193909250565b6000602082840312156107e157600080fd5b81356001600160e01b0319811681146107f957600080fd5b9392505050565b60006020828403121561081257600080fd5b813567ffffffffffffffff81111561082957600080fd5b820161020081850312156107f957600080fd5b60006020828403121561084e57600080fd5b5035919050565b6001600160a01b038116811461031c57600080fd5b634e487b7160e01b600052604160045260246000fd5b6040516020810167ffffffffffffffff811182821017156108a3576108a361086a565b60405290565b604051601f8201601f1916810167ffffffffffffffff811182821017156108d2576108d261086a565b604052919050565b6000806000606084860312156108ef57600080fd5b8335925060208085013561090281610855565b9250604085013567ffffffffffffffff8082111561091f57600080fd5b818701915082828903121561093357600080fd5b61093b610880565b82358281111561094a57600080fd5b80840193505088601f84011261095f57600080fd5b8235828111156109715761097161086a565b8060051b92506109828584016108a9565b818152928401850192858101908b85111561099c57600080fd5b948601945b848610156109c657853592506109b683610855565b82825294860194908601906109a1565b8352509699959850965093945050505050565b6000602082840312156109eb57600080fd5b813567ffffffffffffffff811115610a0257600080fd5b820161022081850312156107f957600080fd5b600060208284031215610a2757600080fd5b813567ffffffffffffffff811115610a3e57600080fd5b82016101e081850312156107f957600080fd5b6000815180845260005b81811015610a7757602081850181015186830182015201610a5b565b506000602082860101526020601f19601f83011685010191505092915050565b6000606085835260208181850152610ab182850187610a51565b6040858203818701528187518084528484019150848160051b850101858a0160005b83811015610b2357868303601f19018552815180516001600160a01b0316845288810151898501528601518684018a9052610b108a850182610a51565b9589019593505090870190600101610ad3565b50909c9b505050505050505050505050565b600060208284031215610b4757600080fd5b813567ffffffffffffffff811115610b5e57600080fd5b82016101a081850312156107f957600080fd5b6000606085835260208181850152610b8b82850187610a51565b6040858203818701528187518084528484019150848160051b850101858a0160005b83811015610b2357868303601f19018552815180516001600160a01b0316845288810151898501528601518684018a9052610bea8a850182610a51565b9589019593505090870190600101610bad565b600060208284031215610c0f57600080fd5b815180151581146107f957600080fd5b634e487b7160e01b600052603260045260246000fd5b600060018201610c5557634e487b7160e01b600052601160045260246000fd5b5060010190565b6000808335601e19843603018112610c7357600080fd5b83018035915067ffffffffffffffff821115610c8e57600080fd5b602001915036819003821315610ca357600080fd5b9250929050565b600060208284031215610cbc57600080fd5b81356107f98161085556fea264697066735822122037ed403bc1842717d24b93daf5b1f3b1bb925ea36531a78e9d40faf18c8c631564736f6c63430008140033",
    "linkReferences": {}
  },
  "methodIdentifiers": {
    "dataSources(uint256)": "13e8e591",
    "didPay((address,uint256,uint256,(address,uint256,uint256,uint256),(address,uint256,uint256,uint256),uint256,address,bool,string,bytes,bytes))": "6b204943",
    "didRedeem((address,uint256,uint256,uint256,(address,uint256,uint256,uint256),(address,uint256,uint256,uint256),address,string,bytes,bytes))": "0bf46e59",
    "directory()": "c41c2f24",
    "getDataSourcesLength()": "f44515bb",
    "initialize(uint256,address,(address[]))": "3144e102",
    "payParams((address,address,(address,uint256,uint256,uint256),uint256,uint256,address,uint256,uint256,string,bytes))": "d46cf171",
    "projectId()": "3fafa127",
    "redeemParams((address,address,uint256,uint256,uint256,uint256,uint256,(address,uint256,uint256,uint256),bool,uint256,string,bytes))": "a51cfd18",
    "supportsInterface(bytes4)": "01ffc9a7"
  },
  "id": 61
}