{
  "abi": [
    {
      "inputs": [],
      "stateMutability": "nonpayable",
      "type": "constructor"
    },
    {
      "inputs": [
        {
          "internalType": "address",
          "name": "caller",
          "type": "address"
        },
        {
          "internalType": "uint256",
          "name": "projectId",
          "type": "uint256"
        },
        {
          "internalType": "uint256",
          "name": "value",
          "type": "uint256"
        }
      ],
      "name": "INVALID_PAYMENT_EVENT",
      "type": "error"
    },
    {
      "inputs": [
        {
          "internalType": "address",
          "name": "caller",
          "type": "address"
        },
        {
          "internalType": "uint256",
          "name": "projectId",
          "type": "uint256"
        },
        {
          "internalType": "uint256",
          "name": "value",
          "type": "uint256"
        }
      ],
      "name": "INVALID_REDEMPTION_EVENT",
      "type": "error"
    },
    {
      "inputs": [
        {
          "internalType": "address",
          "name": "payer",
          "type": "address"
        }
      ],
      "name": "PAYER_NOT_ON_ALLOWLIST",
      "type": "error"
    },
    {
      "inputs": [
        {
          "internalType": "uint256",
          "name": "",
          "type": "uint256"
        }
      ],
      "name": "dataSources",
      "outputs": [
        {
          "internalType": "address",
          "name": "",
          "type": "address"
        }
      ],
      "stateMutability": "view",
      "type": "function"
    },
    {
      "inputs": [
        {
          "components": [
            {
              "internalType": "address",
              "name": "payer",
              "type": "address"
            },
            {
              "internalType": "uint256",
              "name": "projectId",
              "type": "uint256"
            },
            {
              "internalType": "uint256",
              "name": "currentFundingCycleConfiguration",
              "type": "uint256"
            },
            {
              "components": [
                {
                  "internalType": "address",
                  "name": "token",
                  "type": "address"
                },
                {
                  "internalType": "uint256",
                  "name": "value",
                  "type": "uint256"
                },
                {
                  "internalType": "uint256",
                  "name": "decimals",
                  "type": "uint256"
                },
                {
                  "internalType": "uint256",
                  "name": "currency",
                  "type": "uint256"
                }
              ],
              "internalType": "struct JBTokenAmount",
              "name": "amount",
              "type": "tuple"
            },
            {
              "components": [
                {
                  "internalType": "address",
                  "name": "token",
                  "type": "address"
                },
                {
                  "internalType": "uint256",
                  "name": "value",
                  "type": "uint256"
                },
                {
                  "internalType": "uint256",
                  "name": "decimals",
                  "type": "uint256"
                },
                {
                  "internalType": "uint256",
                  "name": "currency",
                  "type": "uint256"
                }
              ],
              "internalType": "struct JBTokenAmount",
              "name": "forwardedAmount",
              "type": "tuple"
            },
            {
              "internalType": "uint256",
              "name": "projectTokenCount",
              "type": "uint256"
            },
            {
              "internalType": "address",
              "name": "beneficiary",
              "type": "address"
            },
            {
              "internalType": "bool",
              "name": "preferClaimedTokens",
              "type": "bool"
            },
            {
              "internalType": "string",
              "name": "memo",
              "type": "string"
            },
            {
              "internalType": "bytes",
              "name": "dataSourceMetadata",
              "type": "bytes"
            },
            {
              "internalType": "bytes",
              "name": "payerMetadata",
              "type": "bytes"
            }
          ],
          "internalType": "struct JBDidPayData3_1_1",
          "name": "_data",
          "type": "tuple"
        }
      ],
      "name": "didPay",
      "outputs": [],
      "stateMutability": "payable",
      "type": "function"
    },
    {
      "inputs": [
        {
          "components": [
            {
              "internalType": "address",
              "name": "holder",
              "type": "address"
            },
            {
              "internalType": "uint256",
              "name": "projectId",
              "type": "uint256"
            },
            {
              "internalType": "uint256",
              "name": "currentFundingCycleConfiguration",
              "type": "uint256"
            },
            {
              "internalType": "uint256",
              "name": "projectTokenCount",
              "type": "uint256"
            },
            {
              "components": [
                {
                  "internalType": "address",
                  "name": "token",
                  "type": "address"
                },
                {
                  "internalType": "uint256",
                  "name": "value",
                  "type": "uint256"
                },
                {
                  "internalType": "uint256",
                  "name": "decimals",
                  "type": "uint256"
                },
                {
                  "internalType": "uint256",
                  "name": "currency",
                  "type": "uint256"
                }
              ],
              "internalType": "struct JBTokenAmount",
              "name": "reclaimedAmount",
              "type": "tuple"
            },
            {
              "components": [
                {
                  "internalType": "address",
                  "name": "token",
                  "type": "address"
                },
                {
                  "internalType": "uint256",
                  "name": "value",
                  "type": "uint256"
                },
                {
                  "internalType": "uint256",
                  "name": "decimals",
                  "type": "uint256"
                },
                {
                  "internalType": "uint256",
                  "name": "currency",
                  "type": "uint256"
                }
              ],
              "internalType": "struct JBTokenAmount",
              "name": "forwardedAmount",
              "type": "tuple"
            },
            {
              "internalType": "address payable",
              "name": "beneficiary",
              "type": "address"
            },
            {
              "internalType": "string",
              "name": "memo",
              "type": "string"
            },
            {
              "internalType": "bytes",
              "name": "dataSourceMetadata",
              "type": "bytes"
            },
            {
              "internalType": "bytes",
              "name": "redeemerMetadata",
              "type": "bytes"
            }
          ],
          "internalType": "struct JBDidRedeemData3_1_1",
          "name": "_data",
          "type": "tuple"
        }
      ],
      "name": "didRedeem",
      "outputs": [],
      "stateMutability": "payable",
      "type": "function"
    },
    {
      "inputs": [],
      "name": "directory",
      "outputs": [
        {
          "internalType": "contract IJBDirectory",
          "name": "",
          "type": "address"
        }
      ],
      "stateMutability": "view",
      "type": "function"
    },
    {
      "inputs": [],
      "name": "getDataSourcesLength",
      "outputs": [
        {
          "internalType": "uint256",
          "name": "",
          "type": "uint256"
        }
      ],
      "stateMutability": "view",
      "type": "function"
    },
    {
      "inputs": [
        {
          "internalType": "uint256",
          "name": "_projectId",
          "type": "uint256"
        },
        {
          "internalType": "contract IJBDirectory",
          "name": "_directory",
          "type": "address"
        },
        {
          "components": [
            {
              "internalType": "address[]",
              "name": "allowList",
              "type": "address[]"
            },
            {
              "internalType": "address[]",
              "name": "dataSources",
              "type": "address[]"
            }
          ],
          "internalType": "struct DeployMyDelegateData",
          "name": "_deployMyDelegateData",
          "type": "tuple"
        }
      ],
      "name": "initialize",
      "outputs": [],
      "stateMutability": "nonpayable",
      "type": "function"
    },
    {
      "inputs": [
        {
          "components": [
            {
              "internalType": "contract IJBPaymentTerminal",
              "name": "terminal",
              "type": "address"
            },
            {
              "internalType": "address",
              "name": "payer",
              "type": "address"
            },
            {
              "components": [
                {
                  "internalType": "address",
                  "name": "token",
                  "type": "address"
                },
                {
                  "internalType": "uint256",
                  "name": "value",
                  "type": "uint256"
                },
                {
                  "internalType": "uint256",
                  "name": "decimals",
                  "type": "uint256"
                },
                {
                  "internalType": "uint256",
                  "name": "currency",
                  "type": "uint256"
                }
              ],
              "internalType": "struct JBTokenAmount",
              "name": "amount",
              "type": "tuple"
            },
            {
              "internalType": "uint256",
              "name": "projectId",
              "type": "uint256"
            },
            {
              "internalType": "uint256",
              "name": "currentFundingCycleConfiguration",
              "type": "uint256"
            },
            {
              "internalType": "address",
              "name": "beneficiary",
              "type": "address"
            },
            {
              "internalType": "uint256",
              "name": "weight",
              "type": "uint256"
            },
            {
              "internalType": "uint256",
              "name": "reservedRate",
              "type": "uint256"
            },
            {
              "internalType": "string",
              "name": "memo",
              "type": "string"
            },
            {
              "internalType": "bytes",
              "name": "metadata",
              "type": "bytes"
            }
          ],
          "internalType": "struct JBPayParamsData",
          "name": "_data",
          "type": "tuple"
        }
      ],
      "name": "payParams",
      "outputs": [
        {
          "internalType": "uint256",
          "name": "weight",
          "type": "uint256"
        },
        {
          "internalType": "string",
          "name": "memo",
          "type": "string"
        },
        {
          "components": [
            {
              "internalType": "contract IJBPayDelegate3_1_1",
              "name": "delegate",
              "type": "address"
            },
            {
              "internalType": "uint256",
              "name": "amount",
              "type": "uint256"
            },
            {
              "internalType": "bytes",
              "name": "metadata",
              "type": "bytes"
            }
          ],
          "internalType": "struct JBPayDelegateAllocation3_1_1[]",
          "name": "delegateAllocations",
          "type": "tuple[]"
        }
      ],
      "stateMutability": "view",
      "type": "function"
    },
    {
      "inputs": [],
      "name": "projectId",
      "outputs": [
        {
          "internalType": "uint256",
          "name": "",
          "type": "uint256"
        }
      ],
      "stateMutability": "view",
      "type": "function"
    },
    {
      "inputs": [
        {
          "components": [
            {
              "internalType": "contract IJBPaymentTerminal",
              "name": "terminal",
              "type": "address"
            },
            {
              "internalType": "address",
              "name": "holder",
              "type": "address"
            },
            {
              "internalType": "uint256",
              "name": "projectId",
              "type": "uint256"
            },
            {
              "internalType": "uint256",
              "name": "currentFundingCycleConfiguration",
              "type": "uint256"
            },
            {
              "internalType": "uint256",
              "name": "tokenCount",
              "type": "uint256"
            },
            {
              "internalType": "uint256",
              "name": "totalSupply",
              "type": "uint256"
            },
            {
              "internalType": "uint256",
              "name": "overflow",
              "type": "uint256"
            },
            {
              "components": [
                {
                  "internalType": "address",
                  "name": "token",
                  "type": "address"
                },
                {
                  "internalType": "uint256",
                  "name": "value",
                  "type": "uint256"
                },
                {
                  "internalType": "uint256",
                  "name": "decimals",
                  "type": "uint256"
                },
                {
                  "internalType": "uint256",
                  "name": "currency",
                  "type": "uint256"
                }
              ],
              "internalType": "struct JBTokenAmount",
              "name": "reclaimAmount",
              "type": "tuple"
            },
            {
              "internalType": "bool",
              "name": "useTotalOverflow",
              "type": "bool"
            },
            {
              "internalType": "uint256",
              "name": "redemptionRate",
              "type": "uint256"
            },
            {
              "internalType": "string",
              "name": "memo",
              "type": "string"
            },
            {
              "internalType": "bytes",
              "name": "metadata",
              "type": "bytes"
            }
          ],
          "internalType": "struct JBRedeemParamsData",
          "name": "_data",
          "type": "tuple"
        }
      ],
      "name": "redeemParams",
      "outputs": [
        {
          "internalType": "uint256",
          "name": "reclaimAmount",
          "type": "uint256"
        },
        {
          "internalType": "string",
          "name": "memo",
          "type": "string"
        },
        {
          "components": [
            {
              "internalType": "contract IJBRedemptionDelegate3_1_1",
              "name": "delegate",
              "type": "address"
            },
            {
              "internalType": "uint256",
              "name": "amount",
              "type": "uint256"
            },
            {
              "internalType": "bytes",
              "name": "metadata",
              "type": "bytes"
            }
          ],
          "internalType": "struct JBRedemptionDelegateAllocation3_1_1[]",
          "name": "delegateAllocations",
          "type": "tuple[]"
        }
      ],
      "stateMutability": "view",
      "type": "function"
    },
    {
      "inputs": [
        {
          "internalType": "bytes4",
          "name": "_interfaceId",
          "type": "bytes4"
        }
      ],
      "name": "supportsInterface",
      "outputs": [
        {
          "internalType": "bool",
          "name": "",
          "type": "bool"
        }
      ],
      "stateMutability": "view",
      "type": "function"
    }
  ],
  "bytecode": {
    "object": "0x608060405234801561001057600080fd5b50610d10806100206000396000f3fe6080604052600436106100915760003560e01c8063a51cfd1811610059578063a51cfd181461014f578063c41c2f241461017e578063d46cf1711461019e578063ee3f1444146101cd578063f44515bb146101ed57600080fd5b806301ffc9a7146100965780630bf46e59146100cb57806313e8e591146100e05780633fafa127146101185780636b2049431461013c575b600080fd5b3480156100a257600080fd5b506100b66100b13660046107d2565b610202565b60405190151581526020015b60405180910390f35b6100de6100d9366004610803565b610254565b005b3480156100ec57600080fd5b506101006100fb36600461083f565b61031f565b6040516001600160a01b0390911681526020016100c2565b34801561012457600080fd5b5061012e60005481565b6040519081526020016100c2565b6100de61014a366004610858565b610349565b34801561015b57600080fd5b5061016f61016a366004610894565b61040c565b6040516100c293929190610916565b34801561018a57600080fd5b50600154610100906001600160a01b031681565b3480156101aa57600080fd5b506101be6101b93660046109b4565b61050c565b6040516100c2939291906109f0565b3480156101d957600080fd5b506100de6101e8366004610b4b565b610729565b3480156101f957600080fd5b5060025461012e565b60006001600160e01b031982166371700c6960e01b148061023357506001600160e01b03198216636b20494360e01b145b8061024e57506001600160e01b03198216630bf46e5960e01b145b92915050565b341515806102d65750600154600054604051636e49181f60e01b815260048101919091523360248201526001600160a01b0390911690636e49181f90604401602060405180830381865afa1580156102b0573d6000803e3d6000fd5b505050506040513d601f19601f820116820180604052508101906102d49190610c10565b155b806102e75750600054816020013514155b1561031c5760405163dbd1cb8760e01b8152336004820152602082013560248201523460448201526064015b60405180910390fd5b50565b6002818154811061032f57600080fd5b6000918252602090912001546001600160a01b0316905081565b341515806103cb5750600154600054604051636e49181f60e01b815260048101919091523360248201526001600160a01b0390911690636e49181f90604401602060405180830381865afa1580156103a5573d6000803e3d6000fd5b505050506040513d601f19601f820116820180604052508101906103c99190610c10565b155b806103dc5750600054816020013514155b1561031c5760405163992405f760e01b815233600482015260208201356024820152346044820152606401610313565b6101008101356060806104236101a0850185610c32565b8080601f01602080910402602001604051908101604052809392919081815260200183838082843760009201919091525092945060019250610463915050565b6040519080825280602002602001820160405280156104b057816020015b604080516060808201835260008083526020830152918101919091528152602001906001900390816104815790505b5090506040518060600160405280306001600160a01b031681526020016000815260200160405180602001604052806000815250815250816000815181106104fa576104fa610c80565b60200260200101819052509193909250565b60006060806000805b6002548110156105ee5760006002828154811061053457610534610c80565b600091825260209182902001546001600160a01b03169150819063babcc539906105649060408b01908b01610c96565b6040516001600160e01b031960e084901b1681526001600160a01b039091166004820152602401602060405180830381865afa1580156105a8573d6000803e3d6000fd5b505050506040513d601f19601f820116820180604052508101906105cc9190610c10565b156105db5760019250506105ee565b50806105e681610cb3565b915050610515565b5080610629576106046040860160208701610c96565b60405163a105efc760e01b81526001600160a01b039091166004820152602401610313565b610120850135935061063f610160860186610c32565b8080601f0160208091040260200160405190810160405280939291908181526020018383808284376000920191909152509295506001925061067f915050565b6040519080825280602002602001820160405280156106cc57816020015b6040805160608082018352600080835260208301529181019190915281526020019060019003908161069d5790505b5091506040518060600160405280306001600160a01b0316815260200160008152602001604051806020016040528060008152508152508260008151811061071657610716610c80565b6020026020010181905250509193909250565b6000541561073657600080fd5b6000838155600180546001600160a01b0319166001600160a01b038516179055602082015151905b818110156107cb5760028360200151828151811061077e5761077e610c80565b60209081029190910181015182546001810184556000938452919092200180546001600160a01b0319166001600160a01b03909216919091179055806107c381610cb3565b91505061075e565b5050505050565b6000602082840312156107e457600080fd5b81356001600160e01b0319811681146107fc57600080fd5b9392505050565b60006020828403121561081557600080fd5b813567ffffffffffffffff81111561082c57600080fd5b820161020081850312156107fc57600080fd5b60006020828403121561085157600080fd5b5035919050565b60006020828403121561086a57600080fd5b813567ffffffffffffffff81111561088157600080fd5b820161022081850312156107fc57600080fd5b6000602082840312156108a657600080fd5b813567ffffffffffffffff8111156108bd57600080fd5b82016101e081850312156107fc57600080fd5b6000815180845260005b818110156108f6576020818501810151868301820152016108da565b506000602082860101526020601f19601f83011685010191505092915050565b6000606085835260208181850152610930828501876108d0565b6040858203818701528187518084528484019150848160051b850101858a0160005b838110156109a257868303601f19018552815180516001600160a01b0316845288810151898501528601518684018a905261098f8a8501826108d0565b9589019593505090870190600101610952565b50909c9b505050505050505050505050565b6000602082840312156109c657600080fd5b813567ffffffffffffffff8111156109dd57600080fd5b82016101a081850312156107fc57600080fd5b6000606085835260208181850152610a0a828501876108d0565b6040858203818701528187518084528484019150848160051b850101858a0160005b838110156109a257868303601f19018552815180516001600160a01b0316845288810151898501528601518684018a9052610a698a8501826108d0565b9589019593505090870190600101610a2c565b6001600160a01b038116811461031c57600080fd5b634e487b7160e01b600052604160045260246000fd5b600082601f830112610ab857600080fd5b8135602067ffffffffffffffff80831115610ad557610ad5610a91565b8260051b604051601f19603f83011681018181108482111715610afa57610afa610a91565b604052938452858101830193838101925087851115610b1857600080fd5b83870191505b84821015610b40578135610b3181610a7c565b83529183019190830190610b1e565b979650505050505050565b600080600060608486031215610b6057600080fd5b833592506020840135610b7281610a7c565b9150604084013567ffffffffffffffff80821115610b8f57600080fd5b9085019060408288031215610ba357600080fd5b604051604081018181108382111715610bbe57610bbe610a91565b604052823582811115610bd057600080fd5b610bdc89828601610aa7565b825250602083013582811115610bf157600080fd5b610bfd89828601610aa7565b6020830152508093505050509250925092565b600060208284031215610c2257600080fd5b815180151581146107fc57600080fd5b6000808335601e19843603018112610c4957600080fd5b83018035915067ffffffffffffffff821115610c6457600080fd5b602001915036819003821315610c7957600080fd5b9250929050565b634e487b7160e01b600052603260045260246000fd5b600060208284031215610ca857600080fd5b81356107fc81610a7c565b600060018201610cd357634e487b7160e01b600052601160045260246000fd5b506001019056fea2646970667358221220b0c7cb88ce3fbb53eee0fb3b36e133539c5547c0879f0eeba7894fc966bdcd4464736f6c63430008140033",
    "linkReferences": {}
  },
  "methodIdentifiers": {
    "dataSources(uint256)": "13e8e591",
    "didPay((address,uint256,uint256,(address,uint256,uint256,uint256),(address,uint256,uint256,uint256),uint256,address,bool,string,bytes,bytes))": "6b204943",
    "didRedeem((address,uint256,uint256,uint256,(address,uint256,uint256,uint256),(address,uint256,uint256,uint256),address,string,bytes,bytes))": "0bf46e59",
    "directory()": "c41c2f24",
    "getDataSourcesLength()": "f44515bb",
    "initialize(uint256,address,(address[],address[]))": "ee3f1444",
    "payParams((address,address,(address,uint256,uint256,uint256),uint256,uint256,address,uint256,uint256,string,bytes))": "d46cf171",
    "projectId()": "3fafa127",
    "redeemParams((address,address,uint256,uint256,uint256,uint256,uint256,(address,uint256,uint256,uint256),bool,uint256,string,bytes))": "a51cfd18",
    "supportsInterface(bytes4)": "01ffc9a7"
  },
  "id": 137
}