{
  "abi": [
    {
      "inputs": [],
      "stateMutability": "nonpayable",
      "type": "constructor"
    },
    {
      "inputs": [
        {
          "internalType": "address",
          "name": "caller",
          "type": "address"
        },
        {
          "internalType": "uint256",
          "name": "projectId",
          "type": "uint256"
        },
        {
          "internalType": "uint256",
          "name": "value",
          "type": "uint256"
        }
      ],
      "name": "INVALID_PAYMENT_EVENT",
      "type": "error"
    },
    {
      "inputs": [
        {
          "internalType": "address",
          "name": "caller",
          "type": "address"
        },
        {
          "internalType": "uint256",
          "name": "projectId",
          "type": "uint256"
        },
        {
          "internalType": "uint256",
          "name": "value",
          "type": "uint256"
        }
      ],
      "name": "INVALID_REDEMPTION_EVENT",
      "type": "error"
    },
    {
      "inputs": [
        {
          "internalType": "address",
          "name": "payer",
          "type": "address"
        }
      ],
      "name": "PAYER_NOT_ON_ALLOWLIST",
      "type": "error"
    },
    {
      "inputs": [
        {
          "internalType": "address",
          "name": "newSource",
          "type": "address"
        }
      ],
      "name": "addDataSource",
      "outputs": [],
      "stateMutability": "nonpayable",
      "type": "function"
    },
    {
      "inputs": [
        {
          "internalType": "uint256",
          "name": "",
          "type": "uint256"
        }
      ],
      "name": "dataSources",
      "outputs": [
        {
          "internalType": "address",
          "name": "",
          "type": "address"
        }
      ],
      "stateMutability": "view",
      "type": "function"
    },
    {
      "inputs": [
        {
          "components": [
            {
              "internalType": "address",
              "name": "payer",
              "type": "address"
            },
            {
              "internalType": "uint256",
              "name": "projectId",
              "type": "uint256"
            },
            {
              "internalType": "uint256",
              "name": "currentFundingCycleConfiguration",
              "type": "uint256"
            },
            {
              "components": [
                {
                  "internalType": "address",
                  "name": "token",
                  "type": "address"
                },
                {
                  "internalType": "uint256",
                  "name": "value",
                  "type": "uint256"
                },
                {
                  "internalType": "uint256",
                  "name": "decimals",
                  "type": "uint256"
                },
                {
                  "internalType": "uint256",
                  "name": "currency",
                  "type": "uint256"
                }
              ],
              "internalType": "struct JBTokenAmount",
              "name": "amount",
              "type": "tuple"
            },
            {
              "components": [
                {
                  "internalType": "address",
                  "name": "token",
                  "type": "address"
                },
                {
                  "internalType": "uint256",
                  "name": "value",
                  "type": "uint256"
                },
                {
                  "internalType": "uint256",
                  "name": "decimals",
                  "type": "uint256"
                },
                {
                  "internalType": "uint256",
                  "name": "currency",
                  "type": "uint256"
                }
              ],
              "internalType": "struct JBTokenAmount",
              "name": "forwardedAmount",
              "type": "tuple"
            },
            {
              "internalType": "uint256",
              "name": "projectTokenCount",
              "type": "uint256"
            },
            {
              "internalType": "address",
              "name": "beneficiary",
              "type": "address"
            },
            {
              "internalType": "bool",
              "name": "preferClaimedTokens",
              "type": "bool"
            },
            {
              "internalType": "string",
              "name": "memo",
              "type": "string"
            },
            {
              "internalType": "bytes",
              "name": "dataSourceMetadata",
              "type": "bytes"
            },
            {
              "internalType": "bytes",
              "name": "payerMetadata",
              "type": "bytes"
            }
          ],
          "internalType": "struct JBDidPayData3_1_1",
          "name": "_data",
          "type": "tuple"
        }
      ],
      "name": "didPay",
      "outputs": [],
      "stateMutability": "payable",
      "type": "function"
    },
    {
      "inputs": [
        {
          "components": [
            {
              "internalType": "address",
              "name": "holder",
              "type": "address"
            },
            {
              "internalType": "uint256",
              "name": "projectId",
              "type": "uint256"
            },
            {
              "internalType": "uint256",
              "name": "currentFundingCycleConfiguration",
              "type": "uint256"
            },
            {
              "internalType": "uint256",
              "name": "projectTokenCount",
              "type": "uint256"
            },
            {
              "components": [
                {
                  "internalType": "address",
                  "name": "token",
                  "type": "address"
                },
                {
                  "internalType": "uint256",
                  "name": "value",
                  "type": "uint256"
                },
                {
                  "internalType": "uint256",
                  "name": "decimals",
                  "type": "uint256"
                },
                {
                  "internalType": "uint256",
                  "name": "currency",
                  "type": "uint256"
                }
              ],
              "internalType": "struct JBTokenAmount",
              "name": "reclaimedAmount",
              "type": "tuple"
            },
            {
              "components": [
                {
                  "internalType": "address",
                  "name": "token",
                  "type": "address"
                },
                {
                  "internalType": "uint256",
                  "name": "value",
                  "type": "uint256"
                },
                {
                  "internalType": "uint256",
                  "name": "decimals",
                  "type": "uint256"
                },
                {
                  "internalType": "uint256",
                  "name": "currency",
                  "type": "uint256"
                }
              ],
              "internalType": "struct JBTokenAmount",
              "name": "forwardedAmount",
              "type": "tuple"
            },
            {
              "internalType": "address payable",
              "name": "beneficiary",
              "type": "address"
            },
            {
              "internalType": "string",
              "name": "memo",
              "type": "string"
            },
            {
              "internalType": "bytes",
              "name": "dataSourceMetadata",
              "type": "bytes"
            },
            {
              "internalType": "bytes",
              "name": "redeemerMetadata",
              "type": "bytes"
            }
          ],
          "internalType": "struct JBDidRedeemData3_1_1",
          "name": "_data",
          "type": "tuple"
        }
      ],
      "name": "didRedeem",
      "outputs": [],
      "stateMutability": "payable",
      "type": "function"
    },
    {
      "inputs": [],
      "name": "directory",
      "outputs": [
        {
          "internalType": "contract IJBDirectory",
          "name": "",
          "type": "address"
        }
      ],
      "stateMutability": "view",
      "type": "function"
    },
    {
      "inputs": [],
      "name": "getDataSources",
      "outputs": [
        {
          "internalType": "address[]",
          "name": "_dataSources",
          "type": "address[]"
        }
      ],
      "stateMutability": "view",
      "type": "function"
    },
    {
      "inputs": [],
      "name": "getDataSourcesLength",
      "outputs": [
        {
          "internalType": "uint256",
          "name": "",
          "type": "uint256"
        }
      ],
      "stateMutability": "view",
      "type": "function"
    },
    {
      "inputs": [],
      "name": "governance",
      "outputs": [
        {
          "internalType": "address",
          "name": "",
          "type": "address"
        }
      ],
      "stateMutability": "view",
      "type": "function"
    },
    {
      "inputs": [
        {
          "internalType": "uint256",
          "name": "_projectId",
          "type": "uint256"
        },
        {
          "internalType": "contract IJBDirectory",
          "name": "_directory",
          "type": "address"
        },
        {
          "components": [
            {
              "internalType": "address[]",
              "name": "dataSources",
              "type": "address[]"
            },
            {
              "internalType": "address",
              "name": "governance",
              "type": "address"
            }
          ],
          "internalType": "struct DeployMyDelegateData",
          "name": "_deployMyDelegateData",
          "type": "tuple"
        }
      ],
      "name": "initialize",
      "outputs": [],
      "stateMutability": "nonpayable",
      "type": "function"
    },
    {
      "inputs": [
        {
          "components": [
            {
              "internalType": "contract IJBPaymentTerminal",
              "name": "terminal",
              "type": "address"
            },
            {
              "internalType": "address",
              "name": "payer",
              "type": "address"
            },
            {
              "components": [
                {
                  "internalType": "address",
                  "name": "token",
                  "type": "address"
                },
                {
                  "internalType": "uint256",
                  "name": "value",
                  "type": "uint256"
                },
                {
                  "internalType": "uint256",
                  "name": "decimals",
                  "type": "uint256"
                },
                {
                  "internalType": "uint256",
                  "name": "currency",
                  "type": "uint256"
                }
              ],
              "internalType": "struct JBTokenAmount",
              "name": "amount",
              "type": "tuple"
            },
            {
              "internalType": "uint256",
              "name": "projectId",
              "type": "uint256"
            },
            {
              "internalType": "uint256",
              "name": "currentFundingCycleConfiguration",
              "type": "uint256"
            },
            {
              "internalType": "address",
              "name": "beneficiary",
              "type": "address"
            },
            {
              "internalType": "uint256",
              "name": "weight",
              "type": "uint256"
            },
            {
              "internalType": "uint256",
              "name": "reservedRate",
              "type": "uint256"
            },
            {
              "internalType": "string",
              "name": "memo",
              "type": "string"
            },
            {
              "internalType": "bytes",
              "name": "metadata",
              "type": "bytes"
            }
          ],
          "internalType": "struct JBPayParamsData",
          "name": "_data",
          "type": "tuple"
        }
      ],
      "name": "payParams",
      "outputs": [
        {
          "internalType": "uint256",
          "name": "weight",
          "type": "uint256"
        },
        {
          "internalType": "string",
          "name": "memo",
          "type": "string"
        },
        {
          "components": [
            {
              "internalType": "contract IJBPayDelegate3_1_1",
              "name": "delegate",
              "type": "address"
            },
            {
              "internalType": "uint256",
              "name": "amount",
              "type": "uint256"
            },
            {
              "internalType": "bytes",
              "name": "metadata",
              "type": "bytes"
            }
          ],
          "internalType": "struct JBPayDelegateAllocation3_1_1[]",
          "name": "delegateAllocations",
          "type": "tuple[]"
        }
      ],
      "stateMutability": "view",
      "type": "function"
    },
    {
      "inputs": [],
      "name": "projectId",
      "outputs": [
        {
          "internalType": "uint256",
          "name": "",
          "type": "uint256"
        }
      ],
      "stateMutability": "view",
      "type": "function"
    },
    {
      "inputs": [
        {
          "components": [
            {
              "internalType": "contract IJBPaymentTerminal",
              "name": "terminal",
              "type": "address"
            },
            {
              "internalType": "address",
              "name": "holder",
              "type": "address"
            },
            {
              "internalType": "uint256",
              "name": "projectId",
              "type": "uint256"
            },
            {
              "internalType": "uint256",
              "name": "currentFundingCycleConfiguration",
              "type": "uint256"
            },
            {
              "internalType": "uint256",
              "name": "tokenCount",
              "type": "uint256"
            },
            {
              "internalType": "uint256",
              "name": "totalSupply",
              "type": "uint256"
            },
            {
              "internalType": "uint256",
              "name": "overflow",
              "type": "uint256"
            },
            {
              "components": [
                {
                  "internalType": "address",
                  "name": "token",
                  "type": "address"
                },
                {
                  "internalType": "uint256",
                  "name": "value",
                  "type": "uint256"
                },
                {
                  "internalType": "uint256",
                  "name": "decimals",
                  "type": "uint256"
                },
                {
                  "internalType": "uint256",
                  "name": "currency",
                  "type": "uint256"
                }
              ],
              "internalType": "struct JBTokenAmount",
              "name": "reclaimAmount",
              "type": "tuple"
            },
            {
              "internalType": "bool",
              "name": "useTotalOverflow",
              "type": "bool"
            },
            {
              "internalType": "uint256",
              "name": "redemptionRate",
              "type": "uint256"
            },
            {
              "internalType": "string",
              "name": "memo",
              "type": "string"
            },
            {
              "internalType": "bytes",
              "name": "metadata",
              "type": "bytes"
            }
          ],
          "internalType": "struct JBRedeemParamsData",
          "name": "_data",
          "type": "tuple"
        }
      ],
      "name": "redeemParams",
      "outputs": [
        {
          "internalType": "uint256",
          "name": "reclaimAmount",
          "type": "uint256"
        },
        {
          "internalType": "string",
          "name": "memo",
          "type": "string"
        },
        {
          "components": [
            {
              "internalType": "contract IJBRedemptionDelegate3_1_1",
              "name": "delegate",
              "type": "address"
            },
            {
              "internalType": "uint256",
              "name": "amount",
              "type": "uint256"
            },
            {
              "internalType": "bytes",
              "name": "metadata",
              "type": "bytes"
            }
          ],
          "internalType": "struct JBRedemptionDelegateAllocation3_1_1[]",
          "name": "delegateAllocations",
          "type": "tuple[]"
        }
      ],
      "stateMutability": "view",
      "type": "function"
    },
    {
      "inputs": [
        {
          "internalType": "uint256",
          "name": "index",
          "type": "uint256"
        }
      ],
      "name": "removeDataSource",
      "outputs": [],
      "stateMutability": "nonpayable",
      "type": "function"
    },
    {
      "inputs": [
        {
          "internalType": "bytes4",
          "name": "_interfaceId",
          "type": "bytes4"
        }
      ],
      "name": "supportsInterface",
      "outputs": [
        {
          "internalType": "bool",
          "name": "",
          "type": "bool"
        }
      ],
      "stateMutability": "view",
      "type": "function"
    }
  ],
  "bytecode": {
    "object": "0x608060405234801561001057600080fd5b506110c5806100206000396000f3fe6080604052600436106100dd5760003560e01c806382f4bd711161007f578063c41c2f2411610059578063c41c2f241461024c578063d46cf1711461026c578063d81a83361461029b578063f44515bb146102bb57600080fd5b806382f4bd71146101db578063a51cfd18146101fb578063bc04eba81461022a57600080fd5b80633fafa127116100bb5780633fafa12714610164578063446db033146101885780635aa6e675146101a85780636b204943146101c857600080fd5b806301ffc9a7146100e25780630bf46e591461011757806313e8e5911461012c575b600080fd5b3480156100ee57600080fd5b506101026100fd366004610afd565b6102d0565b60405190151581526020015b60405180910390f35b61012a610125366004610b2e565b610322565b005b34801561013857600080fd5b5061014c610147366004610b6a565b6103ed565b6040516001600160a01b03909116815260200161010e565b34801561017057600080fd5b5061017a60005481565b60405190815260200161010e565b34801561019457600080fd5b5061012a6101a3366004610ba8565b610417565b3480156101b457600080fd5b5060015461014c906001600160a01b031681565b61012a6101d6366004610bc5565b6104b9565b3480156101e757600080fd5b5061012a6101f6366004610c71565b61057c565b34801561020757600080fd5b5061021b610216366004610d7c565b610638565b60405161010e93929190610dfe565b34801561023657600080fd5b5061023f610738565b60405161010e9190610e9c565b34801561025857600080fd5b5060035461014c906001600160a01b031681565b34801561027857600080fd5b5061028c610287366004610ee9565b61079a565b60405161010e93929190610f25565b3480156102a757600080fd5b5061012a6102b6366004610b6a565b6109b7565b3480156102c757600080fd5b5060025461017a565b60006001600160e01b031982166371700c6960e01b148061030157506001600160e01b03198216636b20494360e01b145b8061031c57506001600160e01b03198216630bf46e5960e01b145b92915050565b341515806103a45750600354600054604051636e49181f60e01b815260048101919091523360248201526001600160a01b0390911690636e49181f90604401602060405180830381865afa15801561037e573d6000803e3d6000fd5b505050506040513d601f19601f820116820180604052508101906103a29190610fb1565b155b806103b55750600054816020013514155b156103ea5760405163dbd1cb8760e01b8152336004820152602082013560248201523460448201526064015b60405180910390fd5b50565b600281815481106103fd57600080fd5b6000918252602090912001546001600160a01b0316905081565b6001546001600160a01b031633146104675760405162461bcd60e51b815260206004820152601360248201527226bab9ba1031329023b7bb32b93730b731b29760691b60448201526064016103e1565b600280546001810182556000919091527f405787fa12a823e0f2b7631cc41b3ba8828b3321ca811111fa75cd3aa3bb5ace0180546001600160a01b0319166001600160a01b0392909216919091179055565b3415158061053b5750600354600054604051636e49181f60e01b815260048101919091523360248201526001600160a01b0390911690636e49181f90604401602060405180830381865afa158015610515573d6000803e3d6000fd5b505050506040513d601f19601f820116820180604052508101906105399190610fb1565b155b8061054c5750600054816020013514155b156103ea5760405163992405f760e01b8152336004820152602082013560248201523460448201526064016103e1565b6000541561058957600080fd5b6000838155600380546001600160a01b038086166001600160a01b031992831617909255602084015160018054919093169116179055815151905b81811015610631576002836000015182815181106105e4576105e4610fd3565b60209081029190910181015182546001810184556000938452919092200180546001600160a01b0319166001600160a01b039092169190911790558061062981610fff565b9150506105c4565b5050505050565b61010081013560608061064f6101a0850185611018565b8080601f0160208091040260200160405190810160405280939291908181526020018383808284376000920191909152509294506001925061068f915050565b6040519080825280602002602001820160405280156106dc57816020015b604080516060808201835260008083526020830152918101919091528152602001906001900390816106ad5790505b5090506040518060600160405280306001600160a01b0316815260200160008152602001604051806020016040528060008152508152508160008151811061072657610726610fd3565b60200260200101819052509193909250565b6060600280548060200260200160405190810160405280929190818152602001828054801561079057602002820191906000526020600020905b81546001600160a01b03168152600190910190602001808311610772575b5050505050905090565b60006060806000805b60025481101561087c576000600282815481106107c2576107c2610fd3565b600091825260209182902001546001600160a01b03169150819063babcc539906107f29060408b01908b01610ba8565b6040516001600160e01b031960e084901b1681526001600160a01b039091166004820152602401602060405180830381865afa158015610836573d6000803e3d6000fd5b505050506040513d601f19601f8201168201806040525081019061085a9190610fb1565b1561086957600192505061087c565b508061087481610fff565b9150506107a3565b50806108b7576108926040860160208701610ba8565b60405163a105efc760e01b81526001600160a01b0390911660048201526024016103e1565b61012085013593506108cd610160860186611018565b8080601f0160208091040260200160405190810160405280939291908181526020018383808284376000920191909152509295506001925061090d915050565b60405190808252806020026020018201604052801561095a57816020015b6040805160608082018352600080835260208301529181019190915281526020019060019003908161092b5790505b5091506040518060600160405280306001600160a01b031681526020016000815260200160405180602001604052806000815250815250826000815181106109a4576109a4610fd3565b6020026020010181905250509193909250565b6001546001600160a01b03163314610a075760405162461bcd60e51b815260206004820152601360248201527226bab9ba1031329023b7bb32b93730b731b29760691b60448201526064016103e1565b6002548110610a4d5760405162461bcd60e51b8152602060048201526012602482015271496e646578206f7574206f662072616e676560701b60448201526064016103e1565b60028054610a5d90600190611066565b81548110610a6d57610a6d610fd3565b600091825260209091200154600280546001600160a01b039092169183908110610a9957610a99610fd3565b9060005260206000200160006101000a8154816001600160a01b0302191690836001600160a01b031602179055506002805480610ad857610ad8611079565b600082815260209020810160001990810180546001600160a01b031916905501905550565b600060208284031215610b0f57600080fd5b81356001600160e01b031981168114610b2757600080fd5b9392505050565b600060208284031215610b4057600080fd5b813567ffffffffffffffff811115610b5757600080fd5b82016102008185031215610b2757600080fd5b600060208284031215610b7c57600080fd5b5035919050565b6001600160a01b03811681146103ea57600080fd5b8035610ba381610b83565b919050565b600060208284031215610bba57600080fd5b8135610b2781610b83565b600060208284031215610bd757600080fd5b813567ffffffffffffffff811115610bee57600080fd5b82016102208185031215610b2757600080fd5b634e487b7160e01b600052604160045260246000fd5b6040805190810167ffffffffffffffff81118282101715610c3a57610c3a610c01565b60405290565b604051601f8201601f1916810167ffffffffffffffff81118282101715610c6957610c69610c01565b604052919050565b600080600060608486031215610c8657600080fd5b83359250602080850135610c9981610b83565b9250604085013567ffffffffffffffff80821115610cb657600080fd5b9086019060408289031215610cca57600080fd5b610cd2610c17565b823582811115610ce157600080fd5b8301601f81018a13610cf257600080fd5b803583811115610d0457610d04610c01565b8060051b9350610d15868501610c40565b818152938201860193868101908c861115610d2f57600080fd5b928701925b85841015610d595783359250610d4983610b83565b8282529287019290870190610d34565b845250610d6a915050838501610b98565b84820152809450505050509250925092565b600060208284031215610d8e57600080fd5b813567ffffffffffffffff811115610da557600080fd5b82016101e08185031215610b2757600080fd5b6000815180845260005b81811015610dde57602081850181015186830182015201610dc2565b506000602082860101526020601f19601f83011685010191505092915050565b6000606085835260208181850152610e1882850187610db8565b6040858203818701528187518084528484019150848160051b850101858a0160005b83811015610e8a57868303601f19018552815180516001600160a01b0316845288810151898501528601518684018a9052610e778a850182610db8565b9589019593505090870190600101610e3a565b50909c9b505050505050505050505050565b6020808252825182820181905260009190848201906040850190845b81811015610edd5783516001600160a01b031683529284019291840191600101610eb8565b50909695505050505050565b600060208284031215610efb57600080fd5b813567ffffffffffffffff811115610f1257600080fd5b82016101a08185031215610b2757600080fd5b6000606085835260208181850152610f3f82850187610db8565b6040858203818701528187518084528484019150848160051b850101858a0160005b83811015610e8a57868303601f19018552815180516001600160a01b0316845288810151898501528601518684018a9052610f9e8a850182610db8565b9589019593505090870190600101610f61565b600060208284031215610fc357600080fd5b81518015158114610b2757600080fd5b634e487b7160e01b600052603260045260246000fd5b634e487b7160e01b600052601160045260246000fd5b60006001820161101157611011610fe9565b5060010190565b6000808335601e1984360301811261102f57600080fd5b83018035915067ffffffffffffffff82111561104a57600080fd5b60200191503681900382131561105f57600080fd5b9250929050565b8181038181111561031c5761031c610fe9565b634e487b7160e01b600052603160045260246000fdfea2646970667358221220fba3b92373508f8b1d63e4fcffd5ee238b490decaa3a1bba20b30576d9c1f17664736f6c63430008140033",
    "linkReferences": {}
  },
  "methodIdentifiers": {
    "addDataSource(address)": "446db033",
    "dataSources(uint256)": "13e8e591",
    "didPay((address,uint256,uint256,(address,uint256,uint256,uint256),(address,uint256,uint256,uint256),uint256,address,bool,string,bytes,bytes))": "6b204943",
    "didRedeem((address,uint256,uint256,uint256,(address,uint256,uint256,uint256),(address,uint256,uint256,uint256),address,string,bytes,bytes))": "0bf46e59",
    "directory()": "c41c2f24",
    "getDataSources()": "bc04eba8",
    "getDataSourcesLength()": "f44515bb",
    "governance()": "5aa6e675",
    "initialize(uint256,address,(address[],address))": "82f4bd71",
    "payParams((address,address,(address,uint256,uint256,uint256),uint256,uint256,address,uint256,uint256,string,bytes))": "d46cf171",
    "projectId()": "3fafa127",
    "redeemParams((address,address,uint256,uint256,uint256,uint256,uint256,(address,uint256,uint256,uint256),bool,uint256,string,bytes))": "a51cfd18",
    "removeDataSource(uint256)": "d81a8336",
    "supportsInterface(bytes4)": "01ffc9a7"
  },
  "id": 137
}