{
  "abi": [
    {
      "inputs": [
        {
          "internalType": "contract IJBOperatorStore",
          "name": "_operatorStore",
          "type": "address"
        },
        {
          "internalType": "contract IJBProjects",
          "name": "_projects",
          "type": "address"
        },
        {
          "internalType": "contract IJBDirectory",
          "name": "_directory",
          "type": "address"
        },
        {
          "internalType": "contract IJBFundingCycleStore",
          "name": "_fundingCycleStore",
          "type": "address"
        },
        {
          "internalType": "contract IJBTokenStore",
          "name": "_tokenStore",
          "type": "address"
        },
        {
          "internalType": "contract IJBSplitsStore",
          "name": "_splitsStore",
          "type": "address"
        },
        {
          "internalType": "contract IJBFundAccessConstraintsStore",
          "name": "_fundAccessConstraintsStore",
          "type": "address"
        }
      ],
      "stateMutability": "nonpayable",
      "type": "constructor"
    },
    {
      "inputs": [],
      "name": "BURN_PAUSED_AND_SENDER_NOT_VALID_TERMINAL_DELEGATE",
      "type": "error"
    },
    {
      "inputs": [],
      "name": "FUNDING_CYCLE_ALREADY_LAUNCHED",
      "type": "error"
    },
    {
      "inputs": [],
      "name": "INVALID_BALLOT_REDEMPTION_RATE",
      "type": "error"
    },
    {
      "inputs": [],
      "name": "INVALID_REDEMPTION_RATE",
      "type": "error"
    },
    {
      "inputs": [],
      "name": "INVALID_RESERVED_RATE",
      "type": "error"
    },
    {
      "inputs": [],
      "name": "MIGRATION_NOT_ALLOWED",
      "type": "error"
    },
    {
      "inputs": [],
      "name": "MINT_NOT_ALLOWED_AND_NOT_TERMINAL_DELEGATE",
      "type": "error"
    },
    {
      "inputs": [],
      "name": "NOT_CURRENT_CONTROLLER",
      "type": "error"
    },
    {
      "inputs": [],
      "name": "NO_BURNABLE_TOKENS",
      "type": "error"
    },
    {
      "inputs": [
        {
          "internalType": "uint256",
          "name": "prod1",
          "type": "uint256"
        },
        {
          "internalType": "uint256",
          "name": "denominator",
          "type": "uint256"
        }
      ],
      "name": "PRBMath__MulDivOverflow",
      "type": "error"
    },
    {
      "inputs": [],
      "name": "UNAUTHORIZED",
      "type": "error"
    },
    {
      "inputs": [],
      "name": "ZERO_TOKENS_TO_MINT",
      "type": "error"
    },
    {
      "anonymous": false,
      "inputs": [
        {
          "indexed": true,
          "internalType": "address",
          "name": "holder",
          "type": "address"
        },
        {
          "indexed": true,
          "internalType": "uint256",
          "name": "projectId",
          "type": "uint256"
        },
        {
          "indexed": false,
          "internalType": "uint256",
          "name": "tokenCount",
          "type": "uint256"
        },
        {
          "indexed": false,
          "internalType": "string",
          "name": "memo",
          "type": "string"
        },
        {
          "indexed": false,
          "internalType": "address",
          "name": "caller",
          "type": "address"
        }
      ],
      "name": "BurnTokens",
      "type": "event"
    },
    {
      "anonymous": false,
      "inputs": [
        {
          "indexed": true,
          "internalType": "uint256",
          "name": "fundingCycleConfiguration",
          "type": "uint256"
        },
        {
          "indexed": true,
          "internalType": "uint256",
          "name": "fundingCycleNumber",
          "type": "uint256"
        },
        {
          "indexed": true,
          "internalType": "uint256",
          "name": "projectId",
          "type": "uint256"
        },
        {
          "indexed": false,
          "internalType": "address",
          "name": "beneficiary",
          "type": "address"
        },
        {
          "indexed": false,
          "internalType": "uint256",
          "name": "tokenCount",
          "type": "uint256"
        },
        {
          "indexed": false,
          "internalType": "uint256",
          "name": "beneficiaryTokenCount",
          "type": "uint256"
        },
        {
          "indexed": false,
          "internalType": "string",
          "name": "memo",
          "type": "string"
        },
        {
          "indexed": false,
          "internalType": "address",
          "name": "caller",
          "type": "address"
        }
      ],
      "name": "DistributeReservedTokens",
      "type": "event"
    },
    {
      "anonymous": false,
      "inputs": [
        {
          "indexed": true,
          "internalType": "uint256",
          "name": "projectId",
          "type": "uint256"
        },
        {
          "indexed": true,
          "internalType": "uint256",
          "name": "domain",
          "type": "uint256"
        },
        {
          "indexed": true,
          "internalType": "uint256",
          "name": "group",
          "type": "uint256"
        },
        {
          "components": [
            {
              "internalType": "bool",
              "name": "preferClaimed",
              "type": "bool"
            },
            {
              "internalType": "bool",
              "name": "preferAddToBalance",
              "type": "bool"
            },
            {
              "internalType": "uint256",
              "name": "percent",
              "type": "uint256"
            },
            {
              "internalType": "uint256",
              "name": "projectId",
              "type": "uint256"
            },
            {
              "internalType": "address payable",
              "name": "beneficiary",
              "type": "address"
            },
            {
              "internalType": "uint256",
              "name": "lockedUntil",
              "type": "uint256"
            },
            {
              "internalType": "contract IJBSplitAllocator",
              "name": "allocator",
              "type": "address"
            }
          ],
          "indexed": false,
          "internalType": "struct JBSplit",
          "name": "split",
          "type": "tuple"
        },
        {
          "indexed": false,
          "internalType": "uint256",
          "name": "tokenCount",
          "type": "uint256"
        },
        {
          "indexed": false,
          "internalType": "address",
          "name": "caller",
          "type": "address"
        }
      ],
      "name": "DistributeToReservedTokenSplit",
      "type": "event"
    },
    {
      "anonymous": false,
      "inputs": [
        {
          "indexed": false,
          "internalType": "uint256",
          "name": "configuration",
          "type": "uint256"
        },
        {
          "indexed": false,
          "internalType": "uint256",
          "name": "projectId",
          "type": "uint256"
        },
        {
          "indexed": false,
          "internalType": "string",
          "name": "memo",
          "type": "string"
        },
        {
          "indexed": false,
          "internalType": "address",
          "name": "caller",
          "type": "address"
        }
      ],
      "name": "LaunchFundingCycles",
      "type": "event"
    },
    {
      "anonymous": false,
      "inputs": [
        {
          "indexed": false,
          "internalType": "uint256",
          "name": "configuration",
          "type": "uint256"
        },
        {
          "indexed": false,
          "internalType": "uint256",
          "name": "projectId",
          "type": "uint256"
        },
        {
          "indexed": false,
          "internalType": "string",
          "name": "memo",
          "type": "string"
        },
        {
          "indexed": false,
          "internalType": "address",
          "name": "caller",
          "type": "address"
        }
      ],
      "name": "LaunchProject",
      "type": "event"
    },
    {
      "anonymous": false,
      "inputs": [
        {
          "indexed": true,
          "internalType": "uint256",
          "name": "projectId",
          "type": "uint256"
        },
        {
          "indexed": false,
          "internalType": "contract IJBMigratable",
          "name": "to",
          "type": "address"
        },
        {
          "indexed": false,
          "internalType": "address",
          "name": "caller",
          "type": "address"
        }
      ],
      "name": "Migrate",
      "type": "event"
    },
    {
      "anonymous": false,
      "inputs": [
        {
          "indexed": true,
          "internalType": "address",
          "name": "beneficiary",
          "type": "address"
        },
        {
          "indexed": true,
          "internalType": "uint256",
          "name": "projectId",
          "type": "uint256"
        },
        {
          "indexed": false,
          "internalType": "uint256",
          "name": "tokenCount",
          "type": "uint256"
        },
        {
          "indexed": false,
          "internalType": "uint256",
          "name": "beneficiaryTokenCount",
          "type": "uint256"
        },
        {
          "indexed": false,
          "internalType": "string",
          "name": "memo",
          "type": "string"
        },
        {
          "indexed": false,
          "internalType": "uint256",
          "name": "reservedRate",
          "type": "uint256"
        },
        {
          "indexed": false,
          "internalType": "address",
          "name": "caller",
          "type": "address"
        }
      ],
      "name": "MintTokens",
      "type": "event"
    },
    {
      "anonymous": false,
      "inputs": [
        {
          "indexed": true,
          "internalType": "uint256",
          "name": "projectId",
          "type": "uint256"
        },
        {
          "indexed": false,
          "internalType": "address",
          "name": "from",
          "type": "address"
        },
        {
          "indexed": false,
          "internalType": "address",
          "name": "caller",
          "type": "address"
        }
      ],
      "name": "PrepMigration",
      "type": "event"
    },
    {
      "anonymous": false,
      "inputs": [
        {
          "indexed": false,
          "internalType": "uint256",
          "name": "configuration",
          "type": "uint256"
        },
        {
          "indexed": false,
          "internalType": "uint256",
          "name": "projectId",
          "type": "uint256"
        },
        {
          "indexed": false,
          "internalType": "string",
          "name": "memo",
          "type": "string"
        },
        {
          "indexed": false,
          "internalType": "address",
          "name": "caller",
          "type": "address"
        }
      ],
      "name": "ReconfigureFundingCycles",
      "type": "event"
    },
    {
      "inputs": [
        {
          "internalType": "address",
          "name": "_holder",
          "type": "address"
        },
        {
          "internalType": "uint256",
          "name": "_projectId",
          "type": "uint256"
        },
        {
          "internalType": "uint256",
          "name": "_tokenCount",
          "type": "uint256"
        },
        {
          "internalType": "string",
          "name": "_memo",
          "type": "string"
        },
        {
          "internalType": "bool",
          "name": "_preferClaimedTokens",
          "type": "bool"
        }
      ],
      "name": "burnTokensOf",
      "outputs": [],
      "stateMutability": "nonpayable",
      "type": "function"
    },
    {
      "inputs": [
        {
          "internalType": "uint256",
          "name": "_projectId",
          "type": "uint256"
        }
      ],
      "name": "currentFundingCycleOf",
      "outputs": [
        {
          "components": [
            {
              "internalType": "uint256",
              "name": "number",
              "type": "uint256"
            },
            {
              "internalType": "uint256",
              "name": "configuration",
              "type": "uint256"
            },
            {
              "internalType": "uint256",
              "name": "basedOn",
              "type": "uint256"
            },
            {
              "internalType": "uint256",
              "name": "start",
              "type": "uint256"
            },
            {
              "internalType": "uint256",
              "name": "duration",
              "type": "uint256"
            },
            {
              "internalType": "uint256",
              "name": "weight",
              "type": "uint256"
            },
            {
              "internalType": "uint256",
              "name": "discountRate",
              "type": "uint256"
            },
            {
              "internalType": "contract IJBFundingCycleBallot",
              "name": "ballot",
              "type": "address"
            },
            {
              "internalType": "uint256",
              "name": "metadata",
              "type": "uint256"
            }
          ],
          "internalType": "struct JBFundingCycle",
          "name": "fundingCycle",
          "type": "tuple"
        },
        {
          "components": [
            {
              "components": [
                {
                  "internalType": "bool",
                  "name": "allowSetTerminals",
                  "type": "bool"
                },
                {
                  "internalType": "bool",
                  "name": "allowSetController",
                  "type": "bool"
                },
                {
                  "internalType": "bool",
                  "name": "pauseTransfers",
                  "type": "bool"
                }
              ],
              "internalType": "struct JBGlobalFundingCycleMetadata",
              "name": "global",
              "type": "tuple"
            },
            {
              "internalType": "uint256",
              "name": "reservedRate",
              "type": "uint256"
            },
            {
              "internalType": "uint256",
              "name": "redemptionRate",
              "type": "uint256"
            },
            {
              "internalType": "uint256",
              "name": "ballotRedemptionRate",
              "type": "uint256"
            },
            {
              "internalType": "bool",
              "name": "pausePay",
              "type": "bool"
            },
            {
              "internalType": "bool",
              "name": "pauseDistributions",
              "type": "bool"
            },
            {
              "internalType": "bool",
              "name": "pauseRedeem",
              "type": "bool"
            },
            {
              "internalType": "bool",
              "name": "pauseBurn",
              "type": "bool"
            },
            {
              "internalType": "bool",
              "name": "allowMinting",
              "type": "bool"
            },
            {
              "internalType": "bool",
              "name": "allowTerminalMigration",
              "type": "bool"
            },
            {
              "internalType": "bool",
              "name": "allowControllerMigration",
              "type": "bool"
            },
            {
              "internalType": "bool",
              "name": "holdFees",
              "type": "bool"
            },
            {
              "internalType": "bool",
              "name": "preferClaimedTokenOverride",
              "type": "bool"
            },
            {
              "internalType": "bool",
              "name": "useTotalOverflowForRedemptions",
              "type": "bool"
            },
            {
              "internalType": "bool",
              "name": "useDataSourceForPay",
              "type": "bool"
            },
            {
              "internalType": "bool",
              "name": "useDataSourceForRedeem",
              "type": "bool"
            },
            {
              "internalType": "address",
              "name": "dataSource",
              "type": "address"
            },
            {
              "internalType": "uint256",
              "name": "metadata",
              "type": "uint256"
            }
          ],
          "internalType": "struct JBFundingCycleMetadata",
          "name": "metadata",
          "type": "tuple"
        }
      ],
      "stateMutability": "view",
      "type": "function"
    },
    {
      "inputs": [],
      "name": "directory",
      "outputs": [
        {
          "internalType": "contract IJBDirectory",
          "name": "",
          "type": "address"
        }
      ],
      "stateMutability": "view",
      "type": "function"
    },
    {
      "inputs": [
        {
          "internalType": "uint256",
          "name": "_projectId",
          "type": "uint256"
        },
        {
          "internalType": "string",
          "name": "_memo",
          "type": "string"
        }
      ],
      "name": "distributeReservedTokensOf",
      "outputs": [
        {
          "internalType": "uint256",
          "name": "",
          "type": "uint256"
        }
      ],
      "stateMutability": "nonpayable",
      "type": "function"
    },
    {
      "inputs": [],
      "name": "fundAccessConstraintsStore",
      "outputs": [
        {
          "internalType": "contract IJBFundAccessConstraintsStore",
          "name": "",
          "type": "address"
        }
      ],
      "stateMutability": "view",
      "type": "function"
    },
    {
      "inputs": [],
      "name": "fundingCycleStore",
      "outputs": [
        {
          "internalType": "contract IJBFundingCycleStore",
          "name": "",
          "type": "address"
        }
      ],
      "stateMutability": "view",
      "type": "function"
    },
    {
      "inputs": [
        {
          "internalType": "uint256",
          "name": "_projectId",
          "type": "uint256"
        },
        {
          "internalType": "uint256",
          "name": "_configuration",
          "type": "uint256"
        }
      ],
      "name": "getFundingCycleOf",
      "outputs": [
        {
          "components": [
            {
              "internalType": "uint256",
              "name": "number",
              "type": "uint256"
            },
            {
              "internalType": "uint256",
              "name": "configuration",
              "type": "uint256"
            },
            {
              "internalType": "uint256",
              "name": "basedOn",
              "type": "uint256"
            },
            {
              "internalType": "uint256",
              "name": "start",
              "type": "uint256"
            },
            {
              "internalType": "uint256",
              "name": "duration",
              "type": "uint256"
            },
            {
              "internalType": "uint256",
              "name": "weight",
              "type": "uint256"
            },
            {
              "internalType": "uint256",
              "name": "discountRate",
              "type": "uint256"
            },
            {
              "internalType": "contract IJBFundingCycleBallot",
              "name": "ballot",
              "type": "address"
            },
            {
              "internalType": "uint256",
              "name": "metadata",
              "type": "uint256"
            }
          ],
          "internalType": "struct JBFundingCycle",
          "name": "fundingCycle",
          "type": "tuple"
        },
        {
          "components": [
            {
              "components": [
                {
                  "internalType": "bool",
                  "name": "allowSetTerminals",
                  "type": "bool"
                },
                {
                  "internalType": "bool",
                  "name": "allowSetController",
                  "type": "bool"
                },
                {
                  "internalType": "bool",
                  "name": "pauseTransfers",
                  "type": "bool"
                }
              ],
              "internalType": "struct JBGlobalFundingCycleMetadata",
              "name": "global",
              "type": "tuple"
            },
            {
              "internalType": "uint256",
              "name": "reservedRate",
              "type": "uint256"
            },
            {
              "internalType": "uint256",
              "name": "redemptionRate",
              "type": "uint256"
            },
            {
              "internalType": "uint256",
              "name": "ballotRedemptionRate",
              "type": "uint256"
            },
            {
              "internalType": "bool",
              "name": "pausePay",
              "type": "bool"
            },
            {
              "internalType": "bool",
              "name": "pauseDistributions",
              "type": "bool"
            },
            {
              "internalType": "bool",
              "name": "pauseRedeem",
              "type": "bool"
            },
            {
              "internalType": "bool",
              "name": "pauseBurn",
              "type": "bool"
            },
            {
              "internalType": "bool",
              "name": "allowMinting",
              "type": "bool"
            },
            {
              "internalType": "bool",
              "name": "allowTerminalMigration",
              "type": "bool"
            },
            {
              "internalType": "bool",
              "name": "allowControllerMigration",
              "type": "bool"
            },
            {
              "internalType": "bool",
              "name": "holdFees",
              "type": "bool"
            },
            {
              "internalType": "bool",
              "name": "preferClaimedTokenOverride",
              "type": "bool"
            },
            {
              "internalType": "bool",
              "name": "useTotalOverflowForRedemptions",
              "type": "bool"
            },
            {
              "internalType": "bool",
              "name": "useDataSourceForPay",
              "type": "bool"
            },
            {
              "internalType": "bool",
              "name": "useDataSourceForRedeem",
              "type": "bool"
            },
            {
              "internalType": "address",
              "name": "dataSource",
              "type": "address"
            },
            {
              "internalType": "uint256",
              "name": "metadata",
              "type": "uint256"
            }
          ],
          "internalType": "struct JBFundingCycleMetadata",
          "name": "metadata",
          "type": "tuple"
        }
      ],
      "stateMutability": "view",
      "type": "function"
    },
    {
      "inputs": [
        {
          "internalType": "uint256",
          "name": "_projectId",
          "type": "uint256"
        }
      ],
      "name": "latestConfiguredFundingCycleOf",
      "outputs": [
        {
          "components": [
            {
              "internalType": "uint256",
              "name": "number",
              "type": "uint256"
            },
            {
              "internalType": "uint256",
              "name": "configuration",
              "type": "uint256"
            },
            {
              "internalType": "uint256",
              "name": "basedOn",
              "type": "uint256"
            },
            {
              "internalType": "uint256",
              "name": "start",
              "type": "uint256"
            },
            {
              "internalType": "uint256",
              "name": "duration",
              "type": "uint256"
            },
            {
              "internalType": "uint256",
              "name": "weight",
              "type": "uint256"
            },
            {
              "internalType": "uint256",
              "name": "discountRate",
              "type": "uint256"
            },
            {
              "internalType": "contract IJBFundingCycleBallot",
              "name": "ballot",
              "type": "address"
            },
            {
              "internalType": "uint256",
              "name": "metadata",
              "type": "uint256"
            }
          ],
          "internalType": "struct JBFundingCycle",
          "name": "fundingCycle",
          "type": "tuple"
        },
        {
          "components": [
            {
              "components": [
                {
                  "internalType": "bool",
                  "name": "allowSetTerminals",
                  "type": "bool"
                },
                {
                  "internalType": "bool",
                  "name": "allowSetController",
                  "type": "bool"
                },
                {
                  "internalType": "bool",
                  "name": "pauseTransfers",
                  "type": "bool"
                }
              ],
              "internalType": "struct JBGlobalFundingCycleMetadata",
              "name": "global",
              "type": "tuple"
            },
            {
              "internalType": "uint256",
              "name": "reservedRate",
              "type": "uint256"
            },
            {
              "internalType": "uint256",
              "name": "redemptionRate",
              "type": "uint256"
            },
            {
              "internalType": "uint256",
              "name": "ballotRedemptionRate",
              "type": "uint256"
            },
            {
              "internalType": "bool",
              "name": "pausePay",
              "type": "bool"
            },
            {
              "internalType": "bool",
              "name": "pauseDistributions",
              "type": "bool"
            },
            {
              "internalType": "bool",
              "name": "pauseRedeem",
              "type": "bool"
            },
            {
              "internalType": "bool",
              "name": "pauseBurn",
              "type": "bool"
            },
            {
              "internalType": "bool",
              "name": "allowMinting",
              "type": "bool"
            },
            {
              "internalType": "bool",
              "name": "allowTerminalMigration",
              "type": "bool"
            },
            {
              "internalType": "bool",
              "name": "allowControllerMigration",
              "type": "bool"
            },
            {
              "internalType": "bool",
              "name": "holdFees",
              "type": "bool"
            },
            {
              "internalType": "bool",
              "name": "preferClaimedTokenOverride",
              "type": "bool"
            },
            {
              "internalType": "bool",
              "name": "useTotalOverflowForRedemptions",
              "type": "bool"
            },
            {
              "internalType": "bool",
              "name": "useDataSourceForPay",
              "type": "bool"
            },
            {
              "internalType": "bool",
              "name": "useDataSourceForRedeem",
              "type": "bool"
            },
            {
              "internalType": "address",
              "name": "dataSource",
              "type": "address"
            },
            {
              "internalType": "uint256",
              "name": "metadata",
              "type": "uint256"
            }
          ],
          "internalType": "struct JBFundingCycleMetadata",
          "name": "metadata",
          "type": "tuple"
        },
        {
          "internalType": "enum JBBallotState",
          "name": "ballotState",
          "type": "uint8"
        }
      ],
      "stateMutability": "view",
      "type": "function"
    },
    {
      "inputs": [
        {
          "internalType": "uint256",
          "name": "_projectId",
          "type": "uint256"
        },
        {
          "components": [
            {
              "internalType": "uint256",
              "name": "duration",
              "type": "uint256"
            },
            {
              "internalType": "uint256",
              "name": "weight",
              "type": "uint256"
            },
            {
              "internalType": "uint256",
              "name": "discountRate",
              "type": "uint256"
            },
            {
              "internalType": "contract IJBFundingCycleBallot",
              "name": "ballot",
              "type": "address"
            }
          ],
          "internalType": "struct JBFundingCycleData",
          "name": "_data",
          "type": "tuple"
        },
        {
          "components": [
            {
              "components": [
                {
                  "internalType": "bool",
                  "name": "allowSetTerminals",
                  "type": "bool"
                },
                {
                  "internalType": "bool",
                  "name": "allowSetController",
                  "type": "bool"
                },
                {
                  "internalType": "bool",
                  "name": "pauseTransfers",
                  "type": "bool"
                }
              ],
              "internalType": "struct JBGlobalFundingCycleMetadata",
              "name": "global",
              "type": "tuple"
            },
            {
              "internalType": "uint256",
              "name": "reservedRate",
              "type": "uint256"
            },
            {
              "internalType": "uint256",
              "name": "redemptionRate",
              "type": "uint256"
            },
            {
              "internalType": "uint256",
              "name": "ballotRedemptionRate",
              "type": "uint256"
            },
            {
              "internalType": "bool",
              "name": "pausePay",
              "type": "bool"
            },
            {
              "internalType": "bool",
              "name": "pauseDistributions",
              "type": "bool"
            },
            {
              "internalType": "bool",
              "name": "pauseRedeem",
              "type": "bool"
            },
            {
              "internalType": "bool",
              "name": "pauseBurn",
              "type": "bool"
            },
            {
              "internalType": "bool",
              "name": "allowMinting",
              "type": "bool"
            },
            {
              "internalType": "bool",
              "name": "allowTerminalMigration",
              "type": "bool"
            },
            {
              "internalType": "bool",
              "name": "allowControllerMigration",
              "type": "bool"
            },
            {
              "internalType": "bool",
              "name": "holdFees",
              "type": "bool"
            },
            {
              "internalType": "bool",
              "name": "preferClaimedTokenOverride",
              "type": "bool"
            },
            {
              "internalType": "bool",
              "name": "useTotalOverflowForRedemptions",
              "type": "bool"
            },
            {
              "internalType": "bool",
              "name": "useDataSourceForPay",
              "type": "bool"
            },
            {
              "internalType": "bool",
              "name": "useDataSourceForRedeem",
              "type": "bool"
            },
            {
              "internalType": "address",
              "name": "dataSource",
              "type": "address"
            },
            {
              "internalType": "uint256",
              "name": "metadata",
              "type": "uint256"
            }
          ],
          "internalType": "struct JBFundingCycleMetadata",
          "name": "_metadata",
          "type": "tuple"
        },
        {
          "internalType": "uint256",
          "name": "_mustStartAtOrAfter",
          "type": "uint256"
        },
        {
          "components": [
            {
              "internalType": "uint256",
              "name": "group",
              "type": "uint256"
            },
            {
              "components": [
                {
                  "internalType": "bool",
                  "name": "preferClaimed",
                  "type": "bool"
                },
                {
                  "internalType": "bool",
                  "name": "preferAddToBalance",
                  "type": "bool"
                },
                {
                  "internalType": "uint256",
                  "name": "percent",
                  "type": "uint256"
                },
                {
                  "internalType": "uint256",
                  "name": "projectId",
                  "type": "uint256"
                },
                {
                  "internalType": "address payable",
                  "name": "beneficiary",
                  "type": "address"
                },
                {
                  "internalType": "uint256",
                  "name": "lockedUntil",
                  "type": "uint256"
                },
                {
                  "internalType": "contract IJBSplitAllocator",
                  "name": "allocator",
                  "type": "address"
                }
              ],
              "internalType": "struct JBSplit[]",
              "name": "splits",
              "type": "tuple[]"
            }
          ],
          "internalType": "struct JBGroupedSplits[]",
          "name": "_groupedSplits",
          "type": "tuple[]"
        },
        {
          "components": [
            {
              "internalType": "contract IJBPaymentTerminal",
              "name": "terminal",
              "type": "address"
            },
            {
              "internalType": "address",
              "name": "token",
              "type": "address"
            },
            {
              "internalType": "uint256",
              "name": "distributionLimit",
              "type": "uint256"
            },
            {
              "internalType": "uint256",
              "name": "distributionLimitCurrency",
              "type": "uint256"
            },
            {
              "internalType": "uint256",
              "name": "overflowAllowance",
              "type": "uint256"
            },
            {
              "internalType": "uint256",
              "name": "overflowAllowanceCurrency",
              "type": "uint256"
            }
          ],
          "internalType": "struct JBFundAccessConstraints[]",
          "name": "_fundAccessConstraints",
          "type": "tuple[]"
        },
        {
          "internalType": "contract IJBPaymentTerminal[]",
          "name": "_terminals",
          "type": "address[]"
        },
        {
          "internalType": "string",
          "name": "_memo",
          "type": "string"
        }
      ],
      "name": "launchFundingCyclesFor",
      "outputs": [
        {
          "internalType": "uint256",
          "name": "configuration",
          "type": "uint256"
        }
      ],
      "stateMutability": "nonpayable",
      "type": "function"
    },
    {
      "inputs": [
        {
          "internalType": "address",
          "name": "_owner",
          "type": "address"
        },
        {
          "components": [
            {
              "internalType": "string",
              "name": "content",
              "type": "string"
            },
            {
              "internalType": "uint256",
              "name": "domain",
              "type": "uint256"
            }
          ],
          "internalType": "struct JBProjectMetadata",
          "name": "_projectMetadata",
          "type": "tuple"
        },
        {
          "components": [
            {
              "internalType": "uint256",
              "name": "duration",
              "type": "uint256"
            },
            {
              "internalType": "uint256",
              "name": "weight",
              "type": "uint256"
            },
            {
              "internalType": "uint256",
              "name": "discountRate",
              "type": "uint256"
            },
            {
              "internalType": "contract IJBFundingCycleBallot",
              "name": "ballot",
              "type": "address"
            }
          ],
          "internalType": "struct JBFundingCycleData",
          "name": "_data",
          "type": "tuple"
        },
        {
          "components": [
            {
              "components": [
                {
                  "internalType": "bool",
                  "name": "allowSetTerminals",
                  "type": "bool"
                },
                {
                  "internalType": "bool",
                  "name": "allowSetController",
                  "type": "bool"
                },
                {
                  "internalType": "bool",
                  "name": "pauseTransfers",
                  "type": "bool"
                }
              ],
              "internalType": "struct JBGlobalFundingCycleMetadata",
              "name": "global",
              "type": "tuple"
            },
            {
              "internalType": "uint256",
              "name": "reservedRate",
              "type": "uint256"
            },
            {
              "internalType": "uint256",
              "name": "redemptionRate",
              "type": "uint256"
            },
            {
              "internalType": "uint256",
              "name": "ballotRedemptionRate",
              "type": "uint256"
            },
            {
              "internalType": "bool",
              "name": "pausePay",
              "type": "bool"
            },
            {
              "internalType": "bool",
              "name": "pauseDistributions",
              "type": "bool"
            },
            {
              "internalType": "bool",
              "name": "pauseRedeem",
              "type": "bool"
            },
            {
              "internalType": "bool",
              "name": "pauseBurn",
              "type": "bool"
            },
            {
              "internalType": "bool",
              "name": "allowMinting",
              "type": "bool"
            },
            {
              "internalType": "bool",
              "name": "allowTerminalMigration",
              "type": "bool"
            },
            {
              "internalType": "bool",
              "name": "allowControllerMigration",
              "type": "bool"
            },
            {
              "internalType": "bool",
              "name": "holdFees",
              "type": "bool"
            },
            {
              "internalType": "bool",
              "name": "preferClaimedTokenOverride",
              "type": "bool"
            },
            {
              "internalType": "bool",
              "name": "useTotalOverflowForRedemptions",
              "type": "bool"
            },
            {
              "internalType": "bool",
              "name": "useDataSourceForPay",
              "type": "bool"
            },
            {
              "internalType": "bool",
              "name": "useDataSourceForRedeem",
              "type": "bool"
            },
            {
              "internalType": "address",
              "name": "dataSource",
              "type": "address"
            },
            {
              "internalType": "uint256",
              "name": "metadata",
              "type": "uint256"
            }
          ],
          "internalType": "struct JBFundingCycleMetadata",
          "name": "_metadata",
          "type": "tuple"
        },
        {
          "internalType": "uint256",
          "name": "_mustStartAtOrAfter",
          "type": "uint256"
        },
        {
          "components": [
            {
              "internalType": "uint256",
              "name": "group",
              "type": "uint256"
            },
            {
              "components": [
                {
                  "internalType": "bool",
                  "name": "preferClaimed",
                  "type": "bool"
                },
                {
                  "internalType": "bool",
                  "name": "preferAddToBalance",
                  "type": "bool"
                },
                {
                  "internalType": "uint256",
                  "name": "percent",
                  "type": "uint256"
                },
                {
                  "internalType": "uint256",
                  "name": "projectId",
                  "type": "uint256"
                },
                {
                  "internalType": "address payable",
                  "name": "beneficiary",
                  "type": "address"
                },
                {
                  "internalType": "uint256",
                  "name": "lockedUntil",
                  "type": "uint256"
                },
                {
                  "internalType": "contract IJBSplitAllocator",
                  "name": "allocator",
                  "type": "address"
                }
              ],
              "internalType": "struct JBSplit[]",
              "name": "splits",
              "type": "tuple[]"
            }
          ],
          "internalType": "struct JBGroupedSplits[]",
          "name": "_groupedSplits",
          "type": "tuple[]"
        },
        {
          "components": [
            {
              "internalType": "contract IJBPaymentTerminal",
              "name": "terminal",
              "type": "address"
            },
            {
              "internalType": "address",
              "name": "token",
              "type": "address"
            },
            {
              "internalType": "uint256",
              "name": "distributionLimit",
              "type": "uint256"
            },
            {
              "internalType": "uint256",
              "name": "distributionLimitCurrency",
              "type": "uint256"
            },
            {
              "internalType": "uint256",
              "name": "overflowAllowance",
              "type": "uint256"
            },
            {
              "internalType": "uint256",
              "name": "overflowAllowanceCurrency",
              "type": "uint256"
            }
          ],
          "internalType": "struct JBFundAccessConstraints[]",
          "name": "_fundAccessConstraints",
          "type": "tuple[]"
        },
        {
          "internalType": "contract IJBPaymentTerminal[]",
          "name": "_terminals",
          "type": "address[]"
        },
        {
          "internalType": "string",
          "name": "_memo",
          "type": "string"
        }
      ],
      "name": "launchProjectFor",
      "outputs": [
        {
          "internalType": "uint256",
          "name": "projectId",
          "type": "uint256"
        }
      ],
      "stateMutability": "nonpayable",
      "type": "function"
    },
    {
      "inputs": [
        {
          "internalType": "uint256",
          "name": "_projectId",
          "type": "uint256"
        },
        {
          "internalType": "contract IJBMigratable",
          "name": "_to",
          "type": "address"
        }
      ],
      "name": "migrate",
      "outputs": [],
      "stateMutability": "nonpayable",
      "type": "function"
    },
    {
      "inputs": [
        {
          "internalType": "uint256",
          "name": "_projectId",
          "type": "uint256"
        },
        {
          "internalType": "uint256",
          "name": "_tokenCount",
          "type": "uint256"
        },
        {
          "internalType": "address",
          "name": "_beneficiary",
          "type": "address"
        },
        {
          "internalType": "string",
          "name": "_memo",
          "type": "string"
        },
        {
          "internalType": "bool",
          "name": "_preferClaimedTokens",
          "type": "bool"
        },
        {
          "internalType": "bool",
          "name": "_useReservedRate",
          "type": "bool"
        }
      ],
      "name": "mintTokensOf",
      "outputs": [
        {
          "internalType": "uint256",
          "name": "beneficiaryTokenCount",
          "type": "uint256"
        }
      ],
      "stateMutability": "nonpayable",
      "type": "function"
    },
    {
      "inputs": [],
      "name": "operatorStore",
      "outputs": [
        {
          "internalType": "contract IJBOperatorStore",
          "name": "",
          "type": "address"
        }
      ],
      "stateMutability": "view",
      "type": "function"
    },
    {
      "inputs": [
        {
          "internalType": "uint256",
          "name": "_projectId",
          "type": "uint256"
        },
        {
          "internalType": "address",
          "name": "_from",
          "type": "address"
        }
      ],
      "name": "prepForMigrationOf",
      "outputs": [],
      "stateMutability": "nonpayable",
      "type": "function"
    },
    {
      "inputs": [],
      "name": "projects",
      "outputs": [
        {
          "internalType": "contract IJBProjects",
          "name": "",
          "type": "address"
        }
      ],
      "stateMutability": "view",
      "type": "function"
    },
    {
      "inputs": [
        {
          "internalType": "uint256",
          "name": "_projectId",
          "type": "uint256"
        }
      ],
      "name": "queuedFundingCycleOf",
      "outputs": [
        {
          "components": [
            {
              "internalType": "uint256",
              "name": "number",
              "type": "uint256"
            },
            {
              "internalType": "uint256",
              "name": "configuration",
              "type": "uint256"
            },
            {
              "internalType": "uint256",
              "name": "basedOn",
              "type": "uint256"
            },
            {
              "internalType": "uint256",
              "name": "start",
              "type": "uint256"
            },
            {
              "internalType": "uint256",
              "name": "duration",
              "type": "uint256"
            },
            {
              "internalType": "uint256",
              "name": "weight",
              "type": "uint256"
            },
            {
              "internalType": "uint256",
              "name": "discountRate",
              "type": "uint256"
            },
            {
              "internalType": "contract IJBFundingCycleBallot",
              "name": "ballot",
              "type": "address"
            },
            {
              "internalType": "uint256",
              "name": "metadata",
              "type": "uint256"
            }
          ],
          "internalType": "struct JBFundingCycle",
          "name": "fundingCycle",
          "type": "tuple"
        },
        {
          "components": [
            {
              "components": [
                {
                  "internalType": "bool",
                  "name": "allowSetTerminals",
                  "type": "bool"
                },
                {
                  "internalType": "bool",
                  "name": "allowSetController",
                  "type": "bool"
                },
                {
                  "internalType": "bool",
                  "name": "pauseTransfers",
                  "type": "bool"
                }
              ],
              "internalType": "struct JBGlobalFundingCycleMetadata",
              "name": "global",
              "type": "tuple"
            },
            {
              "internalType": "uint256",
              "name": "reservedRate",
              "type": "uint256"
            },
            {
              "internalType": "uint256",
              "name": "redemptionRate",
              "type": "uint256"
            },
            {
              "internalType": "uint256",
              "name": "ballotRedemptionRate",
              "type": "uint256"
            },
            {
              "internalType": "bool",
              "name": "pausePay",
              "type": "bool"
            },
            {
              "internalType": "bool",
              "name": "pauseDistributions",
              "type": "bool"
            },
            {
              "internalType": "bool",
              "name": "pauseRedeem",
              "type": "bool"
            },
            {
              "internalType": "bool",
              "name": "pauseBurn",
              "type": "bool"
            },
            {
              "internalType": "bool",
              "name": "allowMinting",
              "type": "bool"
            },
            {
              "internalType": "bool",
              "name": "allowTerminalMigration",
              "type": "bool"
            },
            {
              "internalType": "bool",
              "name": "allowControllerMigration",
              "type": "bool"
            },
            {
              "internalType": "bool",
              "name": "holdFees",
              "type": "bool"
            },
            {
              "internalType": "bool",
              "name": "preferClaimedTokenOverride",
              "type": "bool"
            },
            {
              "internalType": "bool",
              "name": "useTotalOverflowForRedemptions",
              "type": "bool"
            },
            {
              "internalType": "bool",
              "name": "useDataSourceForPay",
              "type": "bool"
            },
            {
              "internalType": "bool",
              "name": "useDataSourceForRedeem",
              "type": "bool"
            },
            {
              "internalType": "address",
              "name": "dataSource",
              "type": "address"
            },
            {
              "internalType": "uint256",
              "name": "metadata",
              "type": "uint256"
            }
          ],
          "internalType": "struct JBFundingCycleMetadata",
          "name": "metadata",
          "type": "tuple"
        }
      ],
      "stateMutability": "view",
      "type": "function"
    },
    {
      "inputs": [
        {
          "internalType": "uint256",
          "name": "_projectId",
          "type": "uint256"
        },
        {
          "components": [
            {
              "internalType": "uint256",
              "name": "duration",
              "type": "uint256"
            },
            {
              "internalType": "uint256",
              "name": "weight",
              "type": "uint256"
            },
            {
              "internalType": "uint256",
              "name": "discountRate",
              "type": "uint256"
            },
            {
              "internalType": "contract IJBFundingCycleBallot",
              "name": "ballot",
              "type": "address"
            }
          ],
          "internalType": "struct JBFundingCycleData",
          "name": "_data",
          "type": "tuple"
        },
        {
          "components": [
            {
              "components": [
                {
                  "internalType": "bool",
                  "name": "allowSetTerminals",
                  "type": "bool"
                },
                {
                  "internalType": "bool",
                  "name": "allowSetController",
                  "type": "bool"
                },
                {
                  "internalType": "bool",
                  "name": "pauseTransfers",
                  "type": "bool"
                }
              ],
              "internalType": "struct JBGlobalFundingCycleMetadata",
              "name": "global",
              "type": "tuple"
            },
            {
              "internalType": "uint256",
              "name": "reservedRate",
              "type": "uint256"
            },
            {
              "internalType": "uint256",
              "name": "redemptionRate",
              "type": "uint256"
            },
            {
              "internalType": "uint256",
              "name": "ballotRedemptionRate",
              "type": "uint256"
            },
            {
              "internalType": "bool",
              "name": "pausePay",
              "type": "bool"
            },
            {
              "internalType": "bool",
              "name": "pauseDistributions",
              "type": "bool"
            },
            {
              "internalType": "bool",
              "name": "pauseRedeem",
              "type": "bool"
            },
            {
              "internalType": "bool",
              "name": "pauseBurn",
              "type": "bool"
            },
            {
              "internalType": "bool",
              "name": "allowMinting",
              "type": "bool"
            },
            {
              "internalType": "bool",
              "name": "allowTerminalMigration",
              "type": "bool"
            },
            {
              "internalType": "bool",
              "name": "allowControllerMigration",
              "type": "bool"
            },
            {
              "internalType": "bool",
              "name": "holdFees",
              "type": "bool"
            },
            {
              "internalType": "bool",
              "name": "preferClaimedTokenOverride",
              "type": "bool"
            },
            {
              "internalType": "bool",
              "name": "useTotalOverflowForRedemptions",
              "type": "bool"
            },
            {
              "internalType": "bool",
              "name": "useDataSourceForPay",
              "type": "bool"
            },
            {
              "internalType": "bool",
              "name": "useDataSourceForRedeem",
              "type": "bool"
            },
            {
              "internalType": "address",
              "name": "dataSource",
              "type": "address"
            },
            {
              "internalType": "uint256",
              "name": "metadata",
              "type": "uint256"
            }
          ],
          "internalType": "struct JBFundingCycleMetadata",
          "name": "_metadata",
          "type": "tuple"
        },
        {
          "internalType": "uint256",
          "name": "_mustStartAtOrAfter",
          "type": "uint256"
        },
        {
          "components": [
            {
              "internalType": "uint256",
              "name": "group",
              "type": "uint256"
            },
            {
              "components": [
                {
                  "internalType": "bool",
                  "name": "preferClaimed",
                  "type": "bool"
                },
                {
                  "internalType": "bool",
                  "name": "preferAddToBalance",
                  "type": "bool"
                },
                {
                  "internalType": "uint256",
                  "name": "percent",
                  "type": "uint256"
                },
                {
                  "internalType": "uint256",
                  "name": "projectId",
                  "type": "uint256"
                },
                {
                  "internalType": "address payable",
                  "name": "beneficiary",
                  "type": "address"
                },
                {
                  "internalType": "uint256",
                  "name": "lockedUntil",
                  "type": "uint256"
                },
                {
                  "internalType": "contract IJBSplitAllocator",
                  "name": "allocator",
                  "type": "address"
                }
              ],
              "internalType": "struct JBSplit[]",
              "name": "splits",
              "type": "tuple[]"
            }
          ],
          "internalType": "struct JBGroupedSplits[]",
          "name": "_groupedSplits",
          "type": "tuple[]"
        },
        {
          "components": [
            {
              "internalType": "contract IJBPaymentTerminal",
              "name": "terminal",
              "type": "address"
            },
            {
              "internalType": "address",
              "name": "token",
              "type": "address"
            },
            {
              "internalType": "uint256",
              "name": "distributionLimit",
              "type": "uint256"
            },
            {
              "internalType": "uint256",
              "name": "distributionLimitCurrency",
              "type": "uint256"
            },
            {
              "internalType": "uint256",
              "name": "overflowAllowance",
              "type": "uint256"
            },
            {
              "internalType": "uint256",
              "name": "overflowAllowanceCurrency",
              "type": "uint256"
            }
          ],
          "internalType": "struct JBFundAccessConstraints[]",
          "name": "_fundAccessConstraints",
          "type": "tuple[]"
        },
        {
          "internalType": "string",
          "name": "_memo",
          "type": "string"
        }
      ],
      "name": "reconfigureFundingCyclesOf",
      "outputs": [
        {
          "internalType": "uint256",
          "name": "configuration",
          "type": "uint256"
        }
      ],
      "stateMutability": "nonpayable",
      "type": "function"
    },
    {
      "inputs": [
        {
          "internalType": "uint256",
          "name": "",
          "type": "uint256"
        }
      ],
      "name": "reservedTokenBalanceOf",
      "outputs": [
        {
          "internalType": "uint256",
          "name": "",
          "type": "uint256"
        }
      ],
      "stateMutability": "view",
      "type": "function"
    },
    {
      "inputs": [],
      "name": "splitsStore",
      "outputs": [
        {
          "internalType": "contract IJBSplitsStore",
          "name": "",
          "type": "address"
        }
      ],
      "stateMutability": "view",
      "type": "function"
    },
    {
      "inputs": [
        {
          "internalType": "bytes4",
          "name": "_interfaceId",
          "type": "bytes4"
        }
      ],
      "name": "supportsInterface",
      "outputs": [
        {
          "internalType": "bool",
          "name": "",
          "type": "bool"
        }
      ],
      "stateMutability": "view",
      "type": "function"
    },
    {
      "inputs": [],
      "name": "tokenStore",
      "outputs": [
        {
          "internalType": "contract IJBTokenStore",
          "name": "",
          "type": "address"
        }
      ],
      "stateMutability": "view",
      "type": "function"
    },
    {
      "inputs": [
        {
          "internalType": "uint256",
          "name": "_projectId",
          "type": "uint256"
        }
      ],
      "name": "totalOutstandingTokensOf",
      "outputs": [
        {
          "internalType": "uint256",
          "name": "",
          "type": "uint256"
        }
      ],
      "stateMutability": "view",
      "type": "function"
    }
  ],
  "bytecode": {
    "object": "0x6101606040523480156200001257600080fd5b50604051620042f2380380620042f2833981016040819052620000359162000085565b6001600160a01b0396871660805294861660a0529285166101405290841660c052831660e052821661010052166101205262000130565b6001600160a01b03811681146200008257600080fd5b50565b600080600080600080600060e0888a031215620000a157600080fd5b8751620000ae816200006c565b6020890151909750620000c1816200006c565b6040890151909650620000d4816200006c565b6060890151909550620000e7816200006c565b6080890151909450620000fa816200006c565b60a08901519093506200010d816200006c565b60c089015190925062000120816200006c565b8091505092959891949750929550565b60805160a05160c05160e0516101005161012051610140516140646200028e600039600081816103a6015281816105cf01528181610651015281816107f50152818161094f01528181610c1c0152818161107b0152818161114201526114290152600081816102ec0152611bcc0152600081816101ed01528181611b4e0152612539015260008181610278015281816109f901528181611275015281816117d801528181611fc801526125140152600081816102510152818161051e01528181610743015281816108a601528181610ae401528181610cd301528181610ed901528181610f560152818161139c01528181611a8d0152611fec0152600081816102c50152818161047c01528181610b8501528181610fe70152818161144c0152818161167e01528181612091015261265f015260008181610326015281816118cc0152818161196801528181611e700152611f0c01526140646000f3fe608060405234801561001057600080fd5b50600436106101425760003560e01c80638ae9c07b116100b8578063b3c526731161007c578063b3c5267314610348578063badbdf281461035b578063bdd504d71461036e578063c18f2d311461038e578063c41c2f24146103a1578063e867c59c146103c857600080fd5b80638ae9c07b146102ad5780638b79543c146102c0578063a29a6814146102e7578063a40bb9c71461030e578063ad007d631461032157600080fd5b80632bdfe0041161010a5780632bdfe004146101e85780633e8c615b14610227578063405b84fa14610239578063557e71551461024c57806361930630146102735780638776c4991461029a57600080fd5b806301ffc9a714610147578063111d861b1461016f57806312b37b14146101905780631665bc0f146101b15780631f510453146101c6575b600080fd5b61015a6101553660046129e0565b6103db565b60405190151581526020015b60405180910390f35b61018261017d366004612d7a565b610463565b604051908152602001610166565b6101a361019e366004612e67565b61071d565b604051610166929190613044565b6101c46101bf3660046130bb565b6107ca565b005b6101d96101d4366004612e67565b610abb565b60405161016693929190613136565b61020f7f000000000000000000000000000000000000000000000000000000000000000081565b6040516001600160a01b039091168152602001610166565b6101c4610235366004613180565b5050565b6101c4610247366004613180565b610b6f565b61020f7f000000000000000000000000000000000000000000000000000000000000000081565b61020f7f000000000000000000000000000000000000000000000000000000000000000081565b6101a36102a8366004612e67565b610eb3565b6101826102bb3660046131b0565b610f10565b61020f7f000000000000000000000000000000000000000000000000000000000000000081565b61020f7f000000000000000000000000000000000000000000000000000000000000000081565b6101a361031c36600461323f565b61136f565b61020f7f000000000000000000000000000000000000000000000000000000000000000081565b6101826103563660046132b7565b611424565b6101826103693660046133e0565b611665565b61018261037c366004612e67565b60026020526000908152604090205481565b61018261039c366004612e67565b6117b3565b61020f7f000000000000000000000000000000000000000000000000000000000000000081565b6101826103d63660046134b7565b611855565b60006001600160e01b03198216630232efb760e61b148061040c57506001600160e01b03198216633e2d14f360e11b145b8061042757506001600160e01b03198216633e8c615b60e01b145b8061044257506001600160e01b0319821663ad007d6360e01b145b8061045d57506301ffc9a760e01b6001600160e01b03198316145b92915050565b6040516331a9108f60e11b8152600481018a90526000907f00000000000000000000000000000000000000000000000000000000000000006001600160a01b031690636352211e90602401602060405180830381865afa1580156104cb573d6000803e3d6000fd5b505050506040513d601f19601f820116820180604052508101906104ef9190613502565b8a60016104fd8383836118a1565b604051632cee6deb60e01b8152600481018e90526000906001600160a01b037f00000000000000000000000000000000000000000000000000000000000000001690632cee6deb90602401602060405180830381865afa158015610565573d6000803e3d6000fd5b505050506040513d601f19601f82011682018060405250810190610589919061351f565b11156105ab5760405160016217a1f760e11b0319815260040160405180910390fd5b6040516338a73f9960e11b8152600481018e90523060248201526001600160a01b037f0000000000000000000000000000000000000000000000000000000000000000169063714e7f3290604401600060405180830381600087803b15801561061357600080fd5b505af1158015610627573d6000803e3d6000fd5b505050506106458d8d8d8d8d8d9061063f9190613538565b8c611a0a565b8651909450156106d0577f00000000000000000000000000000000000000000000000000000000000000006001600160a01b031663821b9fd88e886040518363ffffffff1660e01b815260040161069d9291906136b8565b600060405180830381600087803b1580156106b757600080fd5b505af11580156106cb573d6000803e3d6000fd5b505050505b7f8621c3692c18d8ddd4cd26457d6a3e1d916e7001c4243a6c8dfa862a7e10a823848e87336040516107059493929190613748565b60405180910390a15050509998505050505050505050565b6107256128e0565b61072d612935565b604051630b8aa00f60e31b8152600481018490527f00000000000000000000000000000000000000000000000000000000000000006001600160a01b031690635c550078906024015b61012060405180830381865afa158015610794573d6000803e3d6000fd5b505050506040513d601f19601f820116820180604052508101906107b8919061380b565b91506107c382611c4c565b9050915091565b604051636e49181f60e01b81526004810186905233602482015286908690600a906001600160a01b037f00000000000000000000000000000000000000000000000000000000000000001690636e49181f90604401602060405180830381865afa15801561083c573d6000803e3d6000fd5b505050506040513d601f19601f820116820180604052508101906108609190613828565b61086c84848484611e3b565b8760000361088d57604051637b38547b60e01b815260040160405180910390fd5b6040516321d1336160e11b8152600481018a90526000907f00000000000000000000000000000000000000000000000000000000000000006001600160a01b0316906343a266c29060240161012060405180830381865afa1580156108f6573d6000803e3d6000fd5b505050506040513d601f19601f8201168201806040525081019061091a919061380b565b610100810151909150604b1c60019081161480156109c45750604051636e49181f60e01b8152600481018b90523360248201527f00000000000000000000000000000000000000000000000000000000000000006001600160a01b031690636e49181f90604401602060405180830381865afa15801561099e573d6000803e3d6000fd5b505050506040513d601f19601f820116820180604052508101906109c29190613828565b155b156109e257604051630f1490e360e31b815260040160405180910390fd5b60405163906ebd0f60e01b81526001600160a01b037f0000000000000000000000000000000000000000000000000000000000000000169063906ebd0f90610a34908e908e908e908c90600401613845565b600060405180830381600087803b158015610a4e57600080fd5b505af1158015610a62573d6000803e3d6000fd5b50505050898b6001600160a01b03167fdf04e13ee4fcd48a81ab2fd114757093740a3efa9b6475d86e05878b4c59d0798b8b8b33604051610aa69493929190613896565b60405180910390a35050505050505050505050565b610ac36128e0565b610acb612935565b60405163ebc8ca1f60e01b8152600481018490526000907f00000000000000000000000000000000000000000000000000000000000000006001600160a01b03169063ebc8ca1f9060240161014060405180830381865afa158015610b34573d6000803e3d6000fd5b505050506040513d601f19601f82011682018060405250810190610b5891906138c9565b9093509050610b6683611c4c565b91509193909250565b6040516331a9108f60e11b8152600481018390527f00000000000000000000000000000000000000000000000000000000000000006001600160a01b031690636352211e90602401602060405180830381865afa158015610bd4573d6000803e3d6000fd5b505050506040513d601f19601f82011682018060405250810190610bf89190613502565b826003610c068383836118a1565b604051632eec7b5560e11b8152600481018690527f00000000000000000000000000000000000000000000000000000000000000009030906001600160a01b03831690635dd8f6aa90602401602060405180830381865afa158015610c6f573d6000803e3d6000fd5b505050506040513d601f19601f82011682018060405250810190610c939190613502565b6001600160a01b031614610cba5760405163e0a0a87d60e01b815260040160405180910390fd5b6040516321d1336160e11b8152600481018790526000907f00000000000000000000000000000000000000000000000000000000000000006001600160a01b0316906343a266c29060240161012060405180830381865afa158015610d23573d6000803e3d6000fd5b505050506040513d601f19601f82011682018060405250810190610d47919061380b565b610100810151909150604e1c600190811614610d76576040516346ace3f960e01b815260040160405180910390fd5b60008781526002602052604090205415610da557610da38760405180602001604052806000815250611faf565b505b604051633e8c615b60e01b8152600481018890523060248201526001600160a01b03871690633e8c615b90604401600060405180830381600087803b158015610ded57600080fd5b505af1158015610e01573d6000803e3d6000fd5b50506040516338a73f9960e11b8152600481018a90526001600160a01b0389811660248301528516925063714e7f329150604401600060405180830381600087803b158015610e4f57600080fd5b505af1158015610e63573d6000803e3d6000fd5b5050604080516001600160a01b038a1681523360208201528a93507f01f954abace731a88ab86e71186040cc2be49fe517ea06bc0d24f25b82b8345692500160405180910390a250505050505050565b610ebb6128e0565b610ec3612935565b6040516321d1336160e11b8152600481018490527f00000000000000000000000000000000000000000000000000000000000000006001600160a01b0316906343a266c290602401610776565b600086600003610f33576040516327f44f9560e21b815260040160405180910390fd5b6040516321d1336160e11b81526004810189905260009081906001600160a01b037f000000000000000000000000000000000000000000000000000000000000000016906343a266c29060240161012060405180830381865afa158015610f9e573d6000803e3d6000fd5b505050506040513d601f19601f82011682018060405250810190610fc2919061380b565b6040516331a9108f60e11b8152600481018c905290915061110f906001600160a01b037f00000000000000000000000000000000000000000000000000000000000000001690636352211e90602401602060405180830381865afa15801561102e573d6000803e3d6000fd5b505050506040513d601f19601f820116820180604052508101906110529190613502565b604051636e49181f60e01b8152600481018d90523360248201528c906009906001600160a01b037f00000000000000000000000000000000000000000000000000000000000000001690636e49181f90604401602060405180830381865afa1580156110c2573d6000803e3d6000fd5b505050506040513d601f19601f820116820180604052508101906110e69190613828565b8061110a575061010085015160541c6001600160a01b0316336001600160a01b0316145b611e3b565b610100810151604c1c6001908116141580156111b75750604051636e49181f60e01b8152600481018b90523360248201527f00000000000000000000000000000000000000000000000000000000000000006001600160a01b031690636e49181f90604401602060405180830381865afa158015611191573d6000803e3d6000fd5b505050506040513d601f19601f820116820180604052508101906111b59190613828565b155b80156111dd575061010081015160541c6001600160a01b0316336001600160a01b031614155b156111fb57604051639d0ca8fd60e01b815260040160405180910390fd5b83611207576000611215565b61010081015160181c61ffff165b91506001851515146112355761010081015160501c600190811614611237565b845b94505061271081146112e35761125b8861125383612710613912565b6127106121e9565b6040516333b774f960e21b81529092506001600160a01b037f0000000000000000000000000000000000000000000000000000000000000000169063ceddd3e4906112b0908a908d9087908a90600401613845565b600060405180830381600087803b1580156112ca57600080fd5b505af11580156112de573d6000803e3d6000fd5b505050505b8015611317576112f38289613912565b60008a81526002602052604081208054909190611311908490613925565b90915550505b88876001600160a01b03167fe6fee9c572244c0c2238c3112ac12d411750a7ee00eeebd32521c3e5a666c14b8a858a8a873360405161135b96959493929190613938565b60405180910390a350979650505050505050565b6113776128e0565b61137f612935565b60405163334f245560e11b815260048101859052602481018490527f00000000000000000000000000000000000000000000000000000000000000006001600160a01b03169063669e48aa9060440161012060405180830381865afa1580156113ec573d6000803e3d6000fd5b505050506040513d601f19601f82011682018060405250810190611410919061380b565b915061141b82611c4c565b90509250929050565b6000807f000000000000000000000000000000000000000000000000000000000000000090507f00000000000000000000000000000000000000000000000000000000000000006001600160a01b031663666d87a08e8e6040518363ffffffff1660e01b815260040161149892919061397b565b6020604051808303816000875af11580156114b7573d6000803e3d6000fd5b505050506040513d601f19601f820116820180604052508101906114db919061351f565b6040516338a73f9960e11b8152600481018290523060248201529092506001600160a01b0382169063714e7f3290604401600060405180830381600087803b15801561152657600080fd5b505af115801561153a573d6000803e3d6000fd5b5050505060006115ac838d8d8d8d8d906115549190613538565b8c8c808060200260200160405190810160405280939291908181526020016000905b828210156115a25761159360c083028601368190038101906139fc565b81526020019060010190611576565b5050505050611a0a565b8551909150156116175760405163104373fb60e31b81526001600160a01b0383169063821b9fd8906115e490869089906004016136b8565b600060405180830381600087803b1580156115fe57600080fd5b505af1158015611612573d6000803e3d6000fd5b505050505b7ff3e6948ba8b32d557363ea08470121c47c0127659aed09320812174d373afef28184863360405161164c9493929190613748565b60405180910390a150509b9a5050505050505050505050565b6040516331a9108f60e11b8152600481018b90526000907f00000000000000000000000000000000000000000000000000000000000000006001600160a01b031690636352211e90602401602060405180830381865afa1580156116cd573d6000803e3d6000fd5b505050506040513d601f19601f820116820180604052508101906116f19190613502565b8b60016116ff8383836118a1565b6117618e8e8e8e8e8e906117139190613538565b8d8d808060200260200160405190810160405280939291908181526020016000905b828210156115a25761175260c083028601368190038101906139fc565b81526020019060010190611735565b93507f1a08ad37c93969a586fd0605d240c17113b20a9c9ac3847595d0ab425225f6af848f88883360405161179a959493929190613a18565b60405180910390a15050509a9950505050505050505050565b6000818152600260205260408082205490516375b0d9cd60e01b8152600481018490527f00000000000000000000000000000000000000000000000000000000000000006001600160a01b0316906375b0d9cd90602401602060405180830381865afa158015611827573d6000803e3d6000fd5b505050506040513d601f19601f8201168201806040525081019061184b919061351f565b61045d9190613925565b60006118978484848080601f016020809104026020016040519081016040528093929190818152602001838380828437600092019190915250611faf92505050565b90505b9392505050565b336001600160a01b0384161480159061194a575060405163c161c93f60e01b81526001600160a01b037f0000000000000000000000000000000000000000000000000000000000000000169063c161c93f90611907903390879087908790600401613a52565b602060405180830381865afa158015611924573d6000803e3d6000fd5b505050506040513d601f19601f820116820180604052508101906119489190613828565b155b80156119e7575060405163c161c93f60e01b81526001600160a01b037f0000000000000000000000000000000000000000000000000000000000000000169063c161c93f906119a490339087906000908790600401613a52565b602060405180830381865afa1580156119c1573d6000803e3d6000fd5b505050506040513d601f19601f820116820180604052508101906119e59190613828565b155b15611a055760405163075fd2b160e01b815260040160405180910390fd5b505050565b600061271085606001351115611a3357604051635623289560e01b815260040160405180910390fd5b61271085608001351115611a5a57604051639db9ee9360e01b815260040160405180910390fd5b6127108560a001351115611a8157604051636edf8de360e11b815260040160405180910390fd5b60006001600160a01b037f00000000000000000000000000000000000000000000000000000000000000001663a249d4258989611acb611ac6368c90038c018c613af0565b6122ba565b896040518563ffffffff1660e01b8152600401611aeb9493929190613c3e565b610120604051808303816000875af1158015611b0b573d6000803e3d6000fd5b505050506040513d601f19601f82011682018060405250810190611b2f919061380b565b602081015160405163796d225b60e11b81529192506001600160a01b037f0000000000000000000000000000000000000000000000000000000000000000169163f2da44b691611b86918c91908990600401613ce6565b600060405180830381600087803b158015611ba057600080fd5b505af1158015611bb4573d6000803e3d6000fd5b5050505060208101516040516334002f3160e01b81527f00000000000000000000000000000000000000000000000000000000000000006001600160a01b0316916334002f3191611c0b918c918890600401613d9f565b600060405180830381600087803b158015611c2557600080fd5b505af1158015611c39573d6000803e3d6000fd5b5050505060200151979650505050505050565b611c54612935565b604051806102400160405280611c6984612440565b815261010084015160209091019060181c61ffff168152602001611c8c846124b4565b8152602001611c9a846124d1565b8152602001611cb6846101000151600160489190911c81161490565b15158152602001611cd4846101000151600160499190911c81161490565b15158152602001611cf28461010001516001604a9190911c81161490565b15158152602001611d108461010001516001604b9190911c81161490565b15158152602001611d2e8461010001516001604c9190911c81161490565b15158152602001611d4c8461010001516001604d9190911c81161490565b15158152602001611d6a8461010001516001604e9190911c81161490565b15158152602001611d888461010001516001604f9190911c81161490565b15158152602001611da6846101000151600160509190911c81161490565b15158152602001611dc4846101000151600160519190911c81161490565b15158152602001611de2846101000151600160529190911c81161490565b15158152602001611e00846101000151600160539190911c81161490565b15158152602001611e1684610100015160541c90565b6001600160a01b0316815261010084015160209091019060f41c60ff16905292915050565b80158015611e525750336001600160a01b03851614155b8015611eee575060405163c161c93f60e01b81526001600160a01b037f0000000000000000000000000000000000000000000000000000000000000000169063c161c93f90611eab903390889088908890600401613a52565b602060405180830381865afa158015611ec8573d6000803e3d6000fd5b505050506040513d601f19601f82011682018060405250810190611eec9190613828565b155b8015611f8b575060405163c161c93f60e01b81526001600160a01b037f0000000000000000000000000000000000000000000000000000000000000000169063c161c93f90611f4890339088906000908890600401613a52565b602060405180830381865afa158015611f65573d6000803e3d6000fd5b505050506040513d601f19601f82011682018060405250810190611f899190613828565b155b15611fa95760405163075fd2b160e01b815260040160405180910390fd5b50505050565b6040516321d1336160e11b8152600481018390526000907f00000000000000000000000000000000000000000000000000000000000000009082907f00000000000000000000000000000000000000000000000000000000000000006001600160a01b0316906343a266c29060240161012060405180830381865afa15801561203c573d6000803e3d6000fd5b505050506040513d601f19601f82011682018060405250810190612060919061380b565b60008681526002602052604080822080549083905590516331a9108f60e11b815260048101899052909550919250907f00000000000000000000000000000000000000000000000000000000000000006001600160a01b031690636352211e90602401602060405180830381865afa1580156120e0573d6000803e3d6000fd5b505050506040513d601f19601f820116820180604052508101906121049190613502565b9050600084156121245761211f8784602001516002886124ee565b612127565b60005b90508015612195576040516333b774f960e21b81526001600160a01b0385169063ceddd3e4906121629085908b908690600090600401613845565b600060405180830381600087803b15801561217c57600080fd5b505af1158015612190573d6000803e3d6000fd5b505050505b86836000015184602001517fb12d7a78048433f69fe6d30145bf08aad8e82985b96e4db6d5c6a7e94d57086e8589868c336040516121d7959493929190613e33565b60405180910390a45050505092915050565b60008080600019858709858702925082811083820303915050806000036122235783828161221957612219613e76565b049250505061189a565b83811061225157604051631dcf306360e21b8152600481018290526024810185905260440160405180910390fd5b60008486880960026001871981018816978890046003810283188082028403028082028403028082028403028082028403028082028403029081029092039091026000889003889004909101858311909403939093029303949094049190911702949350505050565b80516001906008906122cb906128b1565b901b8117905060188260200151901b81179050602882604001516127106122f29190613912565b901b811790506038826060015161271061230c9190613912565b901b81179050816080015115612329576901000000000000000000175b8160a0015115612340576902000000000000000000175b8160c0015115612357576904000000000000000000175b8160e001511561236e576908000000000000000000175b81610100015115612386576910000000000000000000175b8161012001511561239e576920000000000000000000175b816101400151156123b6576940000000000000000000175b816101600151156123ce576980000000000000000000175b816101800151156123e057600160501b175b816101a00151156123f257600160511b175b816101c001511561240457600160521b175b816101e001511561241657600160531b175b6102008201516102209092015160f41b600160541b600160f41b0360549390931b92909216171790565b604080516060810182526000808252602082018190529181019190915261045d6008836101000151901c604080516060808201835260008083526020808401829052928401528251908101835260018481168114825284811c811681149282019290925260029390931c8116149082015290565b60006028826101000151901c61ffff1661271061045d9190613912565b60006038826101000151901c61ffff1661271061045d9190613912565b6040516369e11cc560e01b815260048101859052602481018490526044810183905281907f0000000000000000000000000000000000000000000000000000000000000000906000907f00000000000000000000000000000000000000000000000000000000000000006001600160a01b0316906369e11cc590606401600060405180830381865afa158015612588573d6000803e3d6000fd5b505050506040513d6000823e601f3d908101601f191682016040526125b09190810190613e8c565b905060005b81518110156128a65760008282815181106125d2576125d2613f95565b6020026020010151905060006125f1878360400151633b9aca006121e9565b9050801561285e5760c08201516001600160a01b038087169163ceddd3e491166126d75783606001516000036126435760808401516001600160a01b031661263957336126dd565b83608001516126dd565b60608401516040516331a9108f60e11b815260048101919091527f00000000000000000000000000000000000000000000000000000000000000006001600160a01b031690636352211e90602401602060405180830381865afa1580156126ae573d6000803e3d6000fd5b505050506040513d601f19601f820116820180604052508101906126d29190613502565b6126dd565b8360c001515b84516040516001600160e01b031960e085901b16815261270592918f91879190600401613845565b600060405180830381600087803b15801561271f57600080fd5b505af1158015612733573d6000803e3d6000fd5b5050505060c08201516001600160a01b031615612851578160c001516001600160a01b0316639d740bfa6040518060c00160405280886001600160a01b031663ea78803f8f6040518263ffffffff1660e01b815260040161279691815260200190565b602060405180830381865afa1580156127b3573d6000803e3d6000fd5b505050506040513d601f19601f820116820180604052508101906127d79190613502565b6001600160a01b03168152602001848152602001601281526020018d81526020018b8152602001858152506040518263ffffffff1660e01b815260040161281e9190613fab565b600060405180830381600087803b15801561283857600080fd5b505af115801561284c573d6000803e3d6000fd5b505050505b61285b8187613912565b95505b87898b7f990c1da5d280602f972ae3c429b6dc66a66569875205cc6e67f14e0b3fc4d2ac85853360405161289493929190613fff565b60405180910390a450506001016125b5565b505050949350505050565b8051600090156128bf576001175b8160200151156128cd576002175b8160400151156128db576004175b919050565b6040518061012001604052806000815260200160008152602001600081526020016000815260200160008152602001600081526020016000815260200160006001600160a01b03168152602001600081525090565b604080516102a0810182526000610240820181815261026083018290526102808301829052825260208201819052918101829052606081018290526080810182905260a0810182905260c0810182905260e08101829052610100810182905261012081018290526101408101829052610160810182905261018081018290526101a081018290526101c081018290526101e08101829052610200810182905261022081019190915290565b6000602082840312156129f257600080fd5b81356001600160e01b03198116811461189a57600080fd5b600060808284031215612a1c57600080fd5b50919050565b60006102808284031215612a1c57600080fd5b60008083601f840112612a4757600080fd5b5081356001600160401b03811115612a5e57600080fd5b6020830191508360208260051b8501011115612a7957600080fd5b9250929050565b634e487b7160e01b600052604160045260246000fd5b604080519081016001600160401b0381118282101715612ab857612ab8612a80565b60405290565b60405160e081016001600160401b0381118282101715612ab857612ab8612a80565b60405161012081016001600160401b0381118282101715612ab857612ab8612a80565b60405161024081016001600160401b0381118282101715612ab857612ab8612a80565b604051601f8201601f191681016001600160401b0381118282101715612b4e57612b4e612a80565b604052919050565b60006001600160401b03821115612b6f57612b6f612a80565b5060051b60200190565b6001600160a01b0381168114612b8e57600080fd5b50565b80356128db81612b79565b600060c08284031215612bae57600080fd5b60405160c081018181106001600160401b0382111715612bd057612bd0612a80565b6040529050808235612be181612b79565b81526020830135612bf181612b79565b8060208301525060408301356040820152606083013560608201526080830135608082015260a083013560a08201525092915050565b600082601f830112612c3857600080fd5b81356020612c4d612c4883612b56565b612b26565b82815260c09283028501820192828201919087851115612c6c57600080fd5b8387015b85811015612c8f57612c828982612b9c565b8452928401928101612c70565b5090979650505050505050565b600082601f830112612cad57600080fd5b81356020612cbd612c4883612b56565b82815260059290921b84018101918181019086841115612cdc57600080fd5b8286015b84811015612d00578035612cf381612b79565b8352918301918301612ce0565b509695505050505050565b600082601f830112612d1c57600080fd5b81356001600160401b03811115612d3557612d35612a80565b612d48601f8201601f1916602001612b26565b818152846020838601011115612d5d57600080fd5b816020850160208301376000918101602001919091529392505050565b60008060008060008060008060006103c08a8c031215612d9957600080fd5b89359850612daa8b60208c01612a0a565b9750612db98b60a08c01612a22565b96506103208a013595506103408a01356001600160401b0380821115612dde57600080fd5b612dea8d838e01612a35565b90975095506103608c0135915080821115612e0457600080fd5b612e108d838e01612c27565b94506103808c0135915080821115612e2757600080fd5b612e338d838e01612c9c565b93506103a08c0135915080821115612e4a57600080fd5b50612e578c828d01612d0b565b9150509295985092959850929598565b600060208284031215612e7957600080fd5b5035919050565b805182526020808201519083015260408082015190830152606080820151908301526080808201519083015260a0808201519083015260c0808201519083015260e0808201516001600160a01b03169083015261010090810151910152565b612f048282518051151582526020808201511515908301526040908101511515910152565b6020810151606083015260408101516080830152606081015160a08301526080810151612f3560c084018215159052565b5060a081015180151560e08401525060c0810151610100612f598185018315159052565b60e08301519150610120612f708186018415159052565b90830151915061014090612f878583018415159052565b8301519150610160612f9c8582018415159052565b90830151915061018090612fb38583018415159052565b83015191506101a0612fc88582018415159052565b9083015191506101c090612fdf8583018415159052565b83015191506101e0612ff48582018415159052565b9083015191506102009061300b8583018415159052565b83015191506102206130208582018415159052565b908301516001600160a01b0316610240850152909101516102609092019190915250565b6103a081016130538285612e80565b61189a610120830184612edf565b60008083601f84011261307357600080fd5b5081356001600160401b0381111561308a57600080fd5b602083019150836020828501011115612a7957600080fd5b8015158114612b8e57600080fd5b80356128db816130a2565b60008060008060008060a087890312156130d457600080fd5b86356130df81612b79565b9550602087013594506040870135935060608701356001600160401b0381111561310857600080fd5b61311489828a01613061565b9094509250506080870135613128816130a2565b809150509295509295509295565b6103c081016131458286612e80565b613153610120830185612edf565b6003831061317157634e487b7160e01b600052602160045260246000fd5b826103a0830152949350505050565b6000806040838503121561319357600080fd5b8235915060208301356131a581612b79565b809150509250929050565b600080600080600080600060c0888a0312156131cb57600080fd5b873596506020880135955060408801356131e481612b79565b945060608801356001600160401b038111156131ff57600080fd5b61320b8a828b01613061565b909550935050608088013561321f816130a2565b915060a088013561322f816130a2565b8091505092959891949750929550565b6000806040838503121561325257600080fd5b50508035926020909101359150565b600060408284031215612a1c57600080fd5b60008083601f84011261328557600080fd5b5081356001600160401b0381111561329c57600080fd5b60208301915083602060c083028501011115612a7957600080fd5b60008060008060008060008060008060006103e08c8e0312156132d957600080fd5b6132e28c612b91565b9a506001600160401b038060208e013511156132fd57600080fd5b61330d8e60208f01358f01613261565b9a5061331c8e60408f01612a0a565b995061332b8e60c08f01612a22565b98506103408d01359750806103608e0135111561334757600080fd5b6133588e6103608f01358f01612a35565b90975095506103808d013581101561336f57600080fd5b6133808e6103808f01358f01613273565b90955093506103a08d013581101561339757600080fd5b6133a88e6103a08f01358f01612c9c565b9250806103c08e013511156133bc57600080fd5b506133ce8d6103c08e01358e01612d0b565b90509295989b509295989b9093969950565b6000806000806000806000806000806103a08b8d03121561340057600080fd5b8a3599506134118c60208d01612a0a565b98506134208c60a08d01612a22565b97506103208b013596506103408b01356001600160401b038082111561344557600080fd5b6134518e838f01612a35565b90985096506103608d013591508082111561346b57600080fd5b6134778e838f01613273565b90965094506103808d013591508082111561349157600080fd5b5061349e8d828e01613061565b915080935050809150509295989b9194979a5092959850565b6000806000604084860312156134cc57600080fd5b8335925060208401356001600160401b038111156134e957600080fd5b6134f586828701613061565b9497909650939450505050565b60006020828403121561351457600080fd5b815161189a81612b79565b60006020828403121561353157600080fd5b5051919050565b6000613546612c4884612b56565b80848252602080830192508560051b85013681111561356457600080fd5b855b818110156136ac5780356001600160401b03808211156135865760008081fd5b8189019150604080833603121561359d5760008081fd5b6135a5612a96565b8335815286840135838111156135bb5760008081fd5b939093019236601f8501126135d257600092508283fd5b833592506135e2612c4884612b56565b83815260e093840285018801938882019190368611156136025760008081fd5b958901955b858710156136965780873603121561361f5760008081fd5b613627612abe565b8735613632816130a2565b8152878b0135613641816130a2565b818c015287860135868201526060808901359082015260808089013561366681612b79565b9082015260a0888101359082015260c08089013561368381612b79565b9082015283529586019591890191613607565b5082890152508852505050938201938201613566565b50919695505050505050565b6000604082018483526020604081850152818551808452606086019150828701935060005b81811015612c8f5784516001600160a01b0316835293830193918301916001016136dd565b6000815180845260005b818110156137285760208185018101518683018201520161370c565b506000602082860101526020601f19601f83011685010191505092915050565b8481528360208201526080604082015260006137676080830185613702565b905060018060a01b038316606083015295945050505050565b80516128db81612b79565b6000610120828403121561379e57600080fd5b6137a6612ae0565b9050815181526020820151602082015260408201516040820152606082015160608201526080820151608082015260a082015160a082015260c082015160c08201526137f460e08301613780565b60e082015261010080830151818301525092915050565b6000610120828403121561381e57600080fd5b61189a838361378b565b60006020828403121561383a57600080fd5b815161189a816130a2565b6001600160a01b03949094168452602084019290925260408301521515606082015260800190565b81835281816020850137506000828201602090810191909152601f909101601f19169091010190565b8481526060602082015260006138b060608301858761386d565b905060018060a01b038316604083015295945050505050565b60008061014083850312156138dd57600080fd5b6138e7848461378b565b9150610120830151600381106131a557600080fd5b634e487b7160e01b600052601160045260246000fd5b8181038181111561045d5761045d6138fc565b8082018082111561045d5761045d6138fc565b86815285602082015260a06040820152600061395860a08301868861386d565b6060830194909452506001600160a01b0391909116608090910152949350505050565b6001600160a01b0383168152604060208201526000823536849003601e190181126139a557600080fd5b83016020810190356001600160401b038111156139c157600080fd5b8036038213156139d057600080fd5b6040808501526139e460808501828461386d565b91505060208401356060840152809150509392505050565b600060c08284031215613a0e57600080fd5b61189a8383612b9c565b858152846020820152608060408201526000613a3860808301858761386d565b905060018060a01b03831660608301529695505050505050565b6001600160a01b0394851681529290931660208301526040820152606081019190915260800190565b600060608284031215613a8d57600080fd5b604051606081018181106001600160401b0382111715613aaf57613aaf612a80565b6040529050808235613ac0816130a2565b81526020830135613ad0816130a2565b60208201526040830135613ae3816130a2565b6040919091015292915050565b60006102808284031215613b0357600080fd5b613b0b612b03565b613b158484613a7b565b8152606083013560208201526080830135604082015260a08301356060820152613b4160c084016130b0565b6080820152613b5260e084016130b0565b60a0820152610100613b658185016130b0565b60c0830152610120613b788186016130b0565b60e0840152610140613b8b8187016130b0565b838501526101609250613b9f8387016130b0565b828501526101809150613bb38287016130b0565b908401526101a0613bc58682016130b0565b838501526101c09250613bd98387016130b0565b828501526101e09150613bed8287016130b0565b90840152610200613bff8682016130b0565b838501526102209250613c138387016130b0565b82850152613c246102408701612b91565b908401525061026093909301359281019290925250919050565b600060e0820190508582528435602083015260208501356040830152604085013560608301526060850135613c7281612b79565b6001600160a01b0316608083015260a082019390935260c0015292915050565b80511515825260208082015115159083015260408082015190830152606080820151908301526080808201516001600160a01b039081169184019190915260a0808301519084015260c09182015116910152565b60006060808301868452602086818601526040838187015282875180855260808801915060808160051b89010194508389016000805b83811015613d8d578a8803607f190185528251805189528701518789018790528051878a018190529088019083908b8b01905b80831015613d7857613d62828551613c92565b60e0820191508a84019350600183019250613d4f565b50995050509386019391860191600101613d1c565b50959c9b505050505050505050505050565b60006060808301868452602086818601526040838187015282875180855260809450848801915083890160005b82811015613e2257815180516001600160a01b03908116865287820151168786015285810151868601528881015189860152878101518886015260a0908101519085015260c09093019290850190600101613dcc565b50919b9a5050505050505050505050565b600060018060a01b03808816835286602084015285604084015260a06060840152613e6160a0840186613702565b91508084166080840152509695505050505050565b634e487b7160e01b600052601260045260246000fd5b60006020808385031215613e9f57600080fd5b82516001600160401b03811115613eb557600080fd5b8301601f81018513613ec657600080fd5b8051613ed4612c4882612b56565b81815260e09182028301840191848201919088841115613ef357600080fd5b938501935b83851015613f895780858a031215613f105760008081fd5b613f18612abe565b8551613f23816130a2565b815285870151613f32816130a2565b818801526040868101519082015260608087015190820152608080870151613f5981612b79565b9082015260a0868101519082015260c080870151613f7681612b79565b9082015283529384019391850191613ef8565b50979650505050505050565b634e487b7160e01b600052603260045260246000fd5b81516001600160a01b031681526020808301519082015260408083015190820152606080830151908201526080808301519082015260a082810151610180830191613ff890840182613c92565b5092915050565b610120810161400e8286613c92565b60e08201939093526001600160a01b03919091166101009091015291905056fea2646970667358221220498b32ab857549098ce3bc8f07df990c4855ce3e8b8056d562d681548f257bea64736f6c63430008140033",
    "linkReferences": {}
  },
  "methodIdentifiers": {
    "burnTokensOf(address,uint256,uint256,string,bool)": "1665bc0f",
    "currentFundingCycleOf(uint256)": "8776c499",
    "directory()": "c41c2f24",
    "distributeReservedTokensOf(uint256,string)": "e867c59c",
    "fundAccessConstraintsStore()": "a29a6814",
    "fundingCycleStore()": "557e7155",
    "getFundingCycleOf(uint256,uint256)": "a40bb9c7",
    "latestConfiguredFundingCycleOf(uint256)": "1f510453",
    "launchFundingCyclesFor(uint256,(uint256,uint256,uint256,address),((bool,bool,bool),uint256,uint256,uint256,bool,bool,bool,bool,bool,bool,bool,bool,bool,bool,bool,bool,address,uint256),uint256,(uint256,(bool,bool,uint256,uint256,address,uint256,address)[])[],(address,address,uint256,uint256,uint256,uint256)[],address[],string)": "111d861b",
    "launchProjectFor(address,(string,uint256),(uint256,uint256,uint256,address),((bool,bool,bool),uint256,uint256,uint256,bool,bool,bool,bool,bool,bool,bool,bool,bool,bool,bool,bool,address,uint256),uint256,(uint256,(bool,bool,uint256,uint256,address,uint256,address)[])[],(address,address,uint256,uint256,uint256,uint256)[],address[],string)": "b3c52673",
    "migrate(uint256,address)": "405b84fa",
    "mintTokensOf(uint256,uint256,address,string,bool,bool)": "8ae9c07b",
    "operatorStore()": "ad007d63",
    "prepForMigrationOf(uint256,address)": "3e8c615b",
    "projects()": "8b79543c",
    "queuedFundingCycleOf(uint256)": "12b37b14",
    "reconfigureFundingCyclesOf(uint256,(uint256,uint256,uint256,address),((bool,bool,bool),uint256,uint256,uint256,bool,bool,bool,bool,bool,bool,bool,bool,bool,bool,bool,bool,address,uint256),uint256,(uint256,(bool,bool,uint256,uint256,address,uint256,address)[])[],(address,address,uint256,uint256,uint256,uint256)[],string)": "badbdf28",
    "reservedTokenBalanceOf(uint256)": "bdd504d7",
    "splitsStore()": "2bdfe004",
    "supportsInterface(bytes4)": "01ffc9a7",
    "tokenStore()": "61930630",
    "totalOutstandingTokensOf(uint256)": "c18f2d31"
  },
  "id": 16
}