{
  "abi": [
    {
      "inputs": [
        {
          "internalType": "contract AllowlistDataSourceAggregator",
          "name": "_delegateImplementation",
          "type": "address"
        },
        {
          "internalType": "contract IJBDelegatesRegistry",
          "name": "_delegatesRegistry",
          "type": "address"
        }
      ],
      "stateMutability": "nonpayable",
      "type": "constructor"
    },
    {
      "anonymous": false,
      "inputs": [
        {
          "indexed": false,
          "internalType": "uint256",
          "name": "projectId",
          "type": "uint256"
        },
        {
          "indexed": false,
          "internalType": "contract AllowlistDataSourceAggregator",
          "name": "delegate",
          "type": "address"
        },
        {
          "indexed": false,
          "internalType": "contract IJBDirectory",
          "name": "directory",
          "type": "address"
        },
        {
          "indexed": false,
          "internalType": "address",
          "name": "caller",
          "type": "address"
        }
      ],
      "name": "DelegateDeployed",
      "type": "event"
    },
    {
      "inputs": [],
      "name": "delegateImplementation",
      "outputs": [
        {
          "internalType": "contract AllowlistDataSourceAggregator",
          "name": "",
          "type": "address"
        }
      ],
      "stateMutability": "view",
      "type": "function"
    },
    {
      "inputs": [],
      "name": "delegatesRegistry",
      "outputs": [
        {
          "internalType": "contract IJBDelegatesRegistry",
          "name": "",
          "type": "address"
        }
      ],
      "stateMutability": "view",
      "type": "function"
    },
    {
      "inputs": [
        {
          "internalType": "uint256",
          "name": "_projectId",
          "type": "uint256"
        },
        {
          "components": [
            {
              "internalType": "address[]",
              "name": "dataSources",
              "type": "address[]"
            }
          ],
          "internalType": "struct DeployMyDelegateData",
          "name": "_deployAllowlistDataSourceAggregatorData",
          "type": "tuple"
        },
        {
          "internalType": "contract IJBDirectory",
          "name": "_directory",
          "type": "address"
        }
      ],
      "name": "deployDelegateFor",
      "outputs": [
        {
          "internalType": "contract AllowlistDataSourceAggregator",
          "name": "delegate",
          "type": "address"
        }
      ],
      "stateMutability": "nonpayable",
      "type": "function"
    }
  ],
  "bytecode": {
    "object": "0x60c060405234801561001057600080fd5b5060405161060e38038061060e83398101604081905261002f9161005e565b6001600160a01b039182166080521660a052610098565b6001600160a01b038116811461005b57600080fd5b50565b6000806040838503121561007157600080fd5b825161007c81610046565b602084015190925061008d81610046565b809150509250929050565b60805160a0516105466100c86000396000818160a10152610155015260008181607a015260ca01526105466000f3fe608060405234801561001057600080fd5b50600436106100415760003560e01c8063a25f53be14610046578063a5fbd44a14610075578063d574ff041461009c575b600080fd5b61005961005436600461037c565b6100c3565b6040516001600160a01b03909116815260200160405180910390f35b6100597f000000000000000000000000000000000000000000000000000000000000000081565b6100597f000000000000000000000000000000000000000000000000000000000000000081565b60006100ee7f000000000000000000000000000000000000000000000000000000000000000061024b565b6040516318a2708160e11b81529091506001600160a01b03821690633144e1029061012190879086908890600401610479565b600060405180830381600087803b15801561013b57600080fd5b505af115801561014f573d6000803e3d6000fd5b505050507f00000000000000000000000000000000000000000000000000000000000000006001600160a01b0316635bcfd212306000808154610191906104e9565b91829055506040516001600160e01b031960e085901b1681526001600160a01b0390921660048301526024820152604401600060405180830381600087803b1580156101dc57600080fd5b505af11580156101f0573d6000803e3d6000fd5b5050604080518781526001600160a01b03858116602083015286168183015233606082015290517fbd318535ef41d837ffbebcb4725bbc083c0b01b23e236f2e4c3bcd8db2644a729350908190036080019150a19392505050565b6000763d602d80600a3d3981f3363d3d373d3d3d363d730000008260601b60e81c176000526e5af43d82803e903d91602b57fd5bf38260781b17602052603760096000f090506001600160a01b0381166102e45760405162461bcd60e51b8152602060048201526016602482015275115490cc4c4d8dce8818dc99585d194819985a5b195960521b604482015260640160405180910390fd5b919050565b634e487b7160e01b600052604160045260246000fd5b6040516020810167ffffffffffffffff81118282101715610322576103226102e9565b60405290565b604051601f8201601f1916810167ffffffffffffffff81118282101715610351576103516102e9565b604052919050565b6001600160a01b038116811461036e57600080fd5b50565b80356102e481610359565b60008060006060848603121561039157600080fd5b8335925060208085013567ffffffffffffffff808211156103b157600080fd5b81870191508282890312156103c557600080fd5b6103cd6102ff565b8235828111156103dc57600080fd5b80840193505088601f8401126103f157600080fd5b823582811115610403576104036102e9565b8060051b9250610414858401610328565b818152928401850192858101908b85111561042e57600080fd5b948601945b84861015610458578535925061044883610359565b8282529486019490860190610433565b83525090955061047093505050604086019050610371565b90509250925092565b8381526001600160a01b03838116602080840191909152606060408401819052845190840182905280516080850181905260009391830190849060a08701905b808310156104db578351851682529285019260019290920191908501906104b9565b509998505050505050505050565b60006001820161050957634e487b7160e01b600052601160045260246000fd5b506001019056fea2646970667358221220b6fedca33915a00cc96865d225869bd2bc859c4bfa54cb5b76785c8fd5d5cca464736f6c63430008140033",
    "linkReferences": {}
  },
  "methodIdentifiers": {
    "delegateImplementation()": "a5fbd44a",
    "delegatesRegistry()": "d574ff04",
    "deployDelegateFor(uint256,(address[]),address)": "a25f53be"
  },
  "id": 62
}