{
  "abi": [
    {
      "inputs": [
        {
          "internalType": "contract AllowlistDataSourceAggregator",
          "name": "_delegateImplementation",
          "type": "address"
        },
        {
          "internalType": "contract IJBDelegatesRegistry",
          "name": "_delegatesRegistry",
          "type": "address"
        }
      ],
      "stateMutability": "nonpayable",
      "type": "constructor"
    },
    {
      "anonymous": false,
      "inputs": [
        {
          "indexed": false,
          "internalType": "uint256",
          "name": "projectId",
          "type": "uint256"
        },
        {
          "indexed": false,
          "internalType": "contract AllowlistDataSourceAggregator",
          "name": "delegate",
          "type": "address"
        },
        {
          "indexed": false,
          "internalType": "contract IJBDirectory",
          "name": "directory",
          "type": "address"
        },
        {
          "indexed": false,
          "internalType": "address",
          "name": "caller",
          "type": "address"
        }
      ],
      "name": "DelegateDeployed",
      "type": "event"
    },
    {
      "inputs": [],
      "name": "delegateImplementation",
      "outputs": [
        {
          "internalType": "contract AllowlistDataSourceAggregator",
          "name": "",
          "type": "address"
        }
      ],
      "stateMutability": "view",
      "type": "function"
    },
    {
      "inputs": [],
      "name": "delegatesRegistry",
      "outputs": [
        {
          "internalType": "contract IJBDelegatesRegistry",
          "name": "",
          "type": "address"
        }
      ],
      "stateMutability": "view",
      "type": "function"
    },
    {
      "inputs": [
        {
          "internalType": "uint256",
          "name": "_projectId",
          "type": "uint256"
        },
        {
          "components": [
            {
              "internalType": "address[]",
              "name": "allowList",
              "type": "address[]"
            },
            {
              "internalType": "address[]",
              "name": "dataSources",
              "type": "address[]"
            }
          ],
          "internalType": "struct DeployMyDelegateData",
          "name": "_deployAllowlistDataSourceAggregatorData",
          "type": "tuple"
        },
        {
          "internalType": "contract IJBDirectory",
          "name": "_directory",
          "type": "address"
        }
      ],
      "name": "deployDelegateFor",
      "outputs": [
        {
          "internalType": "contract AllowlistDataSourceAggregator",
          "name": "delegate",
          "type": "address"
        }
      ],
      "stateMutability": "nonpayable",
      "type": "function"
    }
  ],
  "bytecode": {
    "object": "0x60c060405234801561001057600080fd5b5060405161064038038061064083398101604081905261002f9161005e565b6001600160a01b039182166080521660a052610098565b6001600160a01b038116811461005b57600080fd5b50565b6000806040838503121561007157600080fd5b825161007c81610046565b602084015190925061008d81610046565b809150509250929050565b60805160a0516105786100c86000396000818160a10152610155015260008181604b015260ca01526105786000f3fe608060405234801561001057600080fd5b50600436106100415760003560e01c8063a5fbd44a14610046578063d0ddb4ef14610089578063d574ff041461009c575b600080fd5b61006d7f000000000000000000000000000000000000000000000000000000000000000081565b6040516001600160a01b03909116815260200160405180910390f35b61006d6100973660046103c6565b6100c3565b61006d7f000000000000000000000000000000000000000000000000000000000000000081565b60006100ee7f000000000000000000000000000000000000000000000000000000000000000061024b565b604051633b8fc51160e21b81529091506001600160a01b0382169063ee3f144490610121908790869088906004016104cc565b600060405180830381600087803b15801561013b57600080fd5b505af115801561014f573d6000803e3d6000fd5b505050507f00000000000000000000000000000000000000000000000000000000000000006001600160a01b0316635bcfd2123060008081546101919061051b565b91829055506040516001600160e01b031960e085901b1681526001600160a01b0390921660048301526024820152604401600060405180830381600087803b1580156101dc57600080fd5b505af11580156101f0573d6000803e3d6000fd5b5050604080518781526001600160a01b03858116602083015286168183015233606082015290517fbd318535ef41d837ffbebcb4725bbc083c0b01b23e236f2e4c3bcd8db2644a729350908190036080019150a19392505050565b6000763d602d80600a3d3981f3363d3d373d3d3d363d730000008260601b60e81c176000526e5af43d82803e903d91602b57fd5bf38260781b17602052603760096000f090506001600160a01b0381166102e45760405162461bcd60e51b8152602060048201526016602482015275115490cc4c4d8dce8818dc99585d194819985a5b195960521b604482015260640160405180910390fd5b919050565b634e487b7160e01b600052604160045260246000fd5b6001600160a01b038116811461031457600080fd5b50565b600082601f83011261032857600080fd5b8135602067ffffffffffffffff80831115610345576103456102e9565b8260051b604051601f19603f8301168101818110848211171561036a5761036a6102e9565b60405293845285810183019383810192508785111561038857600080fd5b83870191505b848210156103b05781356103a1816102ff565b8352918301919083019061038e565b979650505050505050565b80356102e4816102ff565b6000806000606084860312156103db57600080fd5b83359250602084013567ffffffffffffffff808211156103fa57600080fd5b908501906040828803121561040e57600080fd5b604051604081018181108382111715610429576104296102e9565b60405282358281111561043b57600080fd5b61044789828601610317565b82525060208301358281111561045c57600080fd5b61046889828601610317565b602083015250935061047f915050604085016103bb565b90509250925092565b600081518084526020808501945080840160005b838110156104c15781516001600160a01b03168752958201959082019060010161049c565b509495945050505050565b8381526001600160a01b0383166020820152606060408083018290528351918301526000906104fe60a0840182610488565b90506020840151605f198483030160808501526103b08282610488565b60006001820161053b57634e487b7160e01b600052601160045260246000fd5b506001019056fea2646970667358221220c5cd89df0ad0367a6ce96236f27d1a576c4bd649af37d144b0e4663f7e1c184e64736f6c63430008140033",
    "linkReferences": {}
  },
  "methodIdentifiers": {
    "delegateImplementation()": "a5fbd44a",
    "delegatesRegistry()": "d574ff04",
    "deployDelegateFor(uint256,(address[],address[]),address)": "d0ddb4ef"
  },
  "id": 138
}