{
  "abi": [
    {
      "inputs": [
        {
          "internalType": "address",
          "name": "_governance",
          "type": "address"
        },
        {
          "internalType": "address[]",
          "name": "_dataSources",
          "type": "address[]"
        }
      ],
      "stateMutability": "nonpayable",
      "type": "constructor"
    },
    {
      "inputs": [
        {
          "internalType": "address",
          "name": "caller",
          "type": "address"
        },
        {
          "internalType": "uint256",
          "name": "projectId",
          "type": "uint256"
        },
        {
          "internalType": "uint256",
          "name": "value",
          "type": "uint256"
        }
      ],
      "name": "INVALID_PAYMENT_EVENT",
      "type": "error"
    },
    {
      "inputs": [
        {
          "internalType": "address",
          "name": "caller",
          "type": "address"
        },
        {
          "internalType": "uint256",
          "name": "projectId",
          "type": "uint256"
        },
        {
          "internalType": "uint256",
          "name": "value",
          "type": "uint256"
        }
      ],
      "name": "INVALID_REDEMPTION_EVENT",
      "type": "error"
    },
    {
      "inputs": [
        {
          "internalType": "address",
          "name": "payer",
          "type": "address"
        }
      ],
      "name": "PAYER_NOT_ON_ALLOWLIST",
      "type": "error"
    },
    {
      "inputs": [
        {
          "internalType": "address",
          "name": "newSource",
          "type": "address"
        }
      ],
      "name": "addDataSources",
      "outputs": [],
      "stateMutability": "nonpayable",
      "type": "function"
    },
    {
      "inputs": [
        {
          "internalType": "uint256",
          "name": "",
          "type": "uint256"
        }
      ],
      "name": "dataSources",
      "outputs": [
        {
          "internalType": "address",
          "name": "",
          "type": "address"
        }
      ],
      "stateMutability": "view",
      "type": "function"
    },
    {
      "inputs": [
        {
          "components": [
            {
              "internalType": "address",
              "name": "payer",
              "type": "address"
            },
            {
              "internalType": "uint256",
              "name": "projectId",
              "type": "uint256"
            },
            {
              "internalType": "uint256",
              "name": "currentFundingCycleConfiguration",
              "type": "uint256"
            },
            {
              "components": [
                {
                  "internalType": "address",
                  "name": "token",
                  "type": "address"
                },
                {
                  "internalType": "uint256",
                  "name": "value",
                  "type": "uint256"
                },
                {
                  "internalType": "uint256",
                  "name": "decimals",
                  "type": "uint256"
                },
                {
                  "internalType": "uint256",
                  "name": "currency",
                  "type": "uint256"
                }
              ],
              "internalType": "struct JBTokenAmount",
              "name": "amount",
              "type": "tuple"
            },
            {
              "components": [
                {
                  "internalType": "address",
                  "name": "token",
                  "type": "address"
                },
                {
                  "internalType": "uint256",
                  "name": "value",
                  "type": "uint256"
                },
                {
                  "internalType": "uint256",
                  "name": "decimals",
                  "type": "uint256"
                },
                {
                  "internalType": "uint256",
                  "name": "currency",
                  "type": "uint256"
                }
              ],
              "internalType": "struct JBTokenAmount",
              "name": "forwardedAmount",
              "type": "tuple"
            },
            {
              "internalType": "uint256",
              "name": "projectTokenCount",
              "type": "uint256"
            },
            {
              "internalType": "address",
              "name": "beneficiary",
              "type": "address"
            },
            {
              "internalType": "bool",
              "name": "preferClaimedTokens",
              "type": "bool"
            },
            {
              "internalType": "string",
              "name": "memo",
              "type": "string"
            },
            {
              "internalType": "bytes",
              "name": "dataSourceMetadata",
              "type": "bytes"
            },
            {
              "internalType": "bytes",
              "name": "payerMetadata",
              "type": "bytes"
            }
          ],
          "internalType": "struct JBDidPayData3_1_1",
          "name": "_data",
          "type": "tuple"
        }
      ],
      "name": "didPay",
      "outputs": [],
      "stateMutability": "payable",
      "type": "function"
    },
    {
      "inputs": [
        {
          "components": [
            {
              "internalType": "address",
              "name": "holder",
              "type": "address"
            },
            {
              "internalType": "uint256",
              "name": "projectId",
              "type": "uint256"
            },
            {
              "internalType": "uint256",
              "name": "currentFundingCycleConfiguration",
              "type": "uint256"
            },
            {
              "internalType": "uint256",
              "name": "projectTokenCount",
              "type": "uint256"
            },
            {
              "components": [
                {
                  "internalType": "address",
                  "name": "token",
                  "type": "address"
                },
                {
                  "internalType": "uint256",
                  "name": "value",
                  "type": "uint256"
                },
                {
                  "internalType": "uint256",
                  "name": "decimals",
                  "type": "uint256"
                },
                {
                  "internalType": "uint256",
                  "name": "currency",
                  "type": "uint256"
                }
              ],
              "internalType": "struct JBTokenAmount",
              "name": "reclaimedAmount",
              "type": "tuple"
            },
            {
              "components": [
                {
                  "internalType": "address",
                  "name": "token",
                  "type": "address"
                },
                {
                  "internalType": "uint256",
                  "name": "value",
                  "type": "uint256"
                },
                {
                  "internalType": "uint256",
                  "name": "decimals",
                  "type": "uint256"
                },
                {
                  "internalType": "uint256",
                  "name": "currency",
                  "type": "uint256"
                }
              ],
              "internalType": "struct JBTokenAmount",
              "name": "forwardedAmount",
              "type": "tuple"
            },
            {
              "internalType": "address payable",
              "name": "beneficiary",
              "type": "address"
            },
            {
              "internalType": "string",
              "name": "memo",
              "type": "string"
            },
            {
              "internalType": "bytes",
              "name": "dataSourceMetadata",
              "type": "bytes"
            },
            {
              "internalType": "bytes",
              "name": "redeemerMetadata",
              "type": "bytes"
            }
          ],
          "internalType": "struct JBDidRedeemData3_1_1",
          "name": "_data",
          "type": "tuple"
        }
      ],
      "name": "didRedeem",
      "outputs": [],
      "stateMutability": "payable",
      "type": "function"
    },
    {
      "inputs": [],
      "name": "directory",
      "outputs": [
        {
          "internalType": "contract IJBDirectory",
          "name": "",
          "type": "address"
        }
      ],
      "stateMutability": "view",
      "type": "function"
    },
    {
      "inputs": [],
      "name": "getDataSourcesLength",
      "outputs": [
        {
          "internalType": "uint256",
          "name": "",
          "type": "uint256"
        }
      ],
      "stateMutability": "view",
      "type": "function"
    },
    {
      "inputs": [],
      "name": "governance",
      "outputs": [
        {
          "internalType": "address",
          "name": "",
          "type": "address"
        }
      ],
      "stateMutability": "view",
      "type": "function"
    },
    {
      "inputs": [
        {
          "internalType": "uint256",
          "name": "_projectId",
          "type": "uint256"
        },
        {
          "internalType": "contract IJBDirectory",
          "name": "_directory",
          "type": "address"
        },
        {
          "components": [
            {
              "internalType": "address[]",
              "name": "dataSources",
              "type": "address[]"
            },
            {
              "internalType": "address",
              "name": "governance",
              "type": "address"
            }
          ],
          "internalType": "struct DeployMyDelegateData",
          "name": "_deployMyDelegateData",
          "type": "tuple"
        }
      ],
      "name": "initialize",
      "outputs": [],
      "stateMutability": "nonpayable",
      "type": "function"
    },
    {
      "inputs": [
        {
          "components": [
            {
              "internalType": "contract IJBPaymentTerminal",
              "name": "terminal",
              "type": "address"
            },
            {
              "internalType": "address",
              "name": "payer",
              "type": "address"
            },
            {
              "components": [
                {
                  "internalType": "address",
                  "name": "token",
                  "type": "address"
                },
                {
                  "internalType": "uint256",
                  "name": "value",
                  "type": "uint256"
                },
                {
                  "internalType": "uint256",
                  "name": "decimals",
                  "type": "uint256"
                },
                {
                  "internalType": "uint256",
                  "name": "currency",
                  "type": "uint256"
                }
              ],
              "internalType": "struct JBTokenAmount",
              "name": "amount",
              "type": "tuple"
            },
            {
              "internalType": "uint256",
              "name": "projectId",
              "type": "uint256"
            },
            {
              "internalType": "uint256",
              "name": "currentFundingCycleConfiguration",
              "type": "uint256"
            },
            {
              "internalType": "address",
              "name": "beneficiary",
              "type": "address"
            },
            {
              "internalType": "uint256",
              "name": "weight",
              "type": "uint256"
            },
            {
              "internalType": "uint256",
              "name": "reservedRate",
              "type": "uint256"
            },
            {
              "internalType": "string",
              "name": "memo",
              "type": "string"
            },
            {
              "internalType": "bytes",
              "name": "metadata",
              "type": "bytes"
            }
          ],
          "internalType": "struct JBPayParamsData",
          "name": "_data",
          "type": "tuple"
        }
      ],
      "name": "payParams",
      "outputs": [
        {
          "internalType": "uint256",
          "name": "weight",
          "type": "uint256"
        },
        {
          "internalType": "string",
          "name": "memo",
          "type": "string"
        },
        {
          "components": [
            {
              "internalType": "contract IJBPayDelegate3_1_1",
              "name": "delegate",
              "type": "address"
            },
            {
              "internalType": "uint256",
              "name": "amount",
              "type": "uint256"
            },
            {
              "internalType": "bytes",
              "name": "metadata",
              "type": "bytes"
            }
          ],
          "internalType": "struct JBPayDelegateAllocation3_1_1[]",
          "name": "delegateAllocations",
          "type": "tuple[]"
        }
      ],
      "stateMutability": "view",
      "type": "function"
    },
    {
      "inputs": [],
      "name": "projectId",
      "outputs": [
        {
          "internalType": "uint256",
          "name": "",
          "type": "uint256"
        }
      ],
      "stateMutability": "view",
      "type": "function"
    },
    {
      "inputs": [
        {
          "components": [
            {
              "internalType": "contract IJBPaymentTerminal",
              "name": "terminal",
              "type": "address"
            },
            {
              "internalType": "address",
              "name": "holder",
              "type": "address"
            },
            {
              "internalType": "uint256",
              "name": "projectId",
              "type": "uint256"
            },
            {
              "internalType": "uint256",
              "name": "currentFundingCycleConfiguration",
              "type": "uint256"
            },
            {
              "internalType": "uint256",
              "name": "tokenCount",
              "type": "uint256"
            },
            {
              "internalType": "uint256",
              "name": "totalSupply",
              "type": "uint256"
            },
            {
              "internalType": "uint256",
              "name": "overflow",
              "type": "uint256"
            },
            {
              "components": [
                {
                  "internalType": "address",
                  "name": "token",
                  "type": "address"
                },
                {
                  "internalType": "uint256",
                  "name": "value",
                  "type": "uint256"
                },
                {
                  "internalType": "uint256",
                  "name": "decimals",
                  "type": "uint256"
                },
                {
                  "internalType": "uint256",
                  "name": "currency",
                  "type": "uint256"
                }
              ],
              "internalType": "struct JBTokenAmount",
              "name": "reclaimAmount",
              "type": "tuple"
            },
            {
              "internalType": "bool",
              "name": "useTotalOverflow",
              "type": "bool"
            },
            {
              "internalType": "uint256",
              "name": "redemptionRate",
              "type": "uint256"
            },
            {
              "internalType": "string",
              "name": "memo",
              "type": "string"
            },
            {
              "internalType": "bytes",
              "name": "metadata",
              "type": "bytes"
            }
          ],
          "internalType": "struct JBRedeemParamsData",
          "name": "_data",
          "type": "tuple"
        }
      ],
      "name": "redeemParams",
      "outputs": [
        {
          "internalType": "uint256",
          "name": "reclaimAmount",
          "type": "uint256"
        },
        {
          "internalType": "string",
          "name": "memo",
          "type": "string"
        },
        {
          "components": [
            {
              "internalType": "contract IJBRedemptionDelegate3_1_1",
              "name": "delegate",
              "type": "address"
            },
            {
              "internalType": "uint256",
              "name": "amount",
              "type": "uint256"
            },
            {
              "internalType": "bytes",
              "name": "metadata",
              "type": "bytes"
            }
          ],
          "internalType": "struct JBRedemptionDelegateAllocation3_1_1[]",
          "name": "delegateAllocations",
          "type": "tuple[]"
        }
      ],
      "stateMutability": "view",
      "type": "function"
    },
    {
      "inputs": [
        {
          "internalType": "uint256",
          "name": "index",
          "type": "uint256"
        }
      ],
      "name": "removeDataSource",
      "outputs": [],
      "stateMutability": "nonpayable",
      "type": "function"
    },
    {
      "inputs": [
        {
          "internalType": "bytes4",
          "name": "_interfaceId",
          "type": "bytes4"
        }
      ],
      "name": "supportsInterface",
      "outputs": [
        {
          "internalType": "bool",
          "name": "",
          "type": "bool"
        }
      ],
      "stateMutability": "view",
      "type": "function"
    }
  ],
  "bytecode": {
    "object": "0x60806040523480156200001157600080fd5b50604051620011793803806200117983398101604081905262000034916200006f565b505062000158565b80516001600160a01b03811681146200005457600080fd5b919050565b634e487b7160e01b600052604160045260246000fd5b600080604083850312156200008357600080fd5b6200008e836200003c565b602084810151919350906001600160401b0380821115620000ae57600080fd5b818601915086601f830112620000c357600080fd5b815181811115620000d857620000d862000059565b8060051b604051601f19603f8301168101818110858211171562000100576200010062000059565b6040529182528482019250838101850191898311156200011f57600080fd5b938501935b82851015620001485762000138856200003c565b8452938501939285019262000124565b8096505050505050509250929050565b61101180620001686000396000f3fe6080604052600436106100c25760003560e01c806382f4bd711161007f578063c41c2f2411610059578063c41c2f241461020f578063d46cf1711461022f578063d81a83361461025e578063f44515bb1461027e57600080fd5b806382f4bd71146101a0578063a51cfd18146101c0578063b0954263146101ef57600080fd5b806301ffc9a7146100c75780630bf46e59146100fc57806313e8e591146101115780633fafa127146101495780635aa6e6751461016d5780636b2049431461018d575b600080fd5b3480156100d357600080fd5b506100e76100e2366004610a31565b610293565b60405190151581526020015b60405180910390f35b61010f61010a366004610a62565b6102e5565b005b34801561011d57600080fd5b5061013161012c366004610a9e565b6103b0565b6040516001600160a01b0390911681526020016100f3565b34801561015557600080fd5b5061015f60005481565b6040519081526020016100f3565b34801561017957600080fd5b50600254610131906001600160a01b031681565b61010f61019b366004610ab7565b6103da565b3480156101ac57600080fd5b5061010f6101bb366004610b88565b61049d565b3480156101cc57600080fd5b506101e06101db366004610c93565b610559565b6040516100f393929190610d15565b3480156101fb57600080fd5b5061010f61020a366004610db3565b610659565b34801561021b57600080fd5b50600154610131906001600160a01b031681565b34801561023b57600080fd5b5061024f61024a366004610dd0565b6106fb565b6040516100f393929190610e0c565b34801561026a57600080fd5b5061010f610279366004610a9e565b6108eb565b34801561028a57600080fd5b5060035461015f565b60006001600160e01b031982166371700c6960e01b14806102c457506001600160e01b03198216636b20494360e01b145b806102df57506001600160e01b03198216630bf46e5960e01b145b92915050565b341515806103675750600154600054604051636e49181f60e01b815260048101919091523360248201526001600160a01b0390911690636e49181f90604401602060405180830381865afa158015610341573d6000803e3d6000fd5b505050506040513d601f19601f820116820180604052508101906103659190610e98565b155b806103785750600054816020013514155b156103ad5760405163dbd1cb8760e01b8152336004820152602082013560248201523460448201526064015b60405180910390fd5b50565b600381815481106103c057600080fd5b6000918252602090912001546001600160a01b0316905081565b3415158061045c5750600154600054604051636e49181f60e01b815260048101919091523360248201526001600160a01b0390911690636e49181f90604401602060405180830381865afa158015610436573d6000803e3d6000fd5b505050506040513d601f19601f8201168201806040525081019061045a9190610e98565b155b8061046d5750600054816020013514155b156103ad5760405163992405f760e01b8152336004820152602082013560248201523460448201526064016103a4565b600054156104aa57600080fd5b6000838155600180546001600160a01b038086166001600160a01b031992831617909255602084015160028054919093169116179055815151905b818110156105525760038360000151828151811061050557610505610eba565b60209081029190910181015182546001810184556000938452919092200180546001600160a01b0319166001600160a01b039092169190911790558061054a81610ee6565b9150506104e5565b5050505050565b6101008101356060806105706101a0850185610eff565b8080601f016020809104026020016040519081016040528093929190818152602001838380828437600092019190915250929450600192506105b0915050565b6040519080825280602002602001820160405280156105fd57816020015b604080516060808201835260008083526020830152918101919091528152602001906001900390816105ce5790505b5090506040518060600160405280306001600160a01b0316815260200160008152602001604051806020016040528060008152508152508160008151811061064757610647610eba565b60200260200101819052509193909250565b6002546001600160a01b031633146106a95760405162461bcd60e51b815260206004820152601360248201527226bab9ba1031329023b7bb32b93730b731b29760691b60448201526064016103a4565b600380546001810182556000919091527fc2575a0e9e593c00f959f8c92f12db2869c3395a3b0502d05e2516446f71f85b0180546001600160a01b0319166001600160a01b0392909216919091179055565b600060608082805b6003548110156107b75760006003828154811061072257610722610eba565b600091825260209182902001546040805163f6326e5360e01b815290516001600160a01b039092169350839263f6326e53926004808401938290030181865afa158015610773573d6000803e3d6000fd5b505050506040513d601f19601f820116820180604052508101906107979190610f4d565b6107a19084610f66565b92505080806107af90610ee6565b915050610703565b506003546000906107c9836064610f79565b6107d39190610f90565b905060646107e682610120890135610f79565b6107f09190610f90565b9450610800610160870187610eff565b8080601f01602080910402602001604051908101604052809392919081815260200183838082843760009201919091525092965060019250610840915050565b60405190808252806020026020018201604052801561088d57816020015b6040805160608082018352600080835260208301529181019190915281526020019060019003908161085e5790505b5092506040518060600160405280306001600160a01b031681526020016000815260200160405180602001604052806000815250815250836000815181106108d7576108d7610eba565b602002602001018190525050509193909250565b6002546001600160a01b0316331461093b5760405162461bcd60e51b815260206004820152601360248201527226bab9ba1031329023b7bb32b93730b731b29760691b60448201526064016103a4565b60035481106109815760405162461bcd60e51b8152602060048201526012602482015271496e646578206f7574206f662072616e676560701b60448201526064016103a4565b6003805461099190600190610fb2565b815481106109a1576109a1610eba565b600091825260209091200154600380546001600160a01b0390921691839081106109cd576109cd610eba565b9060005260206000200160006101000a8154816001600160a01b0302191690836001600160a01b031602179055506003805480610a0c57610a0c610fc5565b600082815260209020810160001990810180546001600160a01b031916905501905550565b600060208284031215610a4357600080fd5b81356001600160e01b031981168114610a5b57600080fd5b9392505050565b600060208284031215610a7457600080fd5b813567ffffffffffffffff811115610a8b57600080fd5b82016102008185031215610a5b57600080fd5b600060208284031215610ab057600080fd5b5035919050565b600060208284031215610ac957600080fd5b813567ffffffffffffffff811115610ae057600080fd5b82016102208185031215610a5b57600080fd5b6001600160a01b03811681146103ad57600080fd5b634e487b7160e01b600052604160045260246000fd5b6040805190810167ffffffffffffffff81118282101715610b4157610b41610b08565b60405290565b604051601f8201601f1916810167ffffffffffffffff81118282101715610b7057610b70610b08565b604052919050565b8035610b8381610af3565b919050565b600080600060608486031215610b9d57600080fd5b83359250602080850135610bb081610af3565b9250604085013567ffffffffffffffff80821115610bcd57600080fd5b9086019060408289031215610be157600080fd5b610be9610b1e565b823582811115610bf857600080fd5b8301601f81018a13610c0957600080fd5b803583811115610c1b57610c1b610b08565b8060051b9350610c2c868501610b47565b818152938201860193868101908c861115610c4657600080fd5b928701925b85841015610c705783359250610c6083610af3565b8282529287019290870190610c4b565b845250610c81915050838501610b78565b84820152809450505050509250925092565b600060208284031215610ca557600080fd5b813567ffffffffffffffff811115610cbc57600080fd5b82016101e08185031215610a5b57600080fd5b6000815180845260005b81811015610cf557602081850181015186830182015201610cd9565b506000602082860101526020601f19601f83011685010191505092915050565b6000606085835260208181850152610d2f82850187610ccf565b6040858203818701528187518084528484019150848160051b850101858a0160005b83811015610da157868303601f19018552815180516001600160a01b0316845288810151898501528601518684018a9052610d8e8a850182610ccf565b9589019593505090870190600101610d51565b50909c9b505050505050505050505050565b600060208284031215610dc557600080fd5b8135610a5b81610af3565b600060208284031215610de257600080fd5b813567ffffffffffffffff811115610df957600080fd5b82016101a08185031215610a5b57600080fd5b6000606085835260208181850152610e2682850187610ccf565b6040858203818701528187518084528484019150848160051b850101858a0160005b83811015610da157868303601f19018552815180516001600160a01b0316845288810151898501528601518684018a9052610e858a850182610ccf565b9589019593505090870190600101610e48565b600060208284031215610eaa57600080fd5b81518015158114610a5b57600080fd5b634e487b7160e01b600052603260045260246000fd5b634e487b7160e01b600052601160045260246000fd5b600060018201610ef857610ef8610ed0565b5060010190565b6000808335601e19843603018112610f1657600080fd5b83018035915067ffffffffffffffff821115610f3157600080fd5b602001915036819003821315610f4657600080fd5b9250929050565b600060208284031215610f5f57600080fd5b5051919050565b808201808211156102df576102df610ed0565b80820281158282048414176102df576102df610ed0565b600082610fad57634e487b7160e01b600052601260045260246000fd5b500490565b818103818111156102df576102df610ed0565b634e487b7160e01b600052603160045260246000fdfea2646970667358221220f4e3a0768f4dc28680c6c9282d34bd4552bbbe287174d90d9c1aecb7fb7fb4b664736f6c63430008140033",
    "linkReferences": {}
  },
  "methodIdentifiers": {
    "addDataSources(address)": "b0954263",
    "dataSources(uint256)": "13e8e591",
    "didPay((address,uint256,uint256,(address,uint256,uint256,uint256),(address,uint256,uint256,uint256),uint256,address,bool,string,bytes,bytes))": "6b204943",
    "didRedeem((address,uint256,uint256,uint256,(address,uint256,uint256,uint256),(address,uint256,uint256,uint256),address,string,bytes,bytes))": "0bf46e59",
    "directory()": "c41c2f24",
    "getDataSourcesLength()": "f44515bb",
    "governance()": "5aa6e675",
    "initialize(uint256,address,(address[],address))": "82f4bd71",
    "payParams((address,address,(address,uint256,uint256,uint256),uint256,uint256,address,uint256,uint256,string,bytes))": "d46cf171",
    "projectId()": "3fafa127",
    "redeemParams((address,address,uint256,uint256,uint256,uint256,uint256,(address,uint256,uint256,uint256),bool,uint256,string,bytes))": "a51cfd18",
    "removeDataSource(uint256)": "d81a8336",
    "supportsInterface(bytes4)": "01ffc9a7"
  },
  "id": 140
}