{
  "abi": [
    {
      "inputs": [],
      "stateMutability": "nonpayable",
      "type": "constructor"
    },
    {
      "inputs": [
        {
          "internalType": "address",
          "name": "caller",
          "type": "address"
        },
        {
          "internalType": "uint256",
          "name": "projectId",
          "type": "uint256"
        },
        {
          "internalType": "uint256",
          "name": "value",
          "type": "uint256"
        }
      ],
      "name": "INVALID_PAYMENT_EVENT",
      "type": "error"
    },
    {
      "inputs": [
        {
          "internalType": "address",
          "name": "caller",
          "type": "address"
        },
        {
          "internalType": "uint256",
          "name": "projectId",
          "type": "uint256"
        },
        {
          "internalType": "uint256",
          "name": "value",
          "type": "uint256"
        }
      ],
      "name": "INVALID_REDEMPTION_EVENT",
      "type": "error"
    },
    {
      "inputs": [
        {
          "internalType": "address",
          "name": "payer",
          "type": "address"
        }
      ],
      "name": "PAYER_NOT_ON_ALLOWLIST",
      "type": "error"
    },
    {
      "inputs": [
        {
          "internalType": "uint256",
          "name": "",
          "type": "uint256"
        }
      ],
      "name": "dataWeightSources",
      "outputs": [
        {
          "internalType": "address",
          "name": "",
          "type": "address"
        }
      ],
      "stateMutability": "view",
      "type": "function"
    },
    {
      "inputs": [
        {
          "components": [
            {
              "internalType": "address",
              "name": "payer",
              "type": "address"
            },
            {
              "internalType": "uint256",
              "name": "projectId",
              "type": "uint256"
            },
            {
              "internalType": "uint256",
              "name": "currentFundingCycleConfiguration",
              "type": "uint256"
            },
            {
              "components": [
                {
                  "internalType": "address",
                  "name": "token",
                  "type": "address"
                },
                {
                  "internalType": "uint256",
                  "name": "value",
                  "type": "uint256"
                },
                {
                  "internalType": "uint256",
                  "name": "decimals",
                  "type": "uint256"
                },
                {
                  "internalType": "uint256",
                  "name": "currency",
                  "type": "uint256"
                }
              ],
              "internalType": "struct JBTokenAmount",
              "name": "amount",
              "type": "tuple"
            },
            {
              "components": [
                {
                  "internalType": "address",
                  "name": "token",
                  "type": "address"
                },
                {
                  "internalType": "uint256",
                  "name": "value",
                  "type": "uint256"
                },
                {
                  "internalType": "uint256",
                  "name": "decimals",
                  "type": "uint256"
                },
                {
                  "internalType": "uint256",
                  "name": "currency",
                  "type": "uint256"
                }
              ],
              "internalType": "struct JBTokenAmount",
              "name": "forwardedAmount",
              "type": "tuple"
            },
            {
              "internalType": "uint256",
              "name": "projectTokenCount",
              "type": "uint256"
            },
            {
              "internalType": "address",
              "name": "beneficiary",
              "type": "address"
            },
            {
              "internalType": "bool",
              "name": "preferClaimedTokens",
              "type": "bool"
            },
            {
              "internalType": "string",
              "name": "memo",
              "type": "string"
            },
            {
              "internalType": "bytes",
              "name": "dataSourceMetadata",
              "type": "bytes"
            },
            {
              "internalType": "bytes",
              "name": "payerMetadata",
              "type": "bytes"
            }
          ],
          "internalType": "struct JBDidPayData3_1_1",
          "name": "_data",
          "type": "tuple"
        }
      ],
      "name": "didPay",
      "outputs": [],
      "stateMutability": "payable",
      "type": "function"
    },
    {
      "inputs": [
        {
          "components": [
            {
              "internalType": "address",
              "name": "holder",
              "type": "address"
            },
            {
              "internalType": "uint256",
              "name": "projectId",
              "type": "uint256"
            },
            {
              "internalType": "uint256",
              "name": "currentFundingCycleConfiguration",
              "type": "uint256"
            },
            {
              "internalType": "uint256",
              "name": "projectTokenCount",
              "type": "uint256"
            },
            {
              "components": [
                {
                  "internalType": "address",
                  "name": "token",
                  "type": "address"
                },
                {
                  "internalType": "uint256",
                  "name": "value",
                  "type": "uint256"
                },
                {
                  "internalType": "uint256",
                  "name": "decimals",
                  "type": "uint256"
                },
                {
                  "internalType": "uint256",
                  "name": "currency",
                  "type": "uint256"
                }
              ],
              "internalType": "struct JBTokenAmount",
              "name": "reclaimedAmount",
              "type": "tuple"
            },
            {
              "components": [
                {
                  "internalType": "address",
                  "name": "token",
                  "type": "address"
                },
                {
                  "internalType": "uint256",
                  "name": "value",
                  "type": "uint256"
                },
                {
                  "internalType": "uint256",
                  "name": "decimals",
                  "type": "uint256"
                },
                {
                  "internalType": "uint256",
                  "name": "currency",
                  "type": "uint256"
                }
              ],
              "internalType": "struct JBTokenAmount",
              "name": "forwardedAmount",
              "type": "tuple"
            },
            {
              "internalType": "address payable",
              "name": "beneficiary",
              "type": "address"
            },
            {
              "internalType": "string",
              "name": "memo",
              "type": "string"
            },
            {
              "internalType": "bytes",
              "name": "dataSourceMetadata",
              "type": "bytes"
            },
            {
              "internalType": "bytes",
              "name": "redeemerMetadata",
              "type": "bytes"
            }
          ],
          "internalType": "struct JBDidRedeemData3_1_1",
          "name": "_data",
          "type": "tuple"
        }
      ],
      "name": "didRedeem",
      "outputs": [],
      "stateMutability": "payable",
      "type": "function"
    },
    {
      "inputs": [],
      "name": "directory",
      "outputs": [
        {
          "internalType": "contract IJBDirectory",
          "name": "",
          "type": "address"
        }
      ],
      "stateMutability": "view",
      "type": "function"
    },
    {
      "inputs": [],
      "name": "getDataWeightSourcesLength",
      "outputs": [
        {
          "internalType": "uint256",
          "name": "",
          "type": "uint256"
        }
      ],
      "stateMutability": "view",
      "type": "function"
    },
    {
      "inputs": [
        {
          "internalType": "uint256",
          "name": "_projectId",
          "type": "uint256"
        },
        {
          "internalType": "contract IJBDirectory",
          "name": "_directory",
          "type": "address"
        },
        {
          "components": [
            {
              "internalType": "address[]",
              "name": "dataSources",
              "type": "address[]"
            }
          ],
          "internalType": "struct DeployMyDelegateData",
          "name": "_deployMyDelegateData",
          "type": "tuple"
        }
      ],
      "name": "initialize",
      "outputs": [],
      "stateMutability": "nonpayable",
      "type": "function"
    },
    {
      "inputs": [
        {
          "components": [
            {
              "internalType": "contract IJBPaymentTerminal",
              "name": "terminal",
              "type": "address"
            },
            {
              "internalType": "address",
              "name": "payer",
              "type": "address"
            },
            {
              "components": [
                {
                  "internalType": "address",
                  "name": "token",
                  "type": "address"
                },
                {
                  "internalType": "uint256",
                  "name": "value",
                  "type": "uint256"
                },
                {
                  "internalType": "uint256",
                  "name": "decimals",
                  "type": "uint256"
                },
                {
                  "internalType": "uint256",
                  "name": "currency",
                  "type": "uint256"
                }
              ],
              "internalType": "struct JBTokenAmount",
              "name": "amount",
              "type": "tuple"
            },
            {
              "internalType": "uint256",
              "name": "projectId",
              "type": "uint256"
            },
            {
              "internalType": "uint256",
              "name": "currentFundingCycleConfiguration",
              "type": "uint256"
            },
            {
              "internalType": "address",
              "name": "beneficiary",
              "type": "address"
            },
            {
              "internalType": "uint256",
              "name": "weight",
              "type": "uint256"
            },
            {
              "internalType": "uint256",
              "name": "reservedRate",
              "type": "uint256"
            },
            {
              "internalType": "string",
              "name": "memo",
              "type": "string"
            },
            {
              "internalType": "bytes",
              "name": "metadata",
              "type": "bytes"
            }
          ],
          "internalType": "struct JBPayParamsData",
          "name": "_data",
          "type": "tuple"
        }
      ],
      "name": "payParams",
      "outputs": [
        {
          "internalType": "uint256",
          "name": "weight",
          "type": "uint256"
        },
        {
          "internalType": "string",
          "name": "memo",
          "type": "string"
        },
        {
          "components": [
            {
              "internalType": "contract IJBPayDelegate3_1_1",
              "name": "delegate",
              "type": "address"
            },
            {
              "internalType": "uint256",
              "name": "amount",
              "type": "uint256"
            },
            {
              "internalType": "bytes",
              "name": "metadata",
              "type": "bytes"
            }
          ],
          "internalType": "struct JBPayDelegateAllocation3_1_1[]",
          "name": "delegateAllocations",
          "type": "tuple[]"
        }
      ],
      "stateMutability": "view",
      "type": "function"
    },
    {
      "inputs": [],
      "name": "projectId",
      "outputs": [
        {
          "internalType": "uint256",
          "name": "",
          "type": "uint256"
        }
      ],
      "stateMutability": "view",
      "type": "function"
    },
    {
      "inputs": [
        {
          "components": [
            {
              "internalType": "contract IJBPaymentTerminal",
              "name": "terminal",
              "type": "address"
            },
            {
              "internalType": "address",
              "name": "holder",
              "type": "address"
            },
            {
              "internalType": "uint256",
              "name": "projectId",
              "type": "uint256"
            },
            {
              "internalType": "uint256",
              "name": "currentFundingCycleConfiguration",
              "type": "uint256"
            },
            {
              "internalType": "uint256",
              "name": "tokenCount",
              "type": "uint256"
            },
            {
              "internalType": "uint256",
              "name": "totalSupply",
              "type": "uint256"
            },
            {
              "internalType": "uint256",
              "name": "overflow",
              "type": "uint256"
            },
            {
              "components": [
                {
                  "internalType": "address",
                  "name": "token",
                  "type": "address"
                },
                {
                  "internalType": "uint256",
                  "name": "value",
                  "type": "uint256"
                },
                {
                  "internalType": "uint256",
                  "name": "decimals",
                  "type": "uint256"
                },
                {
                  "internalType": "uint256",
                  "name": "currency",
                  "type": "uint256"
                }
              ],
              "internalType": "struct JBTokenAmount",
              "name": "reclaimAmount",
              "type": "tuple"
            },
            {
              "internalType": "bool",
              "name": "useTotalOverflow",
              "type": "bool"
            },
            {
              "internalType": "uint256",
              "name": "redemptionRate",
              "type": "uint256"
            },
            {
              "internalType": "string",
              "name": "memo",
              "type": "string"
            },
            {
              "internalType": "bytes",
              "name": "metadata",
              "type": "bytes"
            }
          ],
          "internalType": "struct JBRedeemParamsData",
          "name": "_data",
          "type": "tuple"
        }
      ],
      "name": "redeemParams",
      "outputs": [
        {
          "internalType": "uint256",
          "name": "reclaimAmount",
          "type": "uint256"
        },
        {
          "internalType": "string",
          "name": "memo",
          "type": "string"
        },
        {
          "components": [
            {
              "internalType": "contract IJBRedemptionDelegate3_1_1",
              "name": "delegate",
              "type": "address"
            },
            {
              "internalType": "uint256",
              "name": "amount",
              "type": "uint256"
            },
            {
              "internalType": "bytes",
              "name": "metadata",
              "type": "bytes"
            }
          ],
          "internalType": "struct JBRedemptionDelegateAllocation3_1_1[]",
          "name": "delegateAllocations",
          "type": "tuple[]"
        }
      ],
      "stateMutability": "view",
      "type": "function"
    },
    {
      "inputs": [
        {
          "internalType": "bytes4",
          "name": "_interfaceId",
          "type": "bytes4"
        }
      ],
      "name": "supportsInterface",
      "outputs": [
        {
          "internalType": "bool",
          "name": "",
          "type": "bool"
        }
      ],
      "stateMutability": "view",
      "type": "function"
    }
  ],
  "bytecode": {
    "object": "0x608060405234801561001057600080fd5b50600380546001818101835560008390527fc2575a0e9e593c00f959f8c92f12db2869c3395a3b0502d05e2516446f71f85b91820180546001600160a01b0319908116610123179091558354918201909355018054909116610456179055610c958061007d6000396000f3fe6080604052600436106100905760003560e01c80636b204943116100595780636b20494314610134578063a51cfd1814610147578063c41c2f2414610176578063d46cf171146101ae578063eccb6a0b146101dd57600080fd5b80625a21e41461009557806301ffc9a7146100b95780630bf46e59146100e95780633144e102146100fe5780633fafa1271461011e575b600080fd5b3480156100a157600080fd5b506003545b6040519081526020015b60405180910390f35b3480156100c557600080fd5b506100d96100d4366004610717565b6101fd565b60405190151581526020016100b0565b6100fc6100f7366004610748565b61024f565b005b34801561010a57600080fd5b506100fc610119366004610809565b61031a565b34801561012a57600080fd5b506100a660005481565b6100fc610142366004610908565b61034f565b34801561015357600080fd5b50610167610162366004610944565b610412565b6040516100b0939291906109c6565b34801561018257600080fd5b50600154610196906001600160a01b031681565b6040516001600160a01b0390911681526020016100b0565b3480156101ba57600080fd5b506101ce6101c9366004610a64565b610512565b6040516100b093929190610aa0565b3480156101e957600080fd5b506101966101f8366004610b2c565b6106ed565b60006001600160e01b031982166371700c6960e01b148061022e57506001600160e01b03198216636b20494360e01b145b8061024957506001600160e01b03198216630bf46e5960e01b145b92915050565b341515806102d15750600154600054604051636e49181f60e01b815260048101919091523360248201526001600160a01b0390911690636e49181f90604401602060405180830381865afa1580156102ab573d6000803e3d6000fd5b505050506040513d601f19601f820116820180604052508101906102cf9190610b45565b155b806102e25750600054816020013514155b156103175760405163dbd1cb8760e01b8152336004820152602082013560248201523460448201526064015b60405180910390fd5b50565b6000541561032757600080fd5b50600091909155600180546001600160a01b0319166001600160a01b03909216919091179055565b341515806103d15750600154600054604051636e49181f60e01b815260048101919091523360248201526001600160a01b0390911690636e49181f90604401602060405180830381865afa1580156103ab573d6000803e3d6000fd5b505050506040513d601f19601f820116820180604052508101906103cf9190610b45565b155b806103e25750600054816020013514155b156103175760405163992405f760e01b81523360048201526020820135602482015234604482015260640161030e565b6101008101356060806104296101a0850185610b67565b8080601f01602080910402602001604051908101604052809392919081815260200183838082843760009201919091525092945060019250610469915050565b6040519080825280602002602001820160405280156104b657816020015b604080516060808201835260008083526020830152918101919091528152602001906001900390816104875790505b5090506040518060600160405280306001600160a01b0316815260200160008152602001604051806020016040528060008152508152508160008151811061050057610500610bb5565b60200260200101819052509193909250565b600060608082805b6003548110156105ce5760006003828154811061053957610539610bb5565b600091825260209182902001546040805163f6326e5360e01b815290516001600160a01b039092169350839263f6326e53926004808401938290030181865afa15801561058a573d6000803e3d6000fd5b505050506040513d601f19601f820116820180604052508101906105ae9190610bcb565b6105b89084610bfa565b92505080806105c690610c0d565b91505061051a565b506003546064906105df9083610c26565b6105e99086610c48565b6105f39190610c26565b9350610603610160860186610b67565b8080601f01602080910402602001604051908101604052809392919081815260200183838082843760009201919091525092955060019250610643915050565b60405190808252806020026020018201604052801561069057816020015b604080516060808201835260008083526020830152918101919091528152602001906001900390816106615790505b5091506040518060600160405280306001600160a01b031681526020016000815260200160405180602001604052806000815250815250826000815181106106da576106da610bb5565b6020026020010181905250509193909250565b600381815481106106fd57600080fd5b6000918252602090912001546001600160a01b0316905081565b60006020828403121561072957600080fd5b81356001600160e01b03198116811461074157600080fd5b9392505050565b60006020828403121561075a57600080fd5b813567ffffffffffffffff81111561077157600080fd5b8201610200818503121561074157600080fd5b6001600160a01b038116811461031757600080fd5b634e487b7160e01b600052604160045260246000fd5b6040516020810167ffffffffffffffff811182821017156107d2576107d2610799565b60405290565b604051601f8201601f1916810167ffffffffffffffff8111828210171561080157610801610799565b604052919050565b60008060006060848603121561081e57600080fd5b8335925060208085013561083181610784565b9250604085013567ffffffffffffffff8082111561084e57600080fd5b818701915082828903121561086257600080fd5b61086a6107af565b82358281111561087957600080fd5b80840193505088601f84011261088e57600080fd5b8235828111156108a0576108a0610799565b8060051b92506108b18584016107d8565b818152928401850192858101908b8511156108cb57600080fd5b948601945b848610156108f557853592506108e583610784565b82825294860194908601906108d0565b8352509699959850965093945050505050565b60006020828403121561091a57600080fd5b813567ffffffffffffffff81111561093157600080fd5b8201610220818503121561074157600080fd5b60006020828403121561095657600080fd5b813567ffffffffffffffff81111561096d57600080fd5b82016101e0818503121561074157600080fd5b6000815180845260005b818110156109a65760208185018101518683018201520161098a565b506000602082860101526020601f19601f83011685010191505092915050565b60006060858352602081818501526109e082850187610980565b6040858203818701528187518084528484019150848160051b850101858a0160005b83811015610a5257868303601f19018552815180516001600160a01b0316845288810151898501528601518684018a9052610a3f8a850182610980565b9589019593505090870190600101610a02565b50909c9b505050505050505050505050565b600060208284031215610a7657600080fd5b813567ffffffffffffffff811115610a8d57600080fd5b82016101a0818503121561074157600080fd5b6000606085835260208181850152610aba82850187610980565b6040858203818701528187518084528484019150848160051b850101858a0160005b83811015610a5257868303601f19018552815180516001600160a01b0316845288810151898501528601518684018a9052610b198a850182610980565b9589019593505090870190600101610adc565b600060208284031215610b3e57600080fd5b5035919050565b600060208284031215610b5757600080fd5b8151801515811461074157600080fd5b6000808335601e19843603018112610b7e57600080fd5b83018035915067ffffffffffffffff821115610b9957600080fd5b602001915036819003821315610bae57600080fd5b9250929050565b634e487b7160e01b600052603260045260246000fd5b600060208284031215610bdd57600080fd5b5051919050565b634e487b7160e01b600052601160045260246000fd5b8082018082111561024957610249610be4565b600060018201610c1f57610c1f610be4565b5060010190565b600082610c4357634e487b7160e01b600052601260045260246000fd5b500490565b808202811582820484141761024957610249610be456fea26469706673582212209ccea7f21b873db7c7b79182194509fff3d6eda595ab002efe67f75550c4c22864736f6c63430008140033",
    "linkReferences": {}
  },
  "methodIdentifiers": {
    "dataWeightSources(uint256)": "eccb6a0b",
    "didPay((address,uint256,uint256,(address,uint256,uint256,uint256),(address,uint256,uint256,uint256),uint256,address,bool,string,bytes,bytes))": "6b204943",
    "didRedeem((address,uint256,uint256,uint256,(address,uint256,uint256,uint256),(address,uint256,uint256,uint256),address,string,bytes,bytes))": "0bf46e59",
    "directory()": "c41c2f24",
    "getDataWeightSourcesLength()": "005a21e4",
    "initialize(uint256,address,(address[]))": "3144e102",
    "payParams((address,address,(address,uint256,uint256,uint256),uint256,uint256,address,uint256,uint256,string,bytes))": "d46cf171",
    "projectId()": "3fafa127",
    "redeemParams((address,address,uint256,uint256,uint256,uint256,uint256,(address,uint256,uint256,uint256),bool,uint256,string,bytes))": "a51cfd18",
    "supportsInterface(bytes4)": "01ffc9a7"
  },
  "id": 140
}