{
  "abi": [
    {
      "inputs": [],
      "name": "NOT_ALLOWED",
      "type": "error"
    },
    {
      "inputs": [],
      "name": "getWeightModifier",
      "outputs": [
        {
          "internalType": "uint256",
          "name": "",
          "type": "uint256"
        }
      ],
      "stateMutability": "view",
      "type": "function"
    }
  ],
  "bytecode": {
    "object": "0x6080604052348015600f57600080fd5b50607880601d6000396000f3fe6080604052348015600f57600080fd5b506004361060285760003560e01c8063f6326e5314602d575b600080fd5b60005460405190815260200160405180910390f3fea264697066735822122093a9d2d83ad30985841d20874fa653773280973f60191cbe574a7b48c2445ba064736f6c63430008140033",
    "linkReferences": {}
  },
  "methodIdentifiers": {
    "getWeightModifier()": "f6326e53"
  },
  "id": 142
}